{
  "contractName": "DMCoin",
  "abi": [
    {
      "inputs": [],
      "stateMutability": "nonpayable",
      "type": "constructor"
    },
    {
      "inputs": [],
      "name": "notOwner",
      "type": "error"
    },
    {
      "anonymous": false,
      "inputs": [
        {
          "indexed": true,
          "internalType": "address",
          "name": "owner",
          "type": "address"
        },
        {
          "indexed": true,
          "internalType": "address",
          "name": "spender",
          "type": "address"
        },
        {
          "indexed": false,
          "internalType": "uint256",
          "name": "value",
          "type": "uint256"
        }
      ],
      "name": "Approval",
      "type": "event"
    },
    {
      "anonymous": false,
      "inputs": [
        {
          "indexed": true,
          "internalType": "address",
          "name": "from",
          "type": "address"
        },
        {
          "indexed": true,
          "internalType": "address",
          "name": "to",
          "type": "address"
        },
        {
          "indexed": false,
          "internalType": "uint256",
          "name": "value",
          "type": "uint256"
        }
      ],
      "name": "Transfer",
      "type": "event"
    },
    {
      "anonymous": false,
      "inputs": [
        {
          "indexed": true,
          "internalType": "address",
          "name": "owner",
          "type": "address"
        },
        {
          "indexed": false,
          "internalType": "uint256",
          "name": "amount",
          "type": "uint256"
        },
        {
          "indexed": false,
          "internalType": "string",
          "name": "message",
          "type": "string"
        }
      ],
      "name": "additionalTokensMinted",
      "type": "event"
    },
    {
      "anonymous": false,
      "inputs": [
        {
          "indexed": true,
          "internalType": "address",
          "name": "owner",
          "type": "address"
        },
        {
          "indexed": false,
          "internalType": "uint256",
          "name": "amount",
          "type": "uint256"
        },
        {
          "indexed": false,
          "internalType": "string",
          "name": "message",
          "type": "string"
        }
      ],
      "name": "tokensBurned",
      "type": "event"
    },
    {
      "anonymous": false,
      "inputs": [
        {
          "indexed": true,
          "internalType": "address",
          "name": "owner",
          "type": "address"
        },
        {
          "indexed": false,
          "internalType": "uint256",
          "name": "amount",
          "type": "uint256"
        },
        {
          "indexed": false,
          "internalType": "string",
          "name": "message",
          "type": "string"
        }
      ],
      "name": "tokensMinted",
      "type": "event"
    },
    {
      "inputs": [
        {
          "internalType": "address",
          "name": "owner",
          "type": "address"
        },
        {
          "internalType": "address",
          "name": "spender",
          "type": "address"
        }
      ],
      "name": "allowance",
      "outputs": [
        {
          "internalType": "uint256",
          "name": "",
          "type": "uint256"
        }
      ],
      "stateMutability": "view",
      "type": "function"
    },
    {
      "inputs": [
        {
          "internalType": "address",
          "name": "spender",
          "type": "address"
        },
        {
          "internalType": "uint256",
          "name": "amount",
          "type": "uint256"
        }
      ],
      "name": "approve",
      "outputs": [
        {
          "internalType": "bool",
          "name": "",
          "type": "bool"
        }
      ],
      "stateMutability": "nonpayable",
      "type": "function"
    },
    {
      "inputs": [
        {
          "internalType": "address",
          "name": "account",
          "type": "address"
        }
      ],
      "name": "balanceOf",
      "outputs": [
        {
          "internalType": "uint256",
          "name": "",
          "type": "uint256"
        }
      ],
      "stateMutability": "view",
      "type": "function"
    },
    {
      "inputs": [
        {
          "internalType": "address",
          "name": "account",
          "type": "address"
        },
        {
          "internalType": "uint256",
          "name": "amount",
          "type": "uint256"
        }
      ],
      "name": "burnFrom",
      "outputs": [],
      "stateMutability": "nonpayable",
      "type": "function"
    },
    {
      "inputs": [],
      "name": "decimals",
      "outputs": [
        {
          "internalType": "uint8",
          "name": "",
          "type": "uint8"
        }
      ],
      "stateMutability": "view",
      "type": "function"
    },
    {
      "inputs": [
        {
          "internalType": "address",
          "name": "spender",
          "type": "address"
        },
        {
          "internalType": "uint256",
          "name": "subtractedValue",
          "type": "uint256"
        }
      ],
      "name": "decreaseAllowance",
      "outputs": [
        {
          "internalType": "bool",
          "name": "",
          "type": "bool"
        }
      ],
      "stateMutability": "nonpayable",
      "type": "function"
    },
    {
      "inputs": [
        {
          "internalType": "address",
          "name": "spender",
          "type": "address"
        },
        {
          "internalType": "uint256",
          "name": "addedValue",
          "type": "uint256"
        }
      ],
      "name": "increaseAllowance",
      "outputs": [
        {
          "internalType": "bool",
          "name": "",
          "type": "bool"
        }
      ],
      "stateMutability": "nonpayable",
      "type": "function"
    },
    {
      "inputs": [],
      "name": "name",
      "outputs": [
        {
          "internalType": "string",
          "name": "",
          "type": "string"
        }
      ],
      "stateMutability": "view",
      "type": "function"
    },
    {
      "inputs": [],
      "name": "owner",
      "outputs": [
        {
          "internalType": "address",
          "name": "",
          "type": "address"
        }
      ],
      "stateMutability": "view",
      "type": "function"
    },
    {
      "inputs": [],
      "name": "symbol",
      "outputs": [
        {
          "internalType": "string",
          "name": "",
          "type": "string"
        }
      ],
      "stateMutability": "view",
      "type": "function"
    },
    {
      "inputs": [],
      "name": "totalSupply",
      "outputs": [
        {
          "internalType": "uint256",
          "name": "",
          "type": "uint256"
        }
      ],
      "stateMutability": "view",
      "type": "function"
    },
    {
      "inputs": [
        {
          "internalType": "address",
          "name": "to",
          "type": "address"
        },
        {
          "internalType": "uint256",
          "name": "amount",
          "type": "uint256"
        }
      ],
      "name": "transfer",
      "outputs": [
        {
          "internalType": "bool",
          "name": "",
          "type": "bool"
        }
      ],
      "stateMutability": "nonpayable",
      "type": "function"
    },
    {
      "inputs": [
        {
          "internalType": "address",
          "name": "from",
          "type": "address"
        },
        {
          "internalType": "address",
          "name": "to",
          "type": "address"
        },
        {
          "internalType": "uint256",
          "name": "amount",
          "type": "uint256"
        }
      ],
      "name": "transferFrom",
      "outputs": [
        {
          "internalType": "bool",
          "name": "",
          "type": "bool"
        }
      ],
      "stateMutability": "nonpayable",
      "type": "function"
    },
    {
      "inputs": [
        {
          "internalType": "address",
          "name": "to",
          "type": "address"
        },
        {
          "internalType": "uint256",
          "name": "amount",
          "type": "uint256"
        }
      ],
      "name": "mint",
      "outputs": [],
      "stateMutability": "nonpayable",
      "type": "function"
    },
    {
      "inputs": [
        {
          "internalType": "uint256",
          "name": "amount",
          "type": "uint256"
        }
      ],
      "name": "burn",
      "outputs": [],
      "stateMutability": "nonpayable",
      "type": "function"
    }
  ],
  "bytecode": "0x60806040523480156200001157600080fd5b506040518060400160405280601281526020017f447562696f75734d65616e696e67436f696e00000000000000000000000000008152506040518060400160405280600381526020017f444d43000000000000000000000000000000000000000000000000000000000081525081600390816200008f9190620005aa565b508060049081620000a19190620005aa565b50505033600560006101000a81548173ffffffffffffffffffffffffffffffffffffffff021916908373ffffffffffffffffffffffffffffffffffffffff1602179055506200012333620000fa620001a560201b60201c565b600a62000108919062000821565b6103e862000117919062000872565b620001ae60201b60201c565b3373ffffffffffffffffffffffffffffffffffffffff167f8d54cf4376f9d10619fbb6aded215dcdffc1b80415e0750f5064018278632d076200016b620001a560201b60201c565b600a62000179919062000821565b6103e862000188919062000872565b60405162000197919062000945565b60405180910390a262000a41565b60006012905090565b600073ffffffffffffffffffffffffffffffffffffffff168273ffffffffffffffffffffffffffffffffffffffff160362000220576040517f08c379a00000000000000000000000000000000000000000000000000000000081526004016200021790620009c7565b60405180910390fd5b62000234600083836200032660201b60201c565b8060026000828254620002489190620009e9565b92505081905550806000808473ffffffffffffffffffffffffffffffffffffffff1673ffffffffffffffffffffffffffffffffffffffff16815260200190815260200160002060008282546200029f9190620009e9565b925050819055508173ffffffffffffffffffffffffffffffffffffffff16600073ffffffffffffffffffffffffffffffffffffffff167fddf252ad1be2c89b69c2b068fc378daa952ba7f163c4a11628f55a4df523b3ef8360405162000306919062000a24565b60405180910390a362000322600083836200032b60201b60201c565b5050565b505050565b505050565b600081519050919050565b7f4e487b7100000000000000000000000000000000000000000000000000000000600052604160045260246000fd5b7f4e487b7100000000000000000000000000000000000000000000000000000000600052602260045260246000fd5b60006002820490506001821680620003b257607f821691505b602082108103620003c857620003c76200036a565b5b50919050565b60008190508160005260206000209050919050565b60006020601f8301049050919050565b600082821b905092915050565b600060088302620004327fffffffffffffffffffffffffffffffffffffffffffffffffffffffffffffffff82620003f3565b6200043e8683620003f3565b95508019841693508086168417925050509392505050565b6000819050919050565b6000819050919050565b60006200048b620004856200047f8462000456565b62000460565b62000456565b9050919050565b6000819050919050565b620004a7836200046a565b620004bf620004b68262000492565b84845462000400565b825550505050565b600090565b620004d6620004c7565b620004e38184846200049c565b505050565b5b818110156200050b57620004ff600082620004cc565b600181019050620004e9565b5050565b601f8211156200055a576200052481620003ce565b6200052f84620003e3565b810160208510156200053f578190505b620005576200054e85620003e3565b830182620004e8565b50505b505050565b600082821c905092915050565b60006200057f600019846008026200055f565b1980831691505092915050565b60006200059a83836200056c565b9150826002028217905092915050565b620005b58262000330565b67ffffffffffffffff811115620005d157620005d06200033b565b5b620005dd825462000399565b620005ea8282856200050f565b600060209050601f8311600181146200062257600084156200060d578287015190505b6200061985826200058c565b86555062000689565b601f1984166200063286620003ce565b60005b828110156200065c5784890151825560018201915060208501945060208101905062000635565b868310156200067c578489015162000678601f8916826200056c565b8355505b6001600288020188555050505b505050505050565b7f4e487b7100000000000000000000000000000000000000000000000000000000600052601160045260246000fd5b60008160011c9050919050565b6000808291508390505b60018511156200071f57808604811115620006f757620006f662000691565b5b6001851615620007075780820291505b80810290506200071785620006c0565b9450620006d7565b94509492505050565b6000826200073a57600190506200080d565b816200074a57600090506200080d565b81600181146200076357600281146200076e57620007a4565b60019150506200080d565b60ff84111562000783576200078262000691565b5b8360020a9150848211156200079d576200079c62000691565b5b506200080d565b5060208310610133831016604e8410600b8410161715620007de5782820a905083811115620007d857620007d762000691565b5b6200080d565b620007ed8484846001620006cd565b9250905081840481111562000807576200080662000691565b5b81810290505b9392505050565b600060ff82169050919050565b60006200082e8262000456565b91506200083b8362000814565b92506200086a7fffffffffffffffffffffffffffffffffffffffffffffffffffffffffffffffff848462000728565b905092915050565b60006200087f8262000456565b91506200088c8362000456565b9250817fffffffffffffffffffffffffffffffffffffffffffffffffffffffffffffffff0483118215151615620008c857620008c762000691565b5b828202905092915050565b620008de8162000456565b82525050565b600082825260208201905092915050565b7f4d696e7479206672657368000000000000000000000000000000000000000000600082015250565b60006200092d600b83620008e4565b91506200093a82620008f5565b602082019050919050565b60006040820190506200095c6000830184620008d3565b81810360208301526200096f816200091e565b905092915050565b7f45524332303a206d696e7420746f20746865207a65726f206164647265737300600082015250565b6000620009af601f83620008e4565b9150620009bc8262000977565b602082019050919050565b60006020820190508181036000830152620009e281620009a0565b9050919050565b6000620009f68262000456565b915062000a038362000456565b925082820190508082111562000a1e5762000a1d62000691565b5b92915050565b600060208201905062000a3b6000830184620008d3565b92915050565b611b458062000a516000396000f3fe608060405234801561001057600080fd5b50600436106100f55760003560e01c806342966c681161009757806395d89b411161006657806395d89b4114610286578063a457c2d7146102a4578063a9059cbb146102d4578063dd62ed3e14610304576100f5565b806342966c681461020057806370a082311461021c57806379cc67901461024c5780638da5cb5b14610268576100f5565b806323b872dd116100d357806323b872dd14610166578063313ce5671461019657806339509351146101b457806340c10f19146101e4576100f5565b806306fdde03146100fa578063095ea7b31461011857806318160ddd14610148575b600080fd5b610102610334565b60405161010f9190611113565b60405180910390f35b610132600480360381019061012d91906111ce565b6103c6565b60405161013f9190611229565b60405180910390f35b6101506103e9565b60405161015d9190611253565b60405180910390f35b610180600480360381019061017b919061126e565b6103f3565b60405161018d9190611229565b60405180910390f35b61019e610422565b6040516101ab91906112dd565b60405180910390f35b6101ce60048036038101906101c991906111ce565b61042b565b6040516101db9190611229565b60405180910390f35b6101fe60048036038101906101f991906111ce565b610462565b005b61021a600480360381019061021591906112f8565b610545565b005b61023660048036038101906102319190611325565b610627565b6040516102439190611253565b60405180910390f35b610266600480360381019061026191906111ce565b61066f565b005b61027061068f565b60405161027d9190611361565b60405180910390f35b61028e6106b5565b60405161029b9190611113565b60405180910390f35b6102be60048036038101906102b991906111ce565b610747565b6040516102cb9190611229565b60405180910390f35b6102ee60048036038101906102e991906111ce565b6107be565b6040516102fb9190611229565b60405180910390f35b61031e6004803603810190610319919061137c565b6107e1565b60405161032b9190611253565b60405180910390f35b606060038054610343906113eb565b80601f016020809104026020016040519081016040528092919081815260200182805461036f906113eb565b80156103bc5780601f10610391576101008083540402835291602001916103bc565b820191906000526020600020905b81548152906001019060200180831161039f57829003601f168201915b5050505050905090565b6000806103d1610868565b90506103de818585610870565b600191505092915050565b6000600254905090565b6000806103fe610868565b905061040b858285610a39565b610416858585610ac5565b60019150509392505050565b60006012905090565b600080610436610868565b905061045781858561044885896107e1565b610452919061144b565b610870565b600191505092915050565b600560009054906101000a900473ffffffffffffffffffffffffffffffffffffffff1673ffffffffffffffffffffffffffffffffffffffff163373ffffffffffffffffffffffffffffffffffffffff16146104e9576040517f251c9d6300000000000000000000000000000000000000000000000000000000815260040160405180910390fd5b6104f38282610d44565b3373ffffffffffffffffffffffffffffffffffffffff167fc31b604bce0888a4f5e36e76eee33516a5fff7a5d58ac7dcead8174c323eebf28260405161053991906114cb565b60405180910390a25050565b600560009054906101000a900473ffffffffffffffffffffffffffffffffffffffff1673ffffffffffffffffffffffffffffffffffffffff163373ffffffffffffffffffffffffffffffffffffffff16146105cc576040517f251c9d6300000000000000000000000000000000000000000000000000000000815260040160405180910390fd5b6105d63382610ea3565b3373ffffffffffffffffffffffffffffffffffffffff167fcde716650b13ae41f235d679e62500d67355bc41802e6cfc087b67a7850d975f8260405161061c9190611545565b60405180910390a250565b60008060008373ffffffffffffffffffffffffffffffffffffffff1673ffffffffffffffffffffffffffffffffffffffff168152602001908152602001600020549050919050565b6106818261067b610868565b83610a39565b61068b8282610ea3565b5050565b600560009054906101000a900473ffffffffffffffffffffffffffffffffffffffff1681565b6060600480546106c4906113eb565b80601f01602080910402602001604051908101604052809291908181526020018280546106f0906113eb565b801561073d5780601f106107125761010080835404028352916020019161073d565b820191906000526020600020905b81548152906001019060200180831161072057829003601f168201915b5050505050905090565b600080610752610868565b9050600061076082866107e1565b9050838110156107a5576040517f08c379a000000000000000000000000000000000000000000000000000000000815260040161079c906115e5565b60405180910390fd5b6107b28286868403610870565b60019250505092915050565b6000806107c9610868565b90506107d6818585610ac5565b600191505092915050565b6000600160008473ffffffffffffffffffffffffffffffffffffffff1673ffffffffffffffffffffffffffffffffffffffff16815260200190815260200160002060008373ffffffffffffffffffffffffffffffffffffffff1673ffffffffffffffffffffffffffffffffffffffff16815260200190815260200160002054905092915050565b600033905090565b600073ffffffffffffffffffffffffffffffffffffffff168373ffffffffffffffffffffffffffffffffffffffff16036108df576040517f08c379a00000000000000000000000000000000000000000000000000000000081526004016108d690611677565b60405180910390fd5b600073ffffffffffffffffffffffffffffffffffffffff168273ffffffffffffffffffffffffffffffffffffffff160361094e576040517f08c379a000000000000000000000000000000000000000000000000000000000815260040161094590611709565b60405180910390fd5b80600160008573ffffffffffffffffffffffffffffffffffffffff1673ffffffffffffffffffffffffffffffffffffffff16815260200190815260200160002060008473ffffffffffffffffffffffffffffffffffffffff1673ffffffffffffffffffffffffffffffffffffffff168152602001908152602001600020819055508173ffffffffffffffffffffffffffffffffffffffff168373ffffffffffffffffffffffffffffffffffffffff167f8c5be1e5ebec7d5bd14f71427d1e84f3dd0314c0f7b2291e5b200ac8c7c3b92583604051610a2c9190611253565b60405180910390a3505050565b6000610a4584846107e1565b90507fffffffffffffffffffffffffffffffffffffffffffffffffffffffffffffffff8114610abf5781811015610ab1576040517f08c379a0000000000000000000000000000000000000000000000000000000008152600401610aa890611775565b60405180910390fd5b610abe8484848403610870565b5b50505050565b600073ffffffffffffffffffffffffffffffffffffffff168373ffffffffffffffffffffffffffffffffffffffff1603610b34576040517f08c379a0000000000000000000000000000000000000000000000000000000008152600401610b2b90611807565b60405180910390fd5b600073ffffffffffffffffffffffffffffffffffffffff168273ffffffffffffffffffffffffffffffffffffffff1603610ba3576040517f08c379a0000000000000000000000000000000000000000000000000000000008152600401610b9a90611899565b60405180910390fd5b610bae838383611079565b60008060008573ffffffffffffffffffffffffffffffffffffffff1673ffffffffffffffffffffffffffffffffffffffff16815260200190815260200160002054905081811015610c34576040517f08c379a0000000000000000000000000000000000000000000000000000000008152600401610c2b9061192b565b60405180910390fd5b8181036000808673ffffffffffffffffffffffffffffffffffffffff1673ffffffffffffffffffffffffffffffffffffffff16815260200190815260200160002081905550816000808573ffffffffffffffffffffffffffffffffffffffff1673ffffffffffffffffffffffffffffffffffffffff1681526020019081526020016000206000828254610cc7919061144b565b925050819055508273ffffffffffffffffffffffffffffffffffffffff168473ffffffffffffffffffffffffffffffffffffffff167fddf252ad1be2c89b69c2b068fc378daa952ba7f163c4a11628f55a4df523b3ef84604051610d2b9190611253565b60405180910390a3610d3e84848461107e565b50505050565b600073ffffffffffffffffffffffffffffffffffffffff168273ffffffffffffffffffffffffffffffffffffffff1603610db3576040517f08c379a0000000000000000000000000000000000000000000000000000000008152600401610daa90611997565b60405180910390fd5b610dbf60008383611079565b8060026000828254610dd1919061144b565b92505081905550806000808473ffffffffffffffffffffffffffffffffffffffff1673ffffffffffffffffffffffffffffffffffffffff1681526020019081526020016000206000828254610e26919061144b565b925050819055508173ffffffffffffffffffffffffffffffffffffffff16600073ffffffffffffffffffffffffffffffffffffffff167fddf252ad1be2c89b69c2b068fc378daa952ba7f163c4a11628f55a4df523b3ef83604051610e8b9190611253565b60405180910390a3610e9f6000838361107e565b5050565b600073ffffffffffffffffffffffffffffffffffffffff168273ffffffffffffffffffffffffffffffffffffffff1603610f12576040517f08c379a0000000000000000000000000000000000000000000000000000000008152600401610f0990611a29565b60405180910390fd5b610f1e82600083611079565b60008060008473ffffffffffffffffffffffffffffffffffffffff1673ffffffffffffffffffffffffffffffffffffffff16815260200190815260200160002054905081811015610fa4576040517f08c379a0000000000000000000000000000000000000000000000000000000008152600401610f9b90611abb565b60405180910390fd5b8181036000808573ffffffffffffffffffffffffffffffffffffffff1673ffffffffffffffffffffffffffffffffffffffff168152602001908152602001600020819055508160026000828254610ffb9190611adb565b92505081905550600073ffffffffffffffffffffffffffffffffffffffff168373ffffffffffffffffffffffffffffffffffffffff167fddf252ad1be2c89b69c2b068fc378daa952ba7f163c4a11628f55a4df523b3ef846040516110609190611253565b60405180910390a36110748360008461107e565b505050565b505050565b505050565b600081519050919050565b600082825260208201905092915050565b60005b838110156110bd5780820151818401526020810190506110a2565b60008484015250505050565b6000601f19601f8301169050919050565b60006110e582611083565b6110ef818561108e565b93506110ff81856020860161109f565b611108816110c9565b840191505092915050565b6000602082019050818103600083015261112d81846110da565b905092915050565b600080fd5b600073ffffffffffffffffffffffffffffffffffffffff82169050919050565b60006111658261113a565b9050919050565b6111758161115a565b811461118057600080fd5b50565b6000813590506111928161116c565b92915050565b6000819050919050565b6111ab81611198565b81146111b657600080fd5b50565b6000813590506111c8816111a2565b92915050565b600080604083850312156111e5576111e4611135565b5b60006111f385828601611183565b9250506020611204858286016111b9565b9150509250929050565b60008115159050919050565b6112238161120e565b82525050565b600060208201905061123e600083018461121a565b92915050565b61124d81611198565b82525050565b60006020820190506112686000830184611244565b92915050565b60008060006060848603121561128757611286611135565b5b600061129586828701611183565b93505060206112a686828701611183565b92505060406112b7868287016111b9565b9150509250925092565b600060ff82169050919050565b6112d7816112c1565b82525050565b60006020820190506112f260008301846112ce565b92915050565b60006020828403121561130e5761130d611135565b5b600061131c848285016111b9565b91505092915050565b60006020828403121561133b5761133a611135565b5b600061134984828501611183565b91505092915050565b61135b8161115a565b82525050565b60006020820190506113766000830184611352565b92915050565b6000806040838503121561139357611392611135565b5b60006113a185828601611183565b92505060206113b285828601611183565b9150509250929050565b7f4e487b7100000000000000000000000000000000000000000000000000000000600052602260045260246000fd5b6000600282049050600182168061140357607f821691505b602082108103611416576114156113bc565b5b50919050565b7f4e487b7100000000000000000000000000000000000000000000000000000000600052601160045260246000fd5b600061145682611198565b915061146183611198565b92508282019050808211156114795761147861141c565b5b92915050565b7f4e6577206d696e74000000000000000000000000000000000000000000000000600082015250565b60006114b560088361108e565b91506114c08261147f565b602082019050919050565b60006040820190506114e06000830184611244565b81810360208301526114f1816114a8565b905092915050565b7f4275726e2062616279206275726e000000000000000000000000000000000000600082015250565b600061152f600e8361108e565b915061153a826114f9565b602082019050919050565b600060408201905061155a6000830184611244565b818103602083015261156b81611522565b905092915050565b7f45524332303a2064656372656173656420616c6c6f77616e63652062656c6f7760008201527f207a65726f000000000000000000000000000000000000000000000000000000602082015250565b60006115cf60258361108e565b91506115da82611573565b604082019050919050565b600060208201905081810360008301526115fe816115c2565b9050919050565b7f45524332303a20617070726f76652066726f6d20746865207a65726f2061646460008201527f7265737300000000000000000000000000000000000000000000000000000000602082015250565b600061166160248361108e565b915061166c82611605565b604082019050919050565b6000602082019050818103600083015261169081611654565b9050919050565b7f45524332303a20617070726f766520746f20746865207a65726f20616464726560008201527f7373000000000000000000000000000000000000000000000000000000000000602082015250565b60006116f360228361108e565b91506116fe82611697565b604082019050919050565b60006020820190508181036000830152611722816116e6565b9050919050565b7f45524332303a20696e73756666696369656e7420616c6c6f77616e6365000000600082015250565b600061175f601d8361108e565b915061176a82611729565b602082019050919050565b6000602082019050818103600083015261178e81611752565b9050919050565b7f45524332303a207472616e736665722066726f6d20746865207a65726f20616460008201527f6472657373000000000000000000000000000000000000000000000000000000602082015250565b60006117f160258361108e565b91506117fc82611795565b604082019050919050565b60006020820190508181036000830152611820816117e4565b9050919050565b7f45524332303a207472616e7366657220746f20746865207a65726f206164647260008201527f6573730000000000000000000000000000000000000000000000000000000000602082015250565b600061188360238361108e565b915061188e82611827565b604082019050919050565b600060208201905081810360008301526118b281611876565b9050919050565b7f45524332303a207472616e7366657220616d6f756e742065786365656473206260008201527f616c616e63650000000000000000000000000000000000000000000000000000602082015250565b600061191560268361108e565b9150611920826118b9565b604082019050919050565b6000602082019050818103600083015261194481611908565b9050919050565b7f45524332303a206d696e7420746f20746865207a65726f206164647265737300600082015250565b6000611981601f8361108e565b915061198c8261194b565b602082019050919050565b600060208201905081810360008301526119b081611974565b9050919050565b7f45524332303a206275726e2066726f6d20746865207a65726f2061646472657360008201527f7300000000000000000000000000000000000000000000000000000000000000602082015250565b6000611a1360218361108e565b9150611a1e826119b7565b604082019050919050565b60006020820190508181036000830152611a4281611a06565b9050919050565b7f45524332303a206275726e20616d6f756e7420657863656564732062616c616e60008201527f6365000000000000000000000000000000000000000000000000000000000000602082015250565b6000611aa560228361108e565b9150611ab082611a49565b604082019050919050565b60006020820190508181036000830152611ad481611a98565b9050919050565b6000611ae682611198565b9150611af183611198565b9250828203905081811115611b0957611b0861141c565b5b9291505056fea2646970667358221220f4ccc00b849842450bfa1734a67792d680b28e665ad6c436c1b3955f5fa4089264736f6c63430008100033",
  "immutableReferences": {},
  "source": "// SPDX-License-Identifier: GPL-3.0\r\n// Saved to 0xEDcCEa63444a36471C6D067C90F658df1a7122Db\r\n// Saved to 0xE4C53E4725fEfEf5ecB984B6574A7765099108Ea\r\n// Saved to 0x9A75dcD20e4c616cF89FeD3b1D143068633264DE\r\n\r\npragma solidity >=0.8.9;\r\nimport \"@openzeppelin/contracts/token/ERC20/ERC20.sol\";\r\nimport \"@openzeppelin/contracts/token/ERC20/extensions/ERC20Burnable.sol\";\r\n\r\ncontract DMCoin is ERC20, ERC20Burnable {\r\n    event tokensBurned(address indexed owner, uint256 amount, string message);\r\n    event tokensMinted(address indexed owner, uint256 amount, string message);\r\n    event additionalTokensMinted(address indexed owner,uint256 amount,string message);\r\n\r\n    address public owner;\r\n\r\n    constructor() ERC20(\"DubiousMeaningCoin\", \"DMC\") {\r\n        owner = msg.sender;\r\n        \r\n        _mint(msg.sender, 1000 * 10**decimals());\r\n        emit tokensMinted(msg.sender, 1000 * 10**decimals(), \"Minty fresh\");\r\n    }\r\n\r\n    error notOwner();\r\n\r\n    modifier ownerOnly() {\r\n        if(msg.sender != owner){\r\n            revert notOwner();\r\n        }\r\n        _;\r\n    }\r\n\r\n    function mint(address to, uint256 amount) public ownerOnly {\r\n        _mint(to, amount);\r\n        emit additionalTokensMinted(msg.sender, amount, \"New mint\");\r\n    }\r\n\r\n    function burn(uint256 amount) public override ownerOnly {\r\n        _burn(msg.sender, amount);\r\n        emit tokensBurned(msg.sender, amount, \"Burn baby burn\");\r\n    }\r\n}\r\n",
  "sourcePath": "D:\\Web dev\\game_vault\\contracts\\DMCoin.sol",
  "compiler": {
    "name": "solc",
    "version": "0.8.16+commit.07a7930e.Emscripten.clang"
  },
  "schemaVersion": "3.4.8",
  "updatedAt": "2022-09-04T02:38:15.523Z",
  "devdoc": {
    "kind": "dev",
    "methods": {
      "allowance(address,address)": {
        "details": "See {IERC20-allowance}."
      },
      "approve(address,uint256)": {
        "details": "See {IERC20-approve}. NOTE: If `amount` is the maximum `uint256`, the allowance is not updated on `transferFrom`. This is semantically equivalent to an infinite approval. Requirements: - `spender` cannot be the zero address."
      },
      "balanceOf(address)": {
        "details": "See {IERC20-balanceOf}."
      },
      "burn(uint256)": {
        "details": "Destroys `amount` tokens from the caller. See {ERC20-_burn}."
      },
      "burnFrom(address,uint256)": {
        "details": "Destroys `amount` tokens from `account`, deducting from the caller's allowance. See {ERC20-_burn} and {ERC20-allowance}. Requirements: - the caller must have allowance for ``accounts``'s tokens of at least `amount`."
      },
      "decimals()": {
        "details": "Returns the number of decimals used to get its user representation. For example, if `decimals` equals `2`, a balance of `505` tokens should be displayed to a user as `5.05` (`505 / 10 ** 2`). Tokens usually opt for a value of 18, imitating the relationship between Ether and Wei. This is the value {ERC20} uses, unless this function is overridden; NOTE: This information is only used for _display_ purposes: it in no way affects any of the arithmetic of the contract, including {IERC20-balanceOf} and {IERC20-transfer}."
      },
      "decreaseAllowance(address,uint256)": {
        "details": "Atomically decreases the allowance granted to `spender` by the caller. This is an alternative to {approve} that can be used as a mitigation for problems described in {IERC20-approve}. Emits an {Approval} event indicating the updated allowance. Requirements: - `spender` cannot be the zero address. - `spender` must have allowance for the caller of at least `subtractedValue`."
      },
      "increaseAllowance(address,uint256)": {
        "details": "Atomically increases the allowance granted to `spender` by the caller. This is an alternative to {approve} that can be used as a mitigation for problems described in {IERC20-approve}. Emits an {Approval} event indicating the updated allowance. Requirements: - `spender` cannot be the zero address."
      },
      "name()": {
        "details": "Returns the name of the token."
      },
      "symbol()": {
        "details": "Returns the symbol of the token, usually a shorter version of the name."
      },
      "totalSupply()": {
        "details": "See {IERC20-totalSupply}."
      },
      "transfer(address,uint256)": {
        "details": "See {IERC20-transfer}. Requirements: - `to` cannot be the zero address. - the caller must have a balance of at least `amount`."
      },
      "transferFrom(address,address,uint256)": {
        "details": "See {IERC20-transferFrom}. Emits an {Approval} event indicating the updated allowance. This is not required by the EIP. See the note at the beginning of {ERC20}. NOTE: Does not update the allowance if the current allowance is the maximum `uint256`. Requirements: - `from` and `to` cannot be the zero address. - `from` must have a balance of at least `amount`. - the caller must have allowance for ``from``'s tokens of at least `amount`."
      }
    },
    "version": 1
  },
  "userdoc": {
    "kind": "user",
    "methods": {},
    "version": 1
  }
}