{
  "contractName": "MasterMeerkat",
  "abi": [
    {
      "inputs": [
        {
          "internalType": "contract IMeerkatToken",
          "name": "_meerkat",
          "type": "address"
        },
        {
          "internalType": "uint256",
          "name": "_meerkatPerBlock",
          "type": "uint256"
        },
        {
          "internalType": "uint256",
          "name": "_startBlock",
          "type": "uint256"
        }
      ],
      "stateMutability": "nonpayable",
      "type": "constructor"
    },
    {
      "anonymous": false,
      "inputs": [
        {
          "indexed": true,
          "internalType": "address",
          "name": "user",
          "type": "address"
        },
        {
          "indexed": true,
          "internalType": "uint256",
          "name": "pid",
          "type": "uint256"
        },
        {
          "indexed": false,
          "internalType": "uint256",
          "name": "amount",
          "type": "uint256"
        }
      ],
      "name": "Deposit",
      "type": "event"
    },
    {
      "anonymous": false,
      "inputs": [],
      "name": "DisableWhitelist",
      "type": "event"
    },
    {
      "anonymous": false,
      "inputs": [
        {
          "indexed": true,
          "internalType": "address",
          "name": "user",
          "type": "address"
        },
        {
          "indexed": true,
          "internalType": "uint256",
          "name": "pid",
          "type": "uint256"
        },
        {
          "indexed": false,
          "internalType": "uint256",
          "name": "amount",
          "type": "uint256"
        }
      ],
      "name": "EmergencyWithdraw",
      "type": "event"
    },
    {
      "anonymous": false,
      "inputs": [],
      "name": "EnableWhitelist",
      "type": "event"
    },
    {
      "anonymous": false,
      "inputs": [
        {
          "indexed": true,
          "internalType": "address",
          "name": "previousOwner",
          "type": "address"
        },
        {
          "indexed": true,
          "internalType": "address",
          "name": "newOwner",
          "type": "address"
        }
      ],
      "name": "OwnershipTransferred",
      "type": "event"
    },
    {
      "anonymous": false,
      "inputs": [
        {
          "indexed": true,
          "internalType": "address",
          "name": "user",
          "type": "address"
        },
        {
          "indexed": true,
          "internalType": "address",
          "name": "referrer",
          "type": "address"
        },
        {
          "indexed": false,
          "internalType": "uint256",
          "name": "commissionAmount",
          "type": "uint256"
        }
      ],
      "name": "ReferralCommissionPaid",
      "type": "event"
    },
    {
      "anonymous": false,
      "inputs": [
        {
          "indexed": true,
          "internalType": "address",
          "name": "user",
          "type": "address"
        },
        {
          "indexed": false,
          "internalType": "uint256",
          "name": "meerkatPerBlock",
          "type": "uint256"
        }
      ],
      "name": "UpdateEmissionRate",
      "type": "event"
    },
    {
      "anonymous": false,
      "inputs": [
        {
          "indexed": true,
          "internalType": "address",
          "name": "user",
          "type": "address"
        },
        {
          "indexed": false,
          "internalType": "uint256",
          "name": "controller",
          "type": "uint256"
        }
      ],
      "name": "UpdateNFTBoostRate",
      "type": "event"
    },
    {
      "anonymous": false,
      "inputs": [
        {
          "indexed": true,
          "internalType": "address",
          "name": "user",
          "type": "address"
        },
        {
          "indexed": false,
          "internalType": "address",
          "name": "controller",
          "type": "address"
        }
      ],
      "name": "UpdateNFTController",
      "type": "event"
    },
    {
      "anonymous": false,
      "inputs": [
        {
          "indexed": true,
          "internalType": "address",
          "name": "_address",
          "type": "address"
        },
        {
          "indexed": false,
          "internalType": "bool",
          "name": "whitelist",
          "type": "bool"
        }
      ],
      "name": "Whitelisted",
      "type": "event"
    },
    {
      "anonymous": false,
      "inputs": [
        {
          "indexed": true,
          "internalType": "address",
          "name": "user",
          "type": "address"
        },
        {
          "indexed": true,
          "internalType": "uint256",
          "name": "pid",
          "type": "uint256"
        },
        {
          "indexed": false,
          "internalType": "uint256",
          "name": "amount",
          "type": "uint256"
        }
      ],
      "name": "Withdraw",
      "type": "event"
    },
    {
      "inputs": [],
      "name": "BONUS_MULTIPLIER",
      "outputs": [
        {
          "internalType": "uint256",
          "name": "",
          "type": "uint256"
        }
      ],
      "stateMutability": "view",
      "type": "function"
    },
    {
      "inputs": [],
      "name": "MAXIMUM_REFERRAL_COMMISSION_RATE",
      "outputs": [
        {
          "internalType": "uint16",
          "name": "",
          "type": "uint16"
        }
      ],
      "stateMutability": "view",
      "type": "function"
    },
    {
      "inputs": [],
      "name": "controller",
      "outputs": [
        {
          "internalType": "contract NFTController",
          "name": "",
          "type": "address"
        }
      ],
      "stateMutability": "view",
      "type": "function"
    },
    {
      "inputs": [
        {
          "internalType": "bool",
          "name": "disable",
          "type": "bool"
        }
      ],
      "name": "disableWhitelist",
      "outputs": [],
      "stateMutability": "nonpayable",
      "type": "function"
    },
    {
      "inputs": [
        {
          "internalType": "address",
          "name": "_address",
          "type": "address"
        }
      ],
      "name": "isWhitelist",
      "outputs": [
        {
          "internalType": "bool",
          "name": "",
          "type": "bool"
        }
      ],
      "stateMutability": "view",
      "type": "function"
    },
    {
      "inputs": [],
      "name": "meerkat",
      "outputs": [
        {
          "internalType": "contract IMeerkatToken",
          "name": "",
          "type": "address"
        }
      ],
      "stateMutability": "view",
      "type": "function"
    },
    {
      "inputs": [],
      "name": "meerkatPerBlock",
      "outputs": [
        {
          "internalType": "uint256",
          "name": "",
          "type": "uint256"
        }
      ],
      "stateMutability": "view",
      "type": "function"
    },
    {
      "inputs": [],
      "name": "meerkatReferral",
      "outputs": [
        {
          "internalType": "contract IMeerkatReferral",
          "name": "",
          "type": "address"
        }
      ],
      "stateMutability": "view",
      "type": "function"
    },
    {
      "inputs": [],
      "name": "nftBoostRate",
      "outputs": [
        {
          "internalType": "uint256",
          "name": "",
          "type": "uint256"
        }
      ],
      "stateMutability": "view",
      "type": "function"
    },
    {
      "inputs": [],
      "name": "owner",
      "outputs": [
        {
          "internalType": "address",
          "name": "",
          "type": "address"
        }
      ],
      "stateMutability": "view",
      "type": "function"
    },
    {
      "inputs": [
        {
          "internalType": "contract IBEP20",
          "name": "",
          "type": "address"
        }
      ],
      "name": "poolExistence",
      "outputs": [
        {
          "internalType": "bool",
          "name": "",
          "type": "bool"
        }
      ],
      "stateMutability": "view",
      "type": "function"
    },
    {
      "inputs": [
        {
          "internalType": "uint256",
          "name": "",
          "type": "uint256"
        }
      ],
      "name": "poolInfo",
      "outputs": [
        {
          "internalType": "contract IBEP20",
          "name": "lpToken",
          "type": "address"
        },
        {
          "internalType": "uint256",
          "name": "allocPoint",
          "type": "uint256"
        },
        {
          "internalType": "uint256",
          "name": "lastRewardBlock",
          "type": "uint256"
        },
        {
          "internalType": "uint256",
          "name": "accMeerkatPerShare",
          "type": "uint256"
        }
      ],
      "stateMutability": "view",
      "type": "function"
    },
    {
      "inputs": [],
      "name": "proxy",
      "outputs": [
        {
          "internalType": "contract ProxyMeerkat",
          "name": "",
          "type": "address"
        }
      ],
      "stateMutability": "view",
      "type": "function"
    },
    {
      "inputs": [],
      "name": "referralCommissionRate",
      "outputs": [
        {
          "internalType": "uint16",
          "name": "",
          "type": "uint16"
        }
      ],
      "stateMutability": "view",
      "type": "function"
    },
    {
      "inputs": [],
      "name": "renounceOwnership",
      "outputs": [],
      "stateMutability": "nonpayable",
      "type": "function"
    },
    {
      "inputs": [
        {
          "internalType": "address",
          "name": "_address",
          "type": "address"
        },
        {
          "internalType": "bool",
          "name": "_on",
          "type": "bool"
        }
      ],
      "name": "setWhitelist",
      "outputs": [],
      "stateMutability": "nonpayable",
      "type": "function"
    },
    {
      "inputs": [],
      "name": "startBlock",
      "outputs": [
        {
          "internalType": "uint256",
          "name": "",
          "type": "uint256"
        }
      ],
      "stateMutability": "view",
      "type": "function"
    },
    {
      "inputs": [],
      "name": "totalAllocPoint",
      "outputs": [
        {
          "internalType": "uint256",
          "name": "",
          "type": "uint256"
        }
      ],
      "stateMutability": "view",
      "type": "function"
    },
    {
      "inputs": [
        {
          "internalType": "address",
          "name": "newOwner",
          "type": "address"
        }
      ],
      "name": "transferOwnership",
      "outputs": [],
      "stateMutability": "nonpayable",
      "type": "function"
    },
    {
      "inputs": [
        {
          "internalType": "uint256",
          "name": "",
          "type": "uint256"
        },
        {
          "internalType": "address",
          "name": "",
          "type": "address"
        }
      ],
      "name": "userInfo",
      "outputs": [
        {
          "internalType": "uint256",
          "name": "amount",
          "type": "uint256"
        },
        {
          "internalType": "uint256",
          "name": "rewardDebt",
          "type": "uint256"
        }
      ],
      "stateMutability": "view",
      "type": "function"
    },
    {
      "inputs": [],
      "name": "whitelistAll",
      "outputs": [
        {
          "internalType": "bool",
          "name": "",
          "type": "bool"
        }
      ],
      "stateMutability": "view",
      "type": "function"
    },
    {
      "inputs": [
        {
          "internalType": "address",
          "name": "_account",
          "type": "address"
        },
        {
          "internalType": "uint256",
          "name": "_pid",
          "type": "uint256"
        }
      ],
      "name": "getBoost",
      "outputs": [
        {
          "internalType": "uint256",
          "name": "",
          "type": "uint256"
        }
      ],
      "stateMutability": "view",
      "type": "function"
    },
    {
      "inputs": [
        {
          "internalType": "address",
          "name": "_account",
          "type": "address"
        },
        {
          "internalType": "uint256",
          "name": "_pid",
          "type": "uint256"
        }
      ],
      "name": "getSlots",
      "outputs": [
        {
          "internalType": "address",
          "name": "",
          "type": "address"
        },
        {
          "internalType": "address",
          "name": "",
          "type": "address"
        },
        {
          "internalType": "address",
          "name": "",
          "type": "address"
        }
      ],
      "stateMutability": "view",
      "type": "function"
    },
    {
      "inputs": [
        {
          "internalType": "address",
          "name": "_account",
          "type": "address"
        },
        {
          "internalType": "uint256",
          "name": "_pid",
          "type": "uint256"
        }
      ],
      "name": "getTokenIds",
      "outputs": [
        {
          "internalType": "uint256",
          "name": "",
          "type": "uint256"
        },
        {
          "internalType": "uint256",
          "name": "",
          "type": "uint256"
        },
        {
          "internalType": "uint256",
          "name": "",
          "type": "uint256"
        }
      ],
      "stateMutability": "view",
      "type": "function"
    },
    {
      "inputs": [],
      "name": "poolLength",
      "outputs": [
        {
          "internalType": "uint256",
          "name": "",
          "type": "uint256"
        }
      ],
      "stateMutability": "view",
      "type": "function"
    },
    {
      "inputs": [
        {
          "internalType": "uint256",
          "name": "_from",
          "type": "uint256"
        },
        {
          "internalType": "uint256",
          "name": "_to",
          "type": "uint256"
        }
      ],
      "name": "getMultiplier",
      "outputs": [
        {
          "internalType": "uint256",
          "name": "",
          "type": "uint256"
        }
      ],
      "stateMutability": "pure",
      "type": "function"
    },
    {
      "inputs": [
        {
          "internalType": "uint256",
          "name": "_pid",
          "type": "uint256"
        },
        {
          "internalType": "address",
          "name": "_user",
          "type": "address"
        }
      ],
      "name": "pendingMeerkat",
      "outputs": [
        {
          "internalType": "uint256",
          "name": "",
          "type": "uint256"
        }
      ],
      "stateMutability": "view",
      "type": "function"
    },
    {
      "inputs": [
        {
          "internalType": "uint256",
          "name": "_allocPoint",
          "type": "uint256"
        },
        {
          "internalType": "contract IBEP20",
          "name": "_lpToken",
          "type": "address"
        },
        {
          "internalType": "bool",
          "name": "_withUpdate",
          "type": "bool"
        }
      ],
      "name": "add",
      "outputs": [],
      "stateMutability": "nonpayable",
      "type": "function"
    },
    {
      "inputs": [
        {
          "internalType": "uint256",
          "name": "_pid",
          "type": "uint256"
        },
        {
          "internalType": "uint256",
          "name": "_allocPoint",
          "type": "uint256"
        },
        {
          "internalType": "bool",
          "name": "_withUpdate",
          "type": "bool"
        }
      ],
      "name": "set",
      "outputs": [],
      "stateMutability": "nonpayable",
      "type": "function"
    },
    {
      "inputs": [
        {
          "internalType": "address",
          "name": "_nft",
          "type": "address"
        },
        {
          "internalType": "uint256",
          "name": "_tokenId",
          "type": "uint256"
        },
        {
          "internalType": "uint256",
          "name": "_slot",
          "type": "uint256"
        },
        {
          "internalType": "uint256",
          "name": "_pid",
          "type": "uint256"
        }
      ],
      "name": "depositNFT",
      "outputs": [],
      "stateMutability": "nonpayable",
      "type": "function"
    },
    {
      "inputs": [
        {
          "internalType": "uint256",
          "name": "_slot",
          "type": "uint256"
        },
        {
          "internalType": "uint256",
          "name": "_pid",
          "type": "uint256"
        }
      ],
      "name": "withdrawNFT",
      "outputs": [],
      "stateMutability": "nonpayable",
      "type": "function"
    },
    {
      "inputs": [],
      "name": "massUpdatePools",
      "outputs": [],
      "stateMutability": "nonpayable",
      "type": "function"
    },
    {
      "inputs": [
        {
          "internalType": "uint256",
          "name": "_pid",
          "type": "uint256"
        }
      ],
      "name": "updatePool",
      "outputs": [],
      "stateMutability": "nonpayable",
      "type": "function"
    },
    {
      "inputs": [
        {
          "internalType": "uint256",
          "name": "_pid",
          "type": "uint256"
        },
        {
          "internalType": "uint256",
          "name": "_amount",
          "type": "uint256"
        },
        {
          "internalType": "address",
          "name": "_referrer",
          "type": "address"
        }
      ],
      "name": "deposit",
      "outputs": [],
      "stateMutability": "nonpayable",
      "type": "function"
    },
    {
      "inputs": [
        {
          "internalType": "uint256",
          "name": "_pid",
          "type": "uint256"
        },
        {
          "internalType": "uint256",
          "name": "_amount",
          "type": "uint256"
        }
      ],
      "name": "withdraw",
      "outputs": [],
      "stateMutability": "nonpayable",
      "type": "function"
    },
    {
      "inputs": [
        {
          "internalType": "uint256",
          "name": "_pid",
          "type": "uint256"
        }
      ],
      "name": "emergencyWithdraw",
      "outputs": [],
      "stateMutability": "nonpayable",
      "type": "function"
    },
    {
      "inputs": [
        {
          "internalType": "uint256",
          "name": "_meerkatPerBlock",
          "type": "uint256"
        }
      ],
      "name": "updateEmissionRate",
      "outputs": [],
      "stateMutability": "nonpayable",
      "type": "function"
    },
    {
      "inputs": [
        {
          "internalType": "address",
          "name": "_controller",
          "type": "address"
        }
      ],
      "name": "setNftController",
      "outputs": [],
      "stateMutability": "nonpayable",
      "type": "function"
    },
    {
      "inputs": [
        {
          "internalType": "uint256",
          "name": "_rate",
          "type": "uint256"
        }
      ],
      "name": "setNftBoostRate",
      "outputs": [],
      "stateMutability": "nonpayable",
      "type": "function"
    },
    {
      "inputs": [
        {
          "internalType": "contract IMeerkatReferral",
          "name": "_meerkatReferral",
          "type": "address"
        }
      ],
      "name": "setMeerkatReferral",
      "outputs": [],
      "stateMutability": "nonpayable",
      "type": "function"
    },
    {
      "inputs": [],
      "name": "flipWhitelistAll",
      "outputs": [],
      "stateMutability": "nonpayable",
      "type": "function"
    },
    {
      "inputs": [
        {
          "internalType": "uint16",
          "name": "_referralCommissionRate",
          "type": "uint16"
        }
      ],
      "name": "setReferralCommissionRate",
      "outputs": [],
      "stateMutability": "nonpayable",
      "type": "function"
    }
  ],
  "bytecode": "0x60806040526000600b60016101000a81548173ffffffffffffffffffffffffffffffffffffffff021916908373ffffffffffffffffffffffffffffffffffffffff1602179055506064600c556064600d60146101000a81548161ffff021916908361ffff16021790555073caa8c10b81ddd462aff6ba33ac8242255504b3db600e60006101000a81548173ffffffffffffffffffffffffffffffffffffffff021916908373ffffffffffffffffffffffffffffffffffffffff160217905550348015620000cb57600080fd5b5060405162005a6838038062005a688339818101604052810190620000f19190620002e4565b6000620001036200022360201b60201c565b9050806000806101000a81548173ffffffffffffffffffffffffffffffffffffffff021916908373ffffffffffffffffffffffffffffffffffffffff1602179055508073ffffffffffffffffffffffffffffffffffffffff16600073ffffffffffffffffffffffffffffffffffffffff167f8be0079c531659141344cd1fd0a4f28419497f9722a3daafe3b4186f6b6457e060405160405180910390a3506001808190555082600360016101000a81548173ffffffffffffffffffffffffffffffffffffffff021916908373ffffffffffffffffffffffffffffffffffffffff160217905550816004819055508060088190555060006007819055506000600b60006101000a81548160ff02191690831515021790555050505062000340565b600033905090565b600080fd5b600073ffffffffffffffffffffffffffffffffffffffff82169050919050565b60006200025d8262000230565b9050919050565b6000620002718262000250565b9050919050565b620002838162000264565b81146200028f57600080fd5b50565b600081519050620002a38162000278565b92915050565b6000819050919050565b620002be81620002a9565b8114620002ca57600080fd5b50565b600081519050620002de81620002b3565b92915050565b6000806000606084860312156200030057620002ff6200022b565b5b6000620003108682870162000292565b93505060206200032386828701620002cd565b92505060406200033686828701620002cd565b9150509250925092565b61571880620003506000396000f3fe608060405234801561001057600080fd5b506004361061025e5760003560e01c80635d54e61211610146578063c0676ee8116100c3578063e543809711610087578063e5438097146106ed578063ec55688914610709578063f2fde38b14610727578063f46ed1e314610743578063f77c479114610761578063f8dfc2e41461077f5761025e565b8063c0676ee814610621578063c683630d14610651578063cbd258b514610681578063d30ef61b146106b1578063e0283faf146106cf5761025e565b80638da5cb5b1161010a5780638da5cb5b1461056a5780638dbb1e3a146105885780638dbdbe6d146105b857806393f1a40b146105d4578063b779e987146106055761025e565b80635d54e612146104fe578063630b5ba11461051c57806364482f7914610526578063715018a6146105425780638aa285501461054c5761025e565b8063441a3e70116101df57806349ba1b49116101a357806349ba1b491461044057806351eb05a61461045c5780635312ea8e1461047857806353d6fd591461049457806355dbc826146104b0578063570d2f20146104cc5761025e565b8063441a3e701461039a57806345a63914146103b657806345b373d3146103d457806348b22bfb1461040457806348cd4cb1146104225761025e565b806317caf6f11161022657806317caf6f11461031e5780631eaaa0451461033c5780633a0196af146103585780633b1e3eb8146103745780634031a120146103905761025e565b80630695dc5614610263578063081e3eda14610295578063088f7e4d146102b35780630ba84cd2146102cf5780631526fe27146102eb575b600080fd5b61027d600480360381019061027891906144e6565b61079d565b60405161028c93929190614535565b60405180910390f35b61029d61093d565b6040516102aa919061457b565b60405180910390f35b6102cd60048036038101906102c891906145d4565b61094a565b005b6102e960048036038101906102e49190614601565b610a23565b005b61030560048036038101906103009190614601565b610b18565b604051610315949392919061468d565b60405180910390f35b610326610b78565b604051610333919061457b565b60405180910390f35b61035660048036038101906103519190614748565b610b7e565b005b610372600480360381019061036d919061479b565b610e11565b005b61038e60048036038101906103899190614601565b61133b565b005b610398611478565b005b6103b460048036038101906103af919061479b565b611539565b005b6103be611827565b6040516103cb91906147fc565b60405180910390f35b6103ee60048036038101906103e991906144e6565b61184d565b6040516103fb919061457b565b60405180910390f35b61040c611c7b565b6040516104199190614834565b60405180910390f35b61042a611c81565b604051610437919061457b565b60405180910390f35b61045a6004803603810190610455919061484f565b611c87565b005b61047660048036038101906104719190614601565b611d9d565b005b610492600480360381019061048d9190614601565b612012565b005b6104ae60048036038101906104a9919061487c565b6121a1565b005b6104ca60048036038101906104c591906148e8565b6122df565b005b6104e660048036038101906104e191906144e6565b6123e1565b6040516104f593929190614915565b60405180910390f35b610506612581565b604051610513919061495b565b60405180910390f35b610524612594565b005b610540600480360381019061053b9190614976565b6125c7565b005b61054a6126ec565b005b61055461283f565b604051610561919061457b565b60405180910390f35b610572612844565b60405161057f91906149c9565b60405180910390f35b6105a2600480360381019061059d919061479b565b61286d565b6040516105af919061457b565b60405180910390f35b6105d260048036038101906105cd91906149e4565b61289d565b005b6105ee60048036038101906105e99190614a37565b612cba565b6040516105fc929190614a77565b60405180910390f35b61061f600480360381019061061a9190614aa0565b612ceb565b005b61063b60048036038101906106369190614a37565b6133cb565b604051610648919061457b565b60405180910390f35b61066b60048036038101906106669190614b07565b6135f6565b604051610678919061495b565b60405180910390f35b61069b60048036038101906106969190614b34565b61364c565b6040516106a8919061495b565b60405180910390f35b6106b961366c565b6040516106c69190614834565b60405180910390f35b6106d7613680565b6040516106e4919061457b565b60405180910390f35b61070760048036038101906107029190614b07565b613686565b005b6107116137ad565b60405161071e9190614b82565b60405180910390f35b610741600480360381019061073c9190614b07565b6137d3565b005b61074b613874565b6040516107589190614bbe565b60405180910390f35b61076961389a565b6040516107769190614bfa565b60405180910390f35b6107876138c0565b604051610794919061457b565b60405180910390f35b600080600080600a60008773ffffffffffffffffffffffffffffffffffffffff1673ffffffffffffffffffffffffffffffffffffffff16815260200190815260200160002060008681526020019081526020016000206040518060c00160405290816000820160009054906101000a900473ffffffffffffffffffffffffffffffffffffffff1673ffffffffffffffffffffffffffffffffffffffff1673ffffffffffffffffffffffffffffffffffffffff168152602001600182015481526020016002820160009054906101000a900473ffffffffffffffffffffffffffffffffffffffff1673ffffffffffffffffffffffffffffffffffffffff1673ffffffffffffffffffffffffffffffffffffffff168152602001600382015481526020016004820160009054906101000a900473ffffffffffffffffffffffffffffffffffffffff1673ffffffffffffffffffffffffffffffffffffffff1673ffffffffffffffffffffffffffffffffffffffff1681526020016005820154815250509050806000015181604001518260800151935093509350509250925092565b6000600580549050905090565b6109526138c6565b73ffffffffffffffffffffffffffffffffffffffff1660008054906101000a900473ffffffffffffffffffffffffffffffffffffffff1673ffffffffffffffffffffffffffffffffffffffff16146109df576040517f08c379a00000000000000000000000000000000000000000000000000000000081526004016109d690614c72565b60405180910390fd5b80600d60006101000a81548173ffffffffffffffffffffffffffffffffffffffff021916908373ffffffffffffffffffffffffffffffffffffffff16021790555050565b610a2b6138c6565b73ffffffffffffffffffffffffffffffffffffffff1660008054906101000a900473ffffffffffffffffffffffffffffffffffffffff1673ffffffffffffffffffffffffffffffffffffffff1614610ab8576040517f08c379a0000000000000000000000000000000000000000000000000000000008152600401610aaf90614c72565b60405180910390fd5b610ac0612594565b806004819055503373ffffffffffffffffffffffffffffffffffffffff167fe2492e003bbe8afa53088b406f0c1cb5d9e280370fc72a74cf116ffd343c405382604051610b0d919061457b565b60405180910390a250565b60058181548110610b2857600080fd5b90600052602060002090600402016000915090508060000160009054906101000a900473ffffffffffffffffffffffffffffffffffffffff16908060010154908060020154908060030154905084565b60075481565b610b866138c6565b73ffffffffffffffffffffffffffffffffffffffff1660008054906101000a900473ffffffffffffffffffffffffffffffffffffffff1673ffffffffffffffffffffffffffffffffffffffff1614610c13576040517f08c379a0000000000000000000000000000000000000000000000000000000008152600401610c0a90614c72565b60405180910390fd5b8160001515600960008373ffffffffffffffffffffffffffffffffffffffff1673ffffffffffffffffffffffffffffffffffffffff16815260200190815260200160002060009054906101000a900460ff16151514610ca7576040517f08c379a0000000000000000000000000000000000000000000000000000000008152600401610c9e90614cde565b60405180910390fd5b8115610cb657610cb5612594565b5b60006008544311610cc957600854610ccb565b435b9050610ce2856007546138ce90919063ffffffff16565b6007819055506001600960008673ffffffffffffffffffffffffffffffffffffffff1673ffffffffffffffffffffffffffffffffffffffff16815260200190815260200160002060006101000a81548160ff021916908315150217905550600560405180608001604052808673ffffffffffffffffffffffffffffffffffffffff1681526020018781526020018381526020016000815250908060018154018082558091505060019003906000526020600020906004020160009091909190915060008201518160000160006101000a81548173ffffffffffffffffffffffffffffffffffffffff021916908373ffffffffffffffffffffffffffffffffffffffff16021790555060208201518160010155604082015181600201556060820151816003015550505050505050565b610e1a336135f6565b158015610e345750600b60009054906101000a900460ff16155b15610e72573373ffffffffffffffffffffffffffffffffffffffff163273ffffffffffffffffffffffffffffffffffffffff1614610e7157600080fd5b5b6000806000600a60003373ffffffffffffffffffffffffffffffffffffffff1673ffffffffffffffffffffffffffffffffffffffff16815260200190815260200160002060008581526020019081526020016000206040518060c00160405290816000820160009054906101000a900473ffffffffffffffffffffffffffffffffffffffff1673ffffffffffffffffffffffffffffffffffffffff1673ffffffffffffffffffffffffffffffffffffffff168152602001600182015481526020016002820160009054906101000a900473ffffffffffffffffffffffffffffffffffffffff1673ffffffffffffffffffffffffffffffffffffffff1673ffffffffffffffffffffffffffffffffffffffff168152602001600382015481526020016004820160009054906101000a900473ffffffffffffffffffffffffffffffffffffffff1673ffffffffffffffffffffffffffffffffffffffff1673ffffffffffffffffffffffffffffffffffffffff168152602001600582015481525050905060018503611008578060000151925061102e565b6002850361101c578060400151925061102d565b6003850361102c57806080015192505b5b5b600185036110425780602001519150611068565b600285036110565780606001519150611067565b60038503611066578060a0015191505b5b5b600185036110ae576000816000019073ffffffffffffffffffffffffffffffffffffffff16908173ffffffffffffffffffffffffffffffffffffffff1681525050611138565b600285036110f4576000816040019073ffffffffffffffffffffffffffffffffffffffff16908173ffffffffffffffffffffffffffffffffffffffff1681525050611137565b60038503611136576000816080019073ffffffffffffffffffffffffffffffffffffffff16908173ffffffffffffffffffffffffffffffffffffffff16815250505b5b5b6001850361115057600081602001818152505061117e565b6002850361116857600081606001818152505061117d565b6003850361117c5760008160a00181815250505b5b5b80600a60003373ffffffffffffffffffffffffffffffffffffffff1673ffffffffffffffffffffffffffffffffffffffff168152602001908152602001600020600086815260200190815260200160002060008201518160000160006101000a81548173ffffffffffffffffffffffffffffffffffffffff021916908373ffffffffffffffffffffffffffffffffffffffff1602179055506020820151816001015560408201518160020160006101000a81548173ffffffffffffffffffffffffffffffffffffffff021916908373ffffffffffffffffffffffffffffffffffffffff1602179055506060820151816003015560808201518160040160006101000a81548173ffffffffffffffffffffffffffffffffffffffff021916908373ffffffffffffffffffffffffffffffffffffffff16021790555060a082015181600501559050508273ffffffffffffffffffffffffffffffffffffffff166323b872dd3033856040518463ffffffff1660e01b815260040161130293929190614cfe565b600060405180830381600087803b15801561131c57600080fd5b505af1158015611330573d6000803e3d6000fd5b505050505050505050565b6113436138c6565b73ffffffffffffffffffffffffffffffffffffffff1660008054906101000a900473ffffffffffffffffffffffffffffffffffffffff1673ffffffffffffffffffffffffffffffffffffffff16146113d0576040517f08c379a00000000000000000000000000000000000000000000000000000000081526004016113c790614c72565b60405180910390fd5b6032811180156113e157506101f481105b611420576040517f08c379a000000000000000000000000000000000000000000000000000000000815260040161141790614d81565b60405180910390fd5b80600c819055503373ffffffffffffffffffffffffffffffffffffffff167f7e10cb5e85e8940bf0ce60fffe269453dc77c2580950f4fecea7e42b5bb61a7b8260405161146d919061457b565b60405180910390a250565b6114806138c6565b73ffffffffffffffffffffffffffffffffffffffff1660008054906101000a900473ffffffffffffffffffffffffffffffffffffffff1673ffffffffffffffffffffffffffffffffffffffff161461150d576040517f08c379a000000000000000000000000000000000000000000000000000000000815260040161150490614c72565b60405180910390fd5b600b60009054906101000a900460ff1615600b60006101000a81548160ff021916908315150217905550565b60026001540361157e576040517f08c379a000000000000000000000000000000000000000000000000000000000815260040161157590614ded565b60405180910390fd5b600260018190555061158f336135f6565b1580156115a95750600b60009054906101000a900460ff16155b156115e7573373ffffffffffffffffffffffffffffffffffffffff163273ffffffffffffffffffffffffffffffffffffffff16146115e657600080fd5b5b6000600583815481106115fd576115fc614e0d565b5b9060005260206000209060040201905060006006600085815260200190815260200160002060003373ffffffffffffffffffffffffffffffffffffffff1673ffffffffffffffffffffffffffffffffffffffff168152602001908152602001600020905082816000015410156116a8576040517f08c379a000000000000000000000000000000000000000000000000000000000815260040161169f90614e88565b60405180910390fd5b6116b184611d9d565b60006116fe82600101546116f0670de0b6b3a76400006116e28760030154876000015461392c90919063ffffffff16565b6139a690919063ffffffff16565b6139f090919063ffffffff16565b9050600081111561171557611714338287613a3a565b5b600084111561178d576117358483600001546139f090919063ffffffff16565b826000018190555061178c33858560000160009054906101000a900473ffffffffffffffffffffffffffffffffffffffff1673ffffffffffffffffffffffffffffffffffffffff16613bc99092919063ffffffff16565b5b6117c2670de0b6b3a76400006117b48560030154856000015461392c90919063ffffffff16565b6139a690919063ffffffff16565b8260010181905550843373ffffffffffffffffffffffffffffffffffffffff167ff279e6a1f5e320cca91135676d9cb6e44ca8a08c0b88342bcdb1144f6511b56886604051611811919061457b565b60405180910390a3505050600180819055505050565b600360019054906101000a900473ffffffffffffffffffffffffffffffffffffffff1681565b60008073ffffffffffffffffffffffffffffffffffffffff16600b60019054906101000a900473ffffffffffffffffffffffffffffffffffffffff1673ffffffffffffffffffffffffffffffffffffffff16036118ad5760009050611c75565b6000600a60008573ffffffffffffffffffffffffffffffffffffffff1673ffffffffffffffffffffffffffffffffffffffff16815260200190815260200160002060008481526020019081526020016000206040518060c00160405290816000820160009054906101000a900473ffffffffffffffffffffffffffffffffffffffff1673ffffffffffffffffffffffffffffffffffffffff1673ffffffffffffffffffffffffffffffffffffffff168152602001600182015481526020016002820160009054906101000a900473ffffffffffffffffffffffffffffffffffffffff1673ffffffffffffffffffffffffffffffffffffffff1673ffffffffffffffffffffffffffffffffffffffff168152602001600382015481526020016004820160009054906101000a900473ffffffffffffffffffffffffffffffffffffffff1673ffffffffffffffffffffffffffffffffffffffff1673ffffffffffffffffffffffffffffffffffffffff16815260200160058201548152505090506000600b60019054906101000a900473ffffffffffffffffffffffffffffffffffffffff1673ffffffffffffffffffffffffffffffffffffffff1663a45d5039836000015184602001516040518363ffffffff1660e01b8152600401611a93929190614ea8565b602060405180830381865afa158015611ab0573d6000803e3d6000fd5b505050506040513d601f19601f82011682018060405250810190611ad49190614ee6565b90506000600b60019054906101000a900473ffffffffffffffffffffffffffffffffffffffff1673ffffffffffffffffffffffffffffffffffffffff1663a45d5039846040015185606001516040518363ffffffff1660e01b8152600401611b3d929190614ea8565b602060405180830381865afa158015611b5a573d6000803e3d6000fd5b505050506040513d601f19601f82011682018060405250810190611b7e9190614ee6565b90506000600b60019054906101000a900473ffffffffffffffffffffffffffffffffffffffff1673ffffffffffffffffffffffffffffffffffffffff1663a45d503985608001518660a001516040518363ffffffff1660e01b8152600401611be7929190614ea8565b602060405180830381865afa158015611c04573d6000803e3d6000fd5b505050506040513d601f19601f82011682018060405250810190611c289190614ee6565b90506000818385611c399190614f42565b611c439190614f42565b9050611c6d6064611c5f600c548461392c90919063ffffffff16565b6139a690919063ffffffff16565b955050505050505b92915050565b6103e881565b60085481565b611c8f6138c6565b73ffffffffffffffffffffffffffffffffffffffff1660008054906101000a900473ffffffffffffffffffffffffffffffffffffffff1673ffffffffffffffffffffffffffffffffffffffff1614611d1c576040517f08c379a0000000000000000000000000000000000000000000000000000000008152600401611d1390614c72565b60405180910390fd5b80600360006101000a81548160ff0219169083151502179055508015611d6d577f508560e15717a4e9058b9a19d806cb679004a1bd953376f71fda71c141e5dc5360405160405180910390a1611d9a565b7fa2927d972f7cfc5ff8b7ad79f9adf0bdb885d0e569f40d0037df2e1299616ae060405160405180910390a15b50565b600060058281548110611db357611db2614e0d565b5b9060005260206000209060040201905080600201544311611dd4575061200f565b60008160000160009054906101000a900473ffffffffffffffffffffffffffffffffffffffff1673ffffffffffffffffffffffffffffffffffffffff166370a08231306040518263ffffffff1660e01b8152600401611e3391906149c9565b602060405180830381865afa158015611e50573d6000803e3d6000fd5b505050506040513d601f19601f82011682018060405250810190611e749190614ee6565b90506000811480611e89575060008260010154145b15611e9e57438260020181905550505061200f565b6000611eae83600201544361286d565b90506000611ef1600754611ee38660010154611ed56004548761392c90919063ffffffff16565b61392c90919063ffffffff16565b6139a690919063ffffffff16565b9050600360019054906101000a900473ffffffffffffffffffffffffffffffffffffffff1673ffffffffffffffffffffffffffffffffffffffff166340c10f19600e60009054906101000a900473ffffffffffffffffffffffffffffffffffffffff16836040518363ffffffff1660e01b8152600401611f72929190614ea8565b6020604051808303816000875af1158015611f91573d6000803e3d6000fd5b505050506040513d601f19601f82011682018060405250810190611fb59190614f8b565b50611ff9611fe684611fd8670de0b6b3a76400008561392c90919063ffffffff16565b6139a690919063ffffffff16565b85600301546138ce90919063ffffffff16565b8460030181905550438460020181905550505050505b50565b600260015403612057576040517f08c379a000000000000000000000000000000000000000000000000000000000815260040161204e90614ded565b60405180910390fd5b600260018190555060006005828154811061207557612074614e0d565b5b9060005260206000209060040201905060006006600084815260200190815260200160002060003373ffffffffffffffffffffffffffffffffffffffff1673ffffffffffffffffffffffffffffffffffffffff1681526020019081526020016000209050600081600001549050600082600001819055506000826001018190555061214533828560000160009054906101000a900473ffffffffffffffffffffffffffffffffffffffff1673ffffffffffffffffffffffffffffffffffffffff16613bc99092919063ffffffff16565b833373ffffffffffffffffffffffffffffffffffffffff167fbb757047c2b5f3974fe26b7c10f732e7bce710b0952a71082702781e62ae05958360405161218c919061457b565b60405180910390a35050506001808190555050565b6121a96138c6565b73ffffffffffffffffffffffffffffffffffffffff1660008054906101000a900473ffffffffffffffffffffffffffffffffffffffff1673ffffffffffffffffffffffffffffffffffffffff1614612236576040517f08c379a000000000000000000000000000000000000000000000000000000000815260040161222d90614c72565b60405180910390fd5b80600260008473ffffffffffffffffffffffffffffffffffffffff1673ffffffffffffffffffffffffffffffffffffffff16815260200190815260200160002060006101000a81548160ff0219169083151502179055508173ffffffffffffffffffffffffffffffffffffffff167fa54714518c5d275fdcd3d2a461e4858e4e8cb04fb93cd0bca9d6d34115f26440826040516122d3919061495b565b60405180910390a25050565b6122e76138c6565b73ffffffffffffffffffffffffffffffffffffffff1660008054906101000a900473ffffffffffffffffffffffffffffffffffffffff1673ffffffffffffffffffffffffffffffffffffffff1614612374576040517f08c379a000000000000000000000000000000000000000000000000000000000815260040161236b90614c72565b60405180910390fd5b6103e861ffff168161ffff1611156123c1576040517f08c379a00000000000000000000000000000000000000000000000000000000081526004016123b890615050565b60405180910390fd5b80600d60146101000a81548161ffff021916908361ffff16021790555050565b600080600080600a60008773ffffffffffffffffffffffffffffffffffffffff1673ffffffffffffffffffffffffffffffffffffffff16815260200190815260200160002060008681526020019081526020016000206040518060c00160405290816000820160009054906101000a900473ffffffffffffffffffffffffffffffffffffffff1673ffffffffffffffffffffffffffffffffffffffff1673ffffffffffffffffffffffffffffffffffffffff168152602001600182015481526020016002820160009054906101000a900473ffffffffffffffffffffffffffffffffffffffff1673ffffffffffffffffffffffffffffffffffffffff1673ffffffffffffffffffffffffffffffffffffffff168152602001600382015481526020016004820160009054906101000a900473ffffffffffffffffffffffffffffffffffffffff1673ffffffffffffffffffffffffffffffffffffffff1673ffffffffffffffffffffffffffffffffffffffff1681526020016005820154815250509050806020015181606001518260a00151935093509350509250925092565b600b60009054906101000a900460ff1681565b6000600580549050905060005b818110156125c3576125b281611d9d565b806125bc90615070565b90506125a1565b5050565b6125cf6138c6565b73ffffffffffffffffffffffffffffffffffffffff1660008054906101000a900473ffffffffffffffffffffffffffffffffffffffff1673ffffffffffffffffffffffffffffffffffffffff161461265c576040517f08c379a000000000000000000000000000000000000000000000000000000000815260040161265390614c72565b60405180910390fd5b801561266b5761266a612594565b5b6126b7826126a96005868154811061268657612685614e0d565b5b9060005260206000209060040201600101546007546139f090919063ffffffff16565b6138ce90919063ffffffff16565b60078190555081600584815481106126d2576126d1614e0d565b5b906000526020600020906004020160010181905550505050565b6126f46138c6565b73ffffffffffffffffffffffffffffffffffffffff1660008054906101000a900473ffffffffffffffffffffffffffffffffffffffff1673ffffffffffffffffffffffffffffffffffffffff1614612781576040517f08c379a000000000000000000000000000000000000000000000000000000000815260040161277890614c72565b60405180910390fd5b600073ffffffffffffffffffffffffffffffffffffffff1660008054906101000a900473ffffffffffffffffffffffffffffffffffffffff1673ffffffffffffffffffffffffffffffffffffffff167f8be0079c531659141344cd1fd0a4f28419497f9722a3daafe3b4186f6b6457e060405160405180910390a360008060006101000a81548173ffffffffffffffffffffffffffffffffffffffff021916908373ffffffffffffffffffffffffffffffffffffffff160217905550565b600181565b60008060009054906101000a900473ffffffffffffffffffffffffffffffffffffffff16905090565b6000612895600161288785856139f090919063ffffffff16565b61392c90919063ffffffff16565b905092915050565b6002600154036128e2576040517f08c379a00000000000000000000000000000000000000000000000000000000081526004016128d990614ded565b60405180910390fd5b60026001819055506128f3336135f6565b15801561290d5750600b60009054906101000a900460ff16155b1561294b573373ffffffffffffffffffffffffffffffffffffffff163273ffffffffffffffffffffffffffffffffffffffff161461294a57600080fd5b5b60006005848154811061296157612960614e0d565b5b9060005260206000209060040201905060006006600086815260200190815260200160002060003373ffffffffffffffffffffffffffffffffffffffff1673ffffffffffffffffffffffffffffffffffffffff16815260200190815260200160002090506129ce85611d9d565b600084118015612a2d5750600073ffffffffffffffffffffffffffffffffffffffff16600d60009054906101000a900473ffffffffffffffffffffffffffffffffffffffff1673ffffffffffffffffffffffffffffffffffffffff1614155b8015612a665750600073ffffffffffffffffffffffffffffffffffffffff168373ffffffffffffffffffffffffffffffffffffffff1614155b8015612a9e57503373ffffffffffffffffffffffffffffffffffffffff168373ffffffffffffffffffffffffffffffffffffffff1614155b15612b3357600d60009054906101000a900473ffffffffffffffffffffffffffffffffffffffff1673ffffffffffffffffffffffffffffffffffffffff16630c7f7b6b33856040518363ffffffff1660e01b8152600401612b009291906150b8565b600060405180830381600087803b158015612b1a57600080fd5b505af1158015612b2e573d6000803e3d6000fd5b505050505b600081600001541115612ba6576000612b8d8260010154612b7f670de0b6b3a7640000612b718760030154876000015461392c90919063ffffffff16565b6139a690919063ffffffff16565b6139f090919063ffffffff16565b90506000811115612ba457612ba3338288613a3a565b5b505b6000841115612c2057612c003330868560000160009054906101000a900473ffffffffffffffffffffffffffffffffffffffff1673ffffffffffffffffffffffffffffffffffffffff16613c4f909392919063ffffffff16565b612c178482600001546138ce90919063ffffffff16565b81600001819055505b612c55670de0b6b3a7640000612c478460030154846000015461392c90919063ffffffff16565b6139a690919063ffffffff16565b8160010181905550843373ffffffffffffffffffffffffffffffffffffffff167f90890809c654f11d6e72a28fa60149770a0d11ec6c92319d6ceb2bb0a4ea1a1586604051612ca4919061457b565b60405180910390a3505060018081905550505050565b6006602052816000526040600020602052806000526040600020600091509150508060000154908060010154905082565b612cf4336135f6565b158015612d0e5750600b60009054906101000a900460ff16155b15612d4c573373ffffffffffffffffffffffffffffffffffffffff163273ffffffffffffffffffffffffffffffffffffffff1614612d4b57600080fd5b5b600b60019054906101000a900473ffffffffffffffffffffffffffffffffffffffff1673ffffffffffffffffffffffffffffffffffffffff1663138b7338856040518263ffffffff1660e01b8152600401612da791906149c9565b602060405180830381865afa158015612dc4573d6000803e3d6000fd5b505050506040513d601f19601f82011682018060405250810190612de89190614f8b565b612e27576040517f08c379a0000000000000000000000000000000000000000000000000000000008152600401612e1e9061512d565b60405180910390fd5b60008473ffffffffffffffffffffffffffffffffffffffff166370a08231336040518263ffffffff1660e01b8152600401612e6291906149c9565b602060405180830381865afa158015612e7f573d6000803e3d6000fd5b505050506040513d601f19601f82011682018060405250810190612ea39190614ee6565b11612ee3576040517f08c379a0000000000000000000000000000000000000000000000000000000008152600401612eda90615199565b60405180910390fd5b60006006600083815260200190815260200160002060003373ffffffffffffffffffffffffffffffffffffffff1673ffffffffffffffffffffffffffffffffffffffff16815260200190815260200160002090506000816000015414612f7e576040517f08c379a0000000000000000000000000000000000000000000000000000000008152600401612f7590615205565b60405180910390fd5b8473ffffffffffffffffffffffffffffffffffffffff166323b872dd3330876040518463ffffffff1660e01b8152600401612fbb93929190614cfe565b600060405180830381600087803b158015612fd557600080fd5b505af1158015612fe9573d6000803e3d6000fd5b505050506000600a60003373ffffffffffffffffffffffffffffffffffffffff1673ffffffffffffffffffffffffffffffffffffffff16815260200190815260200160002060008481526020019081526020016000206040518060c00160405290816000820160009054906101000a900473ffffffffffffffffffffffffffffffffffffffff1673ffffffffffffffffffffffffffffffffffffffff1673ffffffffffffffffffffffffffffffffffffffff168152602001600182015481526020016002820160009054906101000a900473ffffffffffffffffffffffffffffffffffffffff1673ffffffffffffffffffffffffffffffffffffffff1673ffffffffffffffffffffffffffffffffffffffff168152602001600382015481526020016004820160009054906101000a900473ffffffffffffffffffffffffffffffffffffffff1673ffffffffffffffffffffffffffffffffffffffff1673ffffffffffffffffffffffffffffffffffffffff1681526020016005820154815250509050600184036131b15785816000019073ffffffffffffffffffffffffffffffffffffffff16908173ffffffffffffffffffffffffffffffffffffffff1681525050613239565b600284036131f65785816040019073ffffffffffffffffffffffffffffffffffffffff16908173ffffffffffffffffffffffffffffffffffffffff1681525050613238565b600384036132375785816080019073ffffffffffffffffffffffffffffffffffffffff16908173ffffffffffffffffffffffffffffffffffffffff16815250505b5b5b60018403613250578481602001818152505061327c565b60028403613267578481606001818152505061327b565b6003840361327a57848160a00181815250505b5b5b80600a60003373ffffffffffffffffffffffffffffffffffffffff1673ffffffffffffffffffffffffffffffffffffffff168152602001908152602001600020600085815260200190815260200160002060008201518160000160006101000a81548173ffffffffffffffffffffffffffffffffffffffff021916908373ffffffffffffffffffffffffffffffffffffffff1602179055506020820151816001015560408201518160020160006101000a81548173ffffffffffffffffffffffffffffffffffffffff021916908373ffffffffffffffffffffffffffffffffffffffff1602179055506060820151816003015560808201518160040160006101000a81548173ffffffffffffffffffffffffffffffffffffffff021916908373ffffffffffffffffffffffffffffffffffffffff16021790555060a08201518160050155905050505050505050565b600080600584815481106133e2576133e1614e0d565b5b9060005260206000209060040201905060006006600086815260200190815260200160002060008573ffffffffffffffffffffffffffffffffffffffff1673ffffffffffffffffffffffffffffffffffffffff168152602001908152602001600020905060008260030154905060008360000160009054906101000a900473ffffffffffffffffffffffffffffffffffffffff1673ffffffffffffffffffffffffffffffffffffffff166370a08231306040518263ffffffff1660e01b81526004016134ae91906149c9565b602060405180830381865afa1580156134cb573d6000803e3d6000fd5b505050506040513d601f19601f820116820180604052508101906134ef9190614ee6565b9050836002015443118015613505575060008114155b156135a357600061351a85600201544361286d565b9050600061355d60075461354f88600101546135416004548761392c90919063ffffffff16565b61392c90919063ffffffff16565b6139a690919063ffffffff16565b905061359e61358f84613581670de0b6b3a76400008561392c90919063ffffffff16565b6139a690919063ffffffff16565b856138ce90919063ffffffff16565b935050505b6135ea83600101546135dc670de0b6b3a76400006135ce86886000015461392c90919063ffffffff16565b6139a690919063ffffffff16565b6139f090919063ffffffff16565b94505050505092915050565b6000600260008373ffffffffffffffffffffffffffffffffffffffff1673ffffffffffffffffffffffffffffffffffffffff16815260200190815260200160002060009054906101000a900460ff169050919050565b60096020528060005260406000206000915054906101000a900460ff1681565b600d60149054906101000a900461ffff1681565b600c5481565b61368e6138c6565b73ffffffffffffffffffffffffffffffffffffffff1660008054906101000a900473ffffffffffffffffffffffffffffffffffffffff1673ffffffffffffffffffffffffffffffffffffffff161461371b576040517f08c379a000000000000000000000000000000000000000000000000000000000815260040161371290614c72565b60405180910390fd5b80600b60016101000a81548173ffffffffffffffffffffffffffffffffffffffff021916908373ffffffffffffffffffffffffffffffffffffffff1602179055503373ffffffffffffffffffffffffffffffffffffffff167ffc9ae9e2d54c8ba3ae37c8a337ab3650824f22456385a15a268e231f48494370826040516137a291906149c9565b60405180910390a250565b600e60009054906101000a900473ffffffffffffffffffffffffffffffffffffffff1681565b6137db6138c6565b73ffffffffffffffffffffffffffffffffffffffff1660008054906101000a900473ffffffffffffffffffffffffffffffffffffffff1673ffffffffffffffffffffffffffffffffffffffff1614613868576040517f08c379a000000000000000000000000000000000000000000000000000000000815260040161385f90614c72565b60405180910390fd5b61387181613cd8565b50565b600d60009054906101000a900473ffffffffffffffffffffffffffffffffffffffff1681565b600b60019054906101000a900473ffffffffffffffffffffffffffffffffffffffff1681565b60045481565b600033905090565b60008082846138dd9190614f42565b905083811015613922576040517f08c379a000000000000000000000000000000000000000000000000000000000815260040161391990615271565b60405180910390fd5b8091505092915050565b600080830361393e57600090506139a0565b6000828461394c9190615291565b905082848261395b919061531a565b1461399b576040517f08c379a0000000000000000000000000000000000000000000000000000000008152600401613992906153bd565b60405180910390fd5b809150505b92915050565b60006139e883836040518060400160405280601a81526020017f536166654d6174683a206469766973696f6e206279207a65726f000000000000815250613e04565b905092915050565b6000613a3283836040518060400160405280601e81526020017f536166654d6174683a207375627472616374696f6e206f766572666c6f770000815250613e67565b905092915050565b6000600e60009054906101000a900473ffffffffffffffffffffffffffffffffffffffff1673ffffffffffffffffffffffffffffffffffffffff16633158079c85856040518363ffffffff1660e01b8152600401613a99929190614ea8565b6020604051808303816000875af1158015613ab8573d6000803e3d6000fd5b505050506040513d601f19601f82011682018060405250810190613adc9190614ee6565b50613b0c6064613afe85613af0888761184d565b61392c90919063ffffffff16565b6139a690919063ffffffff16565b9050613b183384613ecb565b6000811115613bc357600360019054906101000a900473ffffffffffffffffffffffffffffffffffffffff1673ffffffffffffffffffffffffffffffffffffffff166340c10f1985836040518363ffffffff1660e01b8152600401613b7e929190614ea8565b6020604051808303816000875af1158015613b9d573d6000803e3d6000fd5b505050506040513d601f19601f82011682018060405250810190613bc19190614f8b565b505b50505050565b613c4a8363a9059cbb60e01b8484604051602401613be8929190614ea8565b604051602081830303815290604052907bffffffffffffffffffffffffffffffffffffffffffffffffffffffff19166020820180517bffffffffffffffffffffffffffffffffffffffffffffffffffffffff8381831617835250505050614201565b505050565b613cd2846323b872dd60e01b858585604051602401613c7093929190614cfe565b604051602081830303815290604052907bffffffffffffffffffffffffffffffffffffffffffffffffffffffff19166020820180517bffffffffffffffffffffffffffffffffffffffffffffffffffffffff8381831617835250505050614201565b50505050565b600073ffffffffffffffffffffffffffffffffffffffff168173ffffffffffffffffffffffffffffffffffffffff1603613d47576040517f08c379a0000000000000000000000000000000000000000000000000000000008152600401613d3e9061544f565b60405180910390fd5b8073ffffffffffffffffffffffffffffffffffffffff1660008054906101000a900473ffffffffffffffffffffffffffffffffffffffff1673ffffffffffffffffffffffffffffffffffffffff167f8be0079c531659141344cd1fd0a4f28419497f9722a3daafe3b4186f6b6457e060405160405180910390a3806000806101000a81548173ffffffffffffffffffffffffffffffffffffffff021916908373ffffffffffffffffffffffffffffffffffffffff16021790555050565b60008083118290613e4b576040517f08c379a0000000000000000000000000000000000000000000000000000000008152600401613e4291906154ee565b60405180910390fd5b5060008385613e5a919061531a565b9050809150509392505050565b6000838311158290613eaf576040517f08c379a0000000000000000000000000000000000000000000000000000000008152600401613ea691906154ee565b60405180910390fd5b5060008385613ebe9190615510565b9050809150509392505050565b600073ffffffffffffffffffffffffffffffffffffffff16600d60009054906101000a900473ffffffffffffffffffffffffffffffffffffffff1673ffffffffffffffffffffffffffffffffffffffff1614158015613f3e57506000600d60149054906101000a900461ffff1661ffff16115b156141fd576000600d60009054906101000a900473ffffffffffffffffffffffffffffffffffffffff1673ffffffffffffffffffffffffffffffffffffffff16634a9fefc7846040518263ffffffff1660e01b8152600401613fa091906149c9565b602060405180830381865afa158015613fbd573d6000803e3d6000fd5b505050506040513d601f19601f82011682018060405250810190613fe19190615559565b90506000614020612710614012600d60149054906101000a900461ffff1661ffff168661392c90919063ffffffff16565b6139a690919063ffffffff16565b9050600073ffffffffffffffffffffffffffffffffffffffff168273ffffffffffffffffffffffffffffffffffffffff161415801561405f5750600081115b156141fa57600360019054906101000a900473ffffffffffffffffffffffffffffffffffffffff1673ffffffffffffffffffffffffffffffffffffffff166340c10f1983836040518363ffffffff1660e01b81526004016140c1929190614ea8565b6020604051808303816000875af11580156140e0573d6000803e3d6000fd5b505050506040513d601f19601f820116820180604052508101906141049190614f8b565b50600d60009054906101000a900473ffffffffffffffffffffffffffffffffffffffff1673ffffffffffffffffffffffffffffffffffffffff1663dc1694b883836040518363ffffffff1660e01b8152600401614162929190614ea8565b600060405180830381600087803b15801561417c57600080fd5b505af1158015614190573d6000803e3d6000fd5b505050508173ffffffffffffffffffffffffffffffffffffffff168473ffffffffffffffffffffffffffffffffffffffff167f86ddab457291316e0f5496737e5ca67c4037234c32c3be04c48ae96186893a7b836040516141f1919061457b565b60405180910390a35b50505b5050565b6000614263826040518060400160405280602081526020017f5361666542455032303a206c6f772d6c6576656c2063616c6c206661696c65648152508573ffffffffffffffffffffffffffffffffffffffff166142c89092919063ffffffff16565b90506000815111156142c357808060200190518101906142839190614f8b565b6142c2576040517f08c379a00000000000000000000000000000000000000000000000000000000081526004016142b9906155f8565b60405180910390fd5b5b505050565b60606142d784846000856142e0565b90509392505050565b60606142eb85614402565b61432a576040517f08c379a000000000000000000000000000000000000000000000000000000000815260040161432190615664565b60405180910390fd5b6000808673ffffffffffffffffffffffffffffffffffffffff16858760405161435391906156cb565b60006040518083038185875af1925050503d8060008114614390576040519150601f19603f3d011682016040523d82523d6000602084013e614395565b606091505b509150915081156143aa5780925050506143fa565b6000815111156143bd5780518082602001fd5b836040517f08c379a00000000000000000000000000000000000000000000000000000000081526004016143f191906154ee565b60405180910390fd5b949350505050565b60008060007fc5d2460186f7233c927e7db2dcc703c0e500b653ca82273b7bfad8045d85a47060001b9050833f915080821415801561444457506000801b8214155b92505050919050565b600080fd5b600073ffffffffffffffffffffffffffffffffffffffff82169050919050565b600061447d82614452565b9050919050565b61448d81614472565b811461449857600080fd5b50565b6000813590506144aa81614484565b92915050565b6000819050919050565b6144c3816144b0565b81146144ce57600080fd5b50565b6000813590506144e0816144ba565b92915050565b600080604083850312156144fd576144fc61444d565b5b600061450b8582860161449b565b925050602061451c858286016144d1565b9150509250929050565b61452f81614472565b82525050565b600060608201905061454a6000830186614526565b6145576020830185614526565b6145646040830184614526565b949350505050565b614575816144b0565b82525050565b6000602082019050614590600083018461456c565b92915050565b60006145a182614472565b9050919050565b6145b181614596565b81146145bc57600080fd5b50565b6000813590506145ce816145a8565b92915050565b6000602082840312156145ea576145e961444d565b5b60006145f8848285016145bf565b91505092915050565b6000602082840312156146175761461661444d565b5b6000614625848285016144d1565b91505092915050565b6000819050919050565b600061465361464e61464984614452565b61462e565b614452565b9050919050565b600061466582614638565b9050919050565b60006146778261465a565b9050919050565b6146878161466c565b82525050565b60006080820190506146a2600083018761467e565b6146af602083018661456c565b6146bc604083018561456c565b6146c9606083018461456c565b95945050505050565b60006146dd82614472565b9050919050565b6146ed816146d2565b81146146f857600080fd5b50565b60008135905061470a816146e4565b92915050565b60008115159050919050565b61472581614710565b811461473057600080fd5b50565b6000813590506147428161471c565b92915050565b6000806000606084860312156147615761476061444d565b5b600061476f868287016144d1565b9350506020614780868287016146fb565b925050604061479186828701614733565b9150509250925092565b600080604083850312156147b2576147b161444d565b5b60006147c0858286016144d1565b92505060206147d1858286016144d1565b9150509250929050565b60006147e68261465a565b9050919050565b6147f6816147db565b82525050565b600060208201905061481160008301846147ed565b92915050565b600061ffff82169050919050565b61482e81614817565b82525050565b60006020820190506148496000830184614825565b92915050565b6000602082840312156148655761486461444d565b5b600061487384828501614733565b91505092915050565b600080604083850312156148935761489261444d565b5b60006148a18582860161449b565b92505060206148b285828601614733565b9150509250929050565b6148c581614817565b81146148d057600080fd5b50565b6000813590506148e2816148bc565b92915050565b6000602082840312156148fe576148fd61444d565b5b600061490c848285016148d3565b91505092915050565b600060608201905061492a600083018661456c565b614937602083018561456c565b614944604083018461456c565b949350505050565b61495581614710565b82525050565b6000602082019050614970600083018461494c565b92915050565b60008060006060848603121561498f5761498e61444d565b5b600061499d868287016144d1565b93505060206149ae868287016144d1565b92505060406149bf86828701614733565b9150509250925092565b60006020820190506149de6000830184614526565b92915050565b6000806000606084860312156149fd576149fc61444d565b5b6000614a0b868287016144d1565b9350506020614a1c868287016144d1565b9250506040614a2d8682870161449b565b9150509250925092565b60008060408385031215614a4e57614a4d61444d565b5b6000614a5c858286016144d1565b9250506020614a6d8582860161449b565b9150509250929050565b6000604082019050614a8c600083018561456c565b614a99602083018461456c565b9392505050565b60008060008060808587031215614aba57614ab961444d565b5b6000614ac88782880161449b565b9450506020614ad9878288016144d1565b9350506040614aea878288016144d1565b9250506060614afb878288016144d1565b91505092959194509250565b600060208284031215614b1d57614b1c61444d565b5b6000614b2b8482850161449b565b91505092915050565b600060208284031215614b4a57614b4961444d565b5b6000614b58848285016146fb565b91505092915050565b6000614b6c8261465a565b9050919050565b614b7c81614b61565b82525050565b6000602082019050614b976000830184614b73565b92915050565b6000614ba88261465a565b9050919050565b614bb881614b9d565b82525050565b6000602082019050614bd36000830184614baf565b92915050565b6000614be48261465a565b9050919050565b614bf481614bd9565b82525050565b6000602082019050614c0f6000830184614beb565b92915050565b600082825260208201905092915050565b7f4f776e61626c653a2063616c6c6572206973206e6f7420746865206f776e6572600082015250565b6000614c5c602083614c15565b9150614c6782614c26565b602082019050919050565b60006020820190508181036000830152614c8b81614c4f565b9050919050565b7f6e6f6e4475706c6963617465643a206475706c69636174656400000000000000600082015250565b6000614cc8601983614c15565b9150614cd382614c92565b602082019050919050565b60006020820190508181036000830152614cf781614cbb565b9050919050565b6000606082019050614d136000830186614526565b614d206020830185614526565b614d2d604083018461456c565b949350505050565b7f626f6f7374206d7573742062652077697468696e2072616e6765000000000000600082015250565b6000614d6b601a83614c15565b9150614d7682614d35565b602082019050919050565b60006020820190508181036000830152614d9a81614d5e565b9050919050565b7f5265656e7472616e637947756172643a207265656e7472616e742063616c6c00600082015250565b6000614dd7601f83614c15565b9150614de282614da1565b602082019050919050565b60006020820190508181036000830152614e0681614dca565b9050919050565b7f4e487b7100000000000000000000000000000000000000000000000000000000600052603260045260246000fd5b7f77697468647261773a206e6f7420676f6f640000000000000000000000000000600082015250565b6000614e72601283614c15565b9150614e7d82614e3c565b602082019050919050565b60006020820190508181036000830152614ea181614e65565b9050919050565b6000604082019050614ebd6000830185614526565b614eca602083018461456c565b9392505050565b600081519050614ee0816144ba565b92915050565b600060208284031215614efc57614efb61444d565b5b6000614f0a84828501614ed1565b91505092915050565b7f4e487b7100000000000000000000000000000000000000000000000000000000600052601160045260246000fd5b6000614f4d826144b0565b9150614f58836144b0565b9250828201905080821115614f7057614f6f614f13565b5b92915050565b600081519050614f858161471c565b92915050565b600060208284031215614fa157614fa061444d565b5b6000614faf84828501614f76565b91505092915050565b7f736574526566657272616c436f6d6d697373696f6e526174653a20696e76616c60008201527f696420726566657272616c20636f6d6d697373696f6e2072617465206261736960208201527f7320706f696e7473000000000000000000000000000000000000000000000000604082015250565b600061503a604883614c15565b915061504582614fb8565b606082019050919050565b600060208201905081810360008301526150698161502d565b9050919050565b600061507b826144b0565b91507fffffffffffffffffffffffffffffffffffffffffffffffffffffffffffffffff82036150ad576150ac614f13565b5b600182019050919050565b60006040820190506150cd6000830185614526565b6150da6020830184614526565b9392505050565b7f6f6e6c7920617070726f766564204e4654730000000000000000000000000000600082015250565b6000615117601283614c15565b9150615122826150e1565b602082019050919050565b600060208201905081810360008301526151468161510a565b9050919050565b7f7573657220646f6573206e6f74206861766520737065636966696564204e4654600082015250565b6000615183602083614c15565b915061518e8261514d565b602082019050919050565b600060208201905081810360008301526151b281615176565b9050919050565b7f6e6f7420616c6c6f77656420746f206465706f73697400000000000000000000600082015250565b60006151ef601683614c15565b91506151fa826151b9565b602082019050919050565b6000602082019050818103600083015261521e816151e2565b9050919050565b7f536166654d6174683a206164646974696f6e206f766572666c6f770000000000600082015250565b600061525b601b83614c15565b915061526682615225565b602082019050919050565b6000602082019050818103600083015261528a8161524e565b9050919050565b600061529c826144b0565b91506152a7836144b0565b9250817fffffffffffffffffffffffffffffffffffffffffffffffffffffffffffffffff04831182151516156152e0576152df614f13565b5b828202905092915050565b7f4e487b7100000000000000000000000000000000000000000000000000000000600052601260045260246000fd5b6000615325826144b0565b9150615330836144b0565b9250826153405761533f6152eb565b5b828204905092915050565b7f536166654d6174683a206d756c7469706c69636174696f6e206f766572666c6f60008201527f7700000000000000000000000000000000000000000000000000000000000000602082015250565b60006153a7602183614c15565b91506153b28261534b565b604082019050919050565b600060208201905081810360008301526153d68161539a565b9050919050565b7f4f776e61626c653a206e6577206f776e657220697320746865207a65726f206160008201527f6464726573730000000000000000000000000000000000000000000000000000602082015250565b6000615439602683614c15565b9150615444826153dd565b604082019050919050565b600060208201905081810360008301526154688161542c565b9050919050565b600081519050919050565b60005b8381101561549857808201518184015260208101905061547d565b60008484015250505050565b6000601f19601f8301169050919050565b60006154c08261546f565b6154ca8185614c15565b93506154da81856020860161547a565b6154e3816154a4565b840191505092915050565b6000602082019050818103600083015261550881846154b5565b905092915050565b600061551b826144b0565b9150615526836144b0565b925082820390508181111561553e5761553d614f13565b5b92915050565b60008151905061555381614484565b92915050565b60006020828403121561556f5761556e61444d565b5b600061557d84828501615544565b91505092915050565b7f5361666542455032303a204245503230206f7065726174696f6e20646964206e60008201527f6f74207375636365656400000000000000000000000000000000000000000000602082015250565b60006155e2602a83614c15565b91506155ed82615586565b604082019050919050565b60006020820190508181036000830152615611816155d5565b9050919050565b7f416464726573733a2063616c6c20746f206e6f6e2d636f6e7472616374000000600082015250565b600061564e601d83614c15565b915061565982615618565b602082019050919050565b6000602082019050818103600083015261567d81615641565b9050919050565b600081519050919050565b600081905092915050565b60006156a582615684565b6156af818561568f565b93506156bf81856020860161547a565b80840191505092915050565b60006156d7828461569a565b91508190509291505056fea2646970667358221220ac6e7a8570ea19e3c41d88e6ed5cc798832875e16c7b40d21fb15a6c5c53811864736f6c63430008100033",
  "immutableReferences": {},
  "source": "// File @openzeppelin/contracts/math/Math.sol@v3.4.0\r\n\r\n// SPDX-License-Identifier: GPL-3.0-or-later\r\n\r\npragma solidity >=0.6.0 <=0.8.16;\r\n\r\n/**\r\n * @dev Standard math utilities missing in the Solidity language.\r\n */\r\nlibrary Math {\r\n    /**\r\n     * @dev Returns the largest of two numbers.\r\n     */\r\n    function max(uint256 a, uint256 b) internal pure returns (uint256) {\r\n        return a >= b ? a : b;\r\n    }\r\n\r\n    /**\r\n     * @dev Returns the smallest of two numbers.\r\n     */\r\n    function min(uint256 a, uint256 b) internal pure returns (uint256) {\r\n        return a < b ? a : b;\r\n    }\r\n\r\n    /**\r\n     * @dev Returns the average of two numbers. The result is rounded towards\r\n     * zero.\r\n     */\r\n    function average(uint256 a, uint256 b) internal pure returns (uint256) {\r\n        // (a + b) / 2 can overflow, so we distribute\r\n        return (a / 2) + (b / 2) + ((a % 2 + b % 2) / 2);\r\n    }\r\n}\r\n\r\n\r\n// File @pancakeswap/pancake-swap-lib/contracts/token/BEP20/IBEP20.sol@v0.0.1\r\n\r\npragma solidity >=0.4.0;\r\n\r\ninterface IBEP20 {\r\n    /**\r\n     * @dev Returns the amount of tokens in existence.\r\n     */\r\n    function totalSupply() external view returns (uint256);\r\n\r\n    /**\r\n     * @dev Returns the token decimals.\r\n     */\r\n    function decimals() external view returns (uint8);\r\n\r\n    /**\r\n     * @dev Returns the token symbol.\r\n     */\r\n    function symbol() external view returns (string memory);\r\n\r\n    /**\r\n     * @dev Returns the token name.\r\n     */\r\n    function name() external view returns (string memory);\r\n\r\n    /**\r\n     * @dev Returns the bep token owner.\r\n     */\r\n    function getOwner() external view returns (address);\r\n\r\n    /**\r\n     * @dev Returns the amount of tokens owned by `account`.\r\n     */\r\n    function balanceOf(address account) external view returns (uint256);\r\n\r\n    /**\r\n     * @dev Moves `amount` tokens from the caller's account to `recipient`.\r\n     *\r\n     * Returns a boolean value indicating whether the operation succeeded.\r\n     *\r\n     * Emits a {Transfer} event.\r\n     */\r\n    function transfer(address recipient, uint256 amount) external returns (bool);\r\n\r\n    /**\r\n     * @dev Returns the remaining number of tokens that `spender` will be\r\n     * allowed to spend on behalf of `owner` through {transferFrom}. This is\r\n     * zero by default.\r\n     *\r\n     * This value changes when {approve} or {transferFrom} are called.\r\n     */\r\n    function allowance(address _owner, address spender) external view returns (uint256);\r\n\r\n    /**\r\n     * @dev Sets `amount` as the allowance of `spender` over the caller's tokens.\r\n     *\r\n     * Returns a boolean value indicating whether the operation succeeded.\r\n     *\r\n     * IMPORTANT: Beware that changing an allowance with this method brings the risk\r\n     * that someone may use both the old and the new allowance by unfortunate\r\n     * transaction ordering. One possible solution to mitigate this race\r\n     * condition is to first reduce the spender's allowance to 0 and set the\r\n     * desired value afterwards:\r\n     * https://github.com/ethereum/EIPs/issues/20#issuecomment-263524729\r\n     *\r\n     * Emits an {Approval} event.\r\n     */\r\n    function approve(address spender, uint256 amount) external returns (bool);\r\n\r\n    /**\r\n     * @dev Moves `amount` tokens from `sender` to `recipient` using the\r\n     * allowance mechanism. `amount` is then deducted from the caller's\r\n     * allowance.\r\n     *\r\n     * Returns a boolean value indicating whether the operation succeeded.\r\n     *\r\n     * Emits a {Transfer} event.\r\n     */\r\n    function transferFrom(\r\n        address sender,\r\n        address recipient,\r\n        uint256 amount\r\n    ) external returns (bool);\r\n\r\n    /**\r\n     * @dev Emitted when `value` tokens are moved from one account (`from`) to\r\n     * another (`to`).\r\n     *\r\n     * Note that `value` may be zero.\r\n     */\r\n    event Transfer(address indexed from, address indexed to, uint256 value);\r\n\r\n    /**\r\n     * @dev Emitted when the allowance of a `spender` for an `owner` is set by\r\n     * a call to {approve}. `value` is the new allowance.\r\n     */\r\n    event Approval(address indexed owner, address indexed spender, uint256 value);\r\n}\r\n\r\n\r\n// File @pancakeswap/pancake-swap-lib/contracts/math/SafeMath.sol@v0.0.1\r\n\r\n\r\n\r\npragma solidity >=0.4.0;\r\n\r\n/**\r\n * @dev Wrappers over Solidity's arithmetic operations with added overflow\r\n * checks.\r\n *\r\n * Arithmetic operations in Solidity wrap on overflow. This can easily result\r\n * in bugs, because programmers usually assume that an overflow raises an\r\n * error, which is the standard behavior in high level programming languages.\r\n * `SafeMath` restores this intuition by reverting the transaction when an\r\n * operation overflows.\r\n *\r\n * Using this library instead of the unchecked operations eliminates an entire\r\n * class of bugs, so it's recommended to use it always.\r\n */\r\nlibrary SafeMath {\r\n    /**\r\n     * @dev Returns the addition of two unsigned integers, reverting on\r\n     * overflow.\r\n     *\r\n     * Counterpart to Solidity's `+` operator.\r\n     *\r\n     * Requirements:\r\n     *\r\n     * - Addition cannot overflow.\r\n     */\r\n    function add(uint256 a, uint256 b) internal pure returns (uint256) {\r\n        uint256 c = a + b;\r\n        require(c >= a, 'SafeMath: addition overflow');\r\n\r\n        return c;\r\n    }\r\n\r\n    /**\r\n     * @dev Returns the subtraction of two unsigned integers, reverting on\r\n     * overflow (when the result is negative).\r\n     *\r\n     * Counterpart to Solidity's `-` operator.\r\n     *\r\n     * Requirements:\r\n     *\r\n     * - Subtraction cannot overflow.\r\n     */\r\n    function sub(uint256 a, uint256 b) internal pure returns (uint256) {\r\n        return sub(a, b, 'SafeMath: subtraction overflow');\r\n    }\r\n\r\n    /**\r\n     * @dev Returns the subtraction of two unsigned integers, reverting with custom message on\r\n     * overflow (when the result is negative).\r\n     *\r\n     * Counterpart to Solidity's `-` operator.\r\n     *\r\n     * Requirements:\r\n     *\r\n     * - Subtraction cannot overflow.\r\n     */\r\n    function sub(\r\n        uint256 a,\r\n        uint256 b,\r\n        string memory errorMessage\r\n    ) internal pure returns (uint256) {\r\n        require(b <= a, errorMessage);\r\n        uint256 c = a - b;\r\n\r\n        return c;\r\n    }\r\n\r\n    /**\r\n     * @dev Returns the multiplication of two unsigned integers, reverting on\r\n     * overflow.\r\n     *\r\n     * Counterpart to Solidity's `*` operator.\r\n     *\r\n     * Requirements:\r\n     *\r\n     * - Multiplication cannot overflow.\r\n     */\r\n    function mul(uint256 a, uint256 b) internal pure returns (uint256) {\r\n        // Gas optimization: this is cheaper than requiring 'a' not being zero, but the\r\n        // benefit is lost if 'b' is also tested.\r\n        // See: https://github.com/OpenZeppelin/openzeppelin-contracts/pull/522\r\n        if (a == 0) {\r\n            return 0;\r\n        }\r\n\r\n        uint256 c = a * b;\r\n        require(c / a == b, 'SafeMath: multiplication overflow');\r\n\r\n        return c;\r\n    }\r\n\r\n    /**\r\n     * @dev Returns the integer division of two unsigned integers. Reverts on\r\n     * division by zero. The result is rounded towards zero.\r\n     *\r\n     * Counterpart to Solidity's `/` operator. Note: this function uses a\r\n     * `revert` opcode (which leaves remaining gas untouched) while Solidity\r\n     * uses an invalid opcode to revert (consuming all remaining gas).\r\n     *\r\n     * Requirements:\r\n     *\r\n     * - The divisor cannot be zero.\r\n     */\r\n    function div(uint256 a, uint256 b) internal pure returns (uint256) {\r\n        return div(a, b, 'SafeMath: division by zero');\r\n    }\r\n\r\n    /**\r\n     * @dev Returns the integer division of two unsigned integers. Reverts with custom message on\r\n     * division by zero. The result is rounded towards zero.\r\n     *\r\n     * Counterpart to Solidity's `/` operator. Note: this function uses a\r\n     * `revert` opcode (which leaves remaining gas untouched) while Solidity\r\n     * uses an invalid opcode to revert (consuming all remaining gas).\r\n     *\r\n     * Requirements:\r\n     *\r\n     * - The divisor cannot be zero.\r\n     */\r\n    function div(\r\n        uint256 a,\r\n        uint256 b,\r\n        string memory errorMessage\r\n    ) internal pure returns (uint256) {\r\n        require(b > 0, errorMessage);\r\n        uint256 c = a / b;\r\n        // assert(a == b * c + a % b); // There is no case in which this doesn't hold\r\n\r\n        return c;\r\n    }\r\n\r\n    /**\r\n     * @dev Returns the remainder of dividing two unsigned integers. (unsigned integer modulo),\r\n     * Reverts when dividing by zero.\r\n     *\r\n     * Counterpart to Solidity's `%` operator. This function uses a `revert`\r\n     * opcode (which leaves remaining gas untouched) while Solidity uses an\r\n     * invalid opcode to revert (consuming all remaining gas).\r\n     *\r\n     * Requirements:\r\n     *\r\n     * - The divisor cannot be zero.\r\n     */\r\n    function mod(uint256 a, uint256 b) internal pure returns (uint256) {\r\n        return mod(a, b, 'SafeMath: modulo by zero');\r\n    }\r\n\r\n    /**\r\n     * @dev Returns the remainder of dividing two unsigned integers. (unsigned integer modulo),\r\n     * Reverts with custom message when dividing by zero.\r\n     *\r\n     * Counterpart to Solidity's `%` operator. This function uses a `revert`\r\n     * opcode (which leaves remaining gas untouched) while Solidity uses an\r\n     * invalid opcode to revert (consuming all remaining gas).\r\n     *\r\n     * Requirements:\r\n     *\r\n     * - The divisor cannot be zero.\r\n     */\r\n    function mod(\r\n        uint256 a,\r\n        uint256 b,\r\n        string memory errorMessage\r\n    ) internal pure returns (uint256) {\r\n        require(b != 0, errorMessage);\r\n        return a % b;\r\n    }\r\n\r\n    function min(uint256 x, uint256 y) internal pure returns (uint256 z) {\r\n        z = x < y ? x : y;\r\n    }\r\n\r\n    // babylonian method (https://en.wikipedia.org/wiki/Methods_of_computing_square_roots#Babylonian_method)\r\n    function sqrt(uint256 y) internal pure returns (uint256 z) {\r\n        if (y > 3) {\r\n            z = y;\r\n            uint256 x = y / 2 + 1;\r\n            while (x < z) {\r\n                z = x;\r\n                x = (y / x + x) / 2;\r\n            }\r\n        } else if (y != 0) {\r\n            z = 1;\r\n        }\r\n    }\r\n}\r\n\r\n\r\n// File @pancakeswap/pancake-swap-lib/contracts/utils/Address.sol@v0.0.1\r\n\r\n\r\n\r\npragma solidity >=0.6.0 <=0.8.16;\r\n\r\n/**\r\n * @dev Collection of functions related to the address type\r\n */\r\nlibrary Address {\r\n    /**\r\n     * @dev Returns true if `account` is a contract.\r\n     *\r\n     * [IMPORTANT]\r\n     * ====\r\n     * It is unsafe to assume that an address for which this function returns\r\n     * false is an externally-owned account (EOA) and not a contract.\r\n     *\r\n     * Among others, `isContract` will return false for the following\r\n     * types of addresses:\r\n     *\r\n     *  - an externally-owned account\r\n     *  - a contract in construction\r\n     *  - an address where a contract will be created\r\n     *  - an address where a contract lived, but was destroyed\r\n     * ====\r\n     */\r\n    function isContract(address account) internal view returns (bool) {\r\n        // According to EIP-1052, 0x0 is the value returned for not-yet created accounts\r\n        // and 0xc5d2460186f7233c927e7db2dcc703c0e500b653ca82273b7bfad8045d85a470 is returned\r\n        // for accounts without code, i.e. `keccak256('')`\r\n        bytes32 codehash;\r\n        bytes32 accountHash = 0xc5d2460186f7233c927e7db2dcc703c0e500b653ca82273b7bfad8045d85a470;\r\n        // solhint-disable-next-line no-inline-assembly\r\n        assembly {\r\n            codehash := extcodehash(account)\r\n        }\r\n        return (codehash != accountHash && codehash != 0x0);\r\n    }\r\n\r\n    /**\r\n     * @dev Replacement for Solidity's `transfer`: sends `amount` wei to\r\n     * `recipient`, forwarding all available gas and reverting on errors.\r\n     *\r\n     * https://eips.ethereum.org/EIPS/eip-1884[EIP1884] increases the gas cost\r\n     * of certain opcodes, possibly making contracts go over the 2300 gas limit\r\n     * imposed by `transfer`, making them unable to receive funds via\r\n     * `transfer`. {sendValue} removes this limitation.\r\n     *\r\n     * https://diligence.consensys.net/posts/2019/09/stop-using-soliditys-transfer-now/[Learn more].\r\n     *\r\n     * IMPORTANT: because control is transferred to `recipient`, care must be\r\n     * taken to not create reentrancy vulnerabilities. Consider using\r\n     * {ReentrancyGuard} or the\r\n     * https://solidity.readthedocs.io/en/v0.5.11/security-considerations.html#use-the-checks-effects-interactions-pattern[checks-effects-interactions pattern].\r\n     */\r\n    function sendValue(address payable recipient, uint256 amount) internal {\r\n        require(address(this).balance >= amount, 'Address: insufficient balance');\r\n\r\n        // solhint-disable-next-line avoid-low-level-calls, avoid-call-value\r\n        (bool success, ) = recipient.call{value: amount}('');\r\n        require(success, 'Address: unable to send value, recipient may have reverted');\r\n    }\r\n\r\n    /**\r\n     * @dev Performs a Solidity function call using a low level `call`. A\r\n     * plain`call` is an unsafe replacement for a function call: use this\r\n     * function instead.\r\n     *\r\n     * If `target` reverts with a revert reason, it is bubbled up by this\r\n     * function (like regular Solidity function calls).\r\n     *\r\n     * Returns the raw returned data. To convert to the expected return value,\r\n     * use https://solidity.readthedocs.io/en/latest/units-and-global-variables.html?highlight=abi.decode#abi-encoding-and-decoding-functions[`abi.decode`].\r\n     *\r\n     * Requirements:\r\n     *\r\n     * - `target` must be a contract.\r\n     * - calling `target` with `data` must not revert.\r\n     *\r\n     * _Available since v3.1._\r\n     */\r\n    function functionCall(address target, bytes memory data) internal returns (bytes memory) {\r\n        return functionCall(target, data, 'Address: low-level call failed');\r\n    }\r\n\r\n    /**\r\n     * @dev Same as {xref-Address-functionCall-address-bytes-}[`functionCall`], but with\r\n     * `errorMessage` as a fallback revert reason when `target` reverts.\r\n     *\r\n     * _Available since v3.1._\r\n     */\r\n    function functionCall(\r\n        address target,\r\n        bytes memory data,\r\n        string memory errorMessage\r\n    ) internal returns (bytes memory) {\r\n        return _functionCallWithValue(target, data, 0, errorMessage);\r\n    }\r\n\r\n    /**\r\n     * @dev Same as {xref-Address-functionCall-address-bytes-}[`functionCall`],\r\n     * but also transferring `value` wei to `target`.\r\n     *\r\n     * Requirements:\r\n     *\r\n     * - the calling contract must have an ETH balance of at least `value`.\r\n     * - the called Solidity function must be `payable`.\r\n     *\r\n     * _Available since v3.1._\r\n     */\r\n    function functionCallWithValue(\r\n        address target,\r\n        bytes memory data,\r\n        uint256 value\r\n    ) internal returns (bytes memory) {\r\n        return functionCallWithValue(target, data, value, 'Address: low-level call with value failed');\r\n    }\r\n\r\n    /**\r\n     * @dev Same as {xref-Address-functionCallWithValue-address-bytes-uint256-}[`functionCallWithValue`], but\r\n     * with `errorMessage` as a fallback revert reason when `target` reverts.\r\n     *\r\n     * _Available since v3.1._\r\n     */\r\n    function functionCallWithValue(\r\n        address target,\r\n        bytes memory data,\r\n        uint256 value,\r\n        string memory errorMessage\r\n    ) internal returns (bytes memory) {\r\n        require(address(this).balance >= value, 'Address: insufficient balance for call');\r\n        return _functionCallWithValue(target, data, value, errorMessage);\r\n    }\r\n\r\n    function _functionCallWithValue(\r\n        address target,\r\n        bytes memory data,\r\n        uint256 weiValue,\r\n        string memory errorMessage\r\n    ) private returns (bytes memory) {\r\n        require(isContract(target), 'Address: call to non-contract');\r\n\r\n        // solhint-disable-next-line avoid-low-level-calls\r\n        (bool success, bytes memory returndata) = target.call{value: weiValue}(data);\r\n        if (success) {\r\n            return returndata;\r\n        } else {\r\n            // Look for revert reason and bubble it up if present\r\n            if (returndata.length > 0) {\r\n                // The easiest way to bubble the revert reason is using memory via assembly\r\n\r\n                // solhint-disable-next-line no-inline-assembly\r\n                assembly {\r\n                    let returndata_size := mload(returndata)\r\n                    revert(add(32, returndata), returndata_size)\r\n                }\r\n            } else {\r\n                revert(errorMessage);\r\n            }\r\n        }\r\n    }\r\n}\r\n\r\n\r\n// File @pancakeswap/pancake-swap-lib/contracts/token/BEP20/SafeBEP20.sol@v0.0.1\r\n\r\n\r\n\r\npragma solidity >=0.6.0 <=0.8.16;\r\n\r\n\r\n\r\n/**\r\n * @title SafeBEP20\r\n * @dev Wrappers around BEP20 operations that throw on failure (when the token\r\n * contract returns false). Tokens that return no value (and instead revert or\r\n * throw on failure) are also supported, non-reverting calls are assumed to be\r\n * successful.\r\n * To use this library you can add a `using SafeBEP20 for IBEP20;` statement to your contract,\r\n * which allows you to call the safe operations as `token.safeTransfer(...)`, etc.\r\n */\r\nlibrary SafeBEP20 {\r\n    using SafeMath for uint256;\r\n    using Address for address;\r\n\r\n    function safeTransfer(\r\n        IBEP20 token,\r\n        address to,\r\n        uint256 value\r\n    ) internal {\r\n        _callOptionalReturn(token, abi.encodeWithSelector(token.transfer.selector, to, value));\r\n    }\r\n\r\n    function safeTransferFrom(\r\n        IBEP20 token,\r\n        address from,\r\n        address to,\r\n        uint256 value\r\n    ) internal {\r\n        _callOptionalReturn(token, abi.encodeWithSelector(token.transferFrom.selector, from, to, value));\r\n    }\r\n\r\n    /**\r\n     * @dev Deprecated. This function has issues similar to the ones found in\r\n     * {IBEP20-approve}, and its usage is discouraged.\r\n     *\r\n     * Whenever possible, use {safeIncreaseAllowance} and\r\n     * {safeDecreaseAllowance} instead.\r\n     */\r\n    function safeApprove(\r\n        IBEP20 token,\r\n        address spender,\r\n        uint256 value\r\n    ) internal {\r\n        // safeApprove should only be called when setting an initial allowance,\r\n        // or when resetting it to zero. To increase and decrease it, use\r\n        // 'safeIncreaseAllowance' and 'safeDecreaseAllowance'\r\n        // solhint-disable-next-line max-line-length\r\n        require(\r\n            (value == 0) || (token.allowance(address(this), spender) == 0),\r\n            'SafeBEP20: approve from non-zero to non-zero allowance'\r\n        );\r\n        _callOptionalReturn(token, abi.encodeWithSelector(token.approve.selector, spender, value));\r\n    }\r\n\r\n    function safeIncreaseAllowance(\r\n        IBEP20 token,\r\n        address spender,\r\n        uint256 value\r\n    ) internal {\r\n        uint256 newAllowance = token.allowance(address(this), spender).add(value);\r\n        _callOptionalReturn(token, abi.encodeWithSelector(token.approve.selector, spender, newAllowance));\r\n    }\r\n\r\n    function safeDecreaseAllowance(\r\n        IBEP20 token,\r\n        address spender,\r\n        uint256 value\r\n    ) internal {\r\n        uint256 newAllowance = token.allowance(address(this), spender).sub(\r\n            value,\r\n            'SafeBEP20: decreased allowance below zero'\r\n        );\r\n        _callOptionalReturn(token, abi.encodeWithSelector(token.approve.selector, spender, newAllowance));\r\n    }\r\n\r\n    /**\r\n     * @dev Imitates a Solidity high-level call (i.e. a regular function call to a contract), relaxing the requirement\r\n     * on the return value: the return value is optional (but if data is returned, it must not be false).\r\n     * @param token The token targeted by the call.\r\n     * @param data The call data (encoded using abi.encode or one of its variants).\r\n     */\r\n    function _callOptionalReturn(IBEP20 token, bytes memory data) private {\r\n        // We need to perform a low level call here, to bypass Solidity's return data size checking mechanism, since\r\n        // we're implementing it ourselves. We use {Address.functionCall} to perform this call, which verifies that\r\n        // the target address contains contract code and also asserts for success in the low-level call.\r\n\r\n        bytes memory returndata = address(token).functionCall(data, 'SafeBEP20: low-level call failed');\r\n        if (returndata.length > 0) {\r\n            // Return data is optional\r\n            // solhint-disable-next-line max-line-length\r\n            require(abi.decode(returndata, (bool)), 'SafeBEP20: BEP20 operation did not succeed');\r\n        }\r\n    }\r\n}\r\n\r\n\r\n// File @pancakeswap/pancake-swap-lib/contracts/GSN/Context.sol@v0.0.1\r\n\r\n\r\n\r\npragma solidity >=0.4.0;\r\n\r\n/*\r\n * @dev Provides information about the current execution context, including the\r\n * sender of the transaction and its data. While these are generally available\r\n * via msg.sender and msg.data, they should not be accessed in such a direct\r\n * manner, since when dealing with GSN meta-transactions the account sending and\r\n * paying for execution may not be the actual sender (as far as an application\r\n * is concerned).\r\n *\r\n * This contract is only required for intermediate, library-like contracts.\r\n */\r\ncontract Context {\r\n    // Empty internal constructor, to prevent people from mistakenly deploying\r\n    // an instance of this contract, which should be used via inheritance.\r\n    constructor() {}\r\n\r\n    function _msgSender() internal view returns (address payable) {\r\n        return payable(msg.sender);\r\n    }\r\n\r\n    function _msgData() internal view returns (bytes memory) {\r\n        this; // silence state mutability warning without generating bytecode - see https://github.com/ethereum/solidity/issues/2691\r\n        return msg.data;\r\n    }\r\n}\r\n\r\n\r\n// File @pancakeswap/pancake-swap-lib/contracts/access/Ownable.sol@v0.0.1\r\n\r\npragma solidity >=0.4.0;\r\n\r\n/**\r\n * @dev Contract module which provides a basic access control mechanism, where\r\n * there is an account (an owner) that can be granted exclusive access to\r\n * specific functions.\r\n *\r\n * By default, the owner account will be the one that deploys the contract. This\r\n * can later be changed with {transferOwnership}.\r\n *\r\n * This module is used through inheritance. It will make available the modifier\r\n * `onlyOwner`, which can be applied to your functions to restrict their use to\r\n * the owner.\r\n */\r\ncontract Ownable is Context {\r\n    address private _owner;\r\n\r\n    event OwnershipTransferred(address indexed previousOwner, address indexed newOwner);\r\n\r\n    /**\r\n     * @dev Initializes the contract setting the deployer as the initial owner.\r\n     */\r\n    constructor() {\r\n        address msgSender = _msgSender();\r\n        _owner = msgSender;\r\n        emit OwnershipTransferred(address(0), msgSender);\r\n    }\r\n\r\n    /**\r\n     * @dev Returns the address of the current owner.\r\n     */\r\n    function owner() public view returns (address) {\r\n        return _owner;\r\n    }\r\n\r\n    /**\r\n     * @dev Throws if called by any account other than the owner.\r\n     */\r\n    modifier onlyOwner() {\r\n        require(_owner == _msgSender(), 'Ownable: caller is not the owner');\r\n        _;\r\n    }\r\n\r\n    /**\r\n     * @dev Leaves the contract without owner. It will not be possible to call\r\n     * `onlyOwner` functions anymore. Can only be called by the current owner.\r\n     *\r\n     * NOTE: Renouncing ownership will leave the contract without an owner,\r\n     * thereby removing any functionality that is only available to the owner.\r\n     */\r\n    function renounceOwnership() public onlyOwner {\r\n        emit OwnershipTransferred(_owner, address(0));\r\n        _owner = address(0);\r\n    }\r\n\r\n    /**\r\n     * @dev Transfers ownership of the contract to a new account (`newOwner`).\r\n     * Can only be called by the current owner.\r\n     */\r\n    function transferOwnership(address newOwner) public onlyOwner {\r\n        _transferOwnership(newOwner);\r\n    }\r\n\r\n    /**\r\n     * @dev Transfers ownership of the contract to a new account (`newOwner`).\r\n     */\r\n    function _transferOwnership(address newOwner) internal {\r\n        require(newOwner != address(0), 'Ownable: new owner is the zero address');\r\n        emit OwnershipTransferred(_owner, newOwner);\r\n        _owner = newOwner;\r\n    }\r\n}\r\n\r\n\r\n// File @openzeppelin/contracts/utils/ReentrancyGuard.sol@v3.4.0\r\n\r\n\r\n\r\npragma solidity >=0.6.0 <=0.8.16;\r\n\r\n/**\r\n * @dev Contract module that helps prevent reentrant calls to a function.\r\n *\r\n * Inheriting from `ReentrancyGuard` will make the {nonReentrant} modifier\r\n * available, which can be applied to functions to make sure there are no nested\r\n * (reentrant) calls to them.\r\n *\r\n * Note that because there is a single `nonReentrant` guard, functions marked as\r\n * `nonReentrant` may not call one another. This can be worked around by making\r\n * those functions `private`, and then adding `external` `nonReentrant` entry\r\n * points to them.\r\n *\r\n * TIP: If you would like to learn more about reentrancy and alternative ways\r\n * to protect against it, check out our blog post\r\n * https://blog.openzeppelin.com/reentrancy-after-istanbul/[Reentrancy After Istanbul].\r\n */\r\nabstract contract ReentrancyGuard {\r\n    // Booleans are more expensive than uint256 or any type that takes up a full\r\n    // word because each write operation emits an extra SLOAD to first read the\r\n    // slot's contents, replace the bits taken up by the boolean, and then write\r\n    // back. This is the compiler's defense against contract upgrades and\r\n    // pointer aliasing, and it cannot be disabled.\r\n\r\n    // The values being non-zero value makes deployment a bit more expensive,\r\n    // but in exchange the refund on every call to nonReentrant will be lower in\r\n    // amount. Since refunds are capped to a percentage of the total\r\n    // transaction's gas, it is best to keep them low in cases like this one, to\r\n    // increase the likelihood of the full refund coming into effect.\r\n    uint256 private constant _NOT_ENTERED = 1;\r\n    uint256 private constant _ENTERED = 2;\r\n\r\n    uint256 private _status;\r\n\r\n    constructor () internal {\r\n        _status = _NOT_ENTERED;\r\n    }\r\n\r\n    /**\r\n     * @dev Prevents a contract from calling itself, directly or indirectly.\r\n     * Calling a `nonReentrant` function from another `nonReentrant`\r\n     * function is not supported. It is possible to prevent this from happening\r\n     * by making the `nonReentrant` function external, and make it call a\r\n     * `private` function that does the actual work.\r\n     */\r\n    modifier nonReentrant() {\r\n        // On the first call to nonReentrant, _notEntered will be true\r\n        require(_status != _ENTERED, \"ReentrancyGuard: reentrant call\");\r\n\r\n        // Any calls to nonReentrant after this point will fail\r\n        _status = _ENTERED;\r\n\r\n        _;\r\n\r\n        // By storing the original value once again, a refund is triggered (see\r\n        // https://eips.ethereum.org/EIPS/eip-2200)\r\n        _status = _NOT_ENTERED;\r\n    }\r\n}\r\n\r\n\r\n// File @openzeppelin/contracts-upgradeable/utils/AddressUpgradeable.sol@v3.4.1\r\n\r\n\r\n\r\npragma solidity >=0.6.2 <=0.8.16;\r\n\r\n/**\r\n * @dev Collection of functions related to the address type\r\n */\r\nlibrary AddressUpgradeable {\r\n    /**\r\n     * @dev Returns true if `account` is a contract.\r\n     *\r\n     * [IMPORTANT]\r\n     * ====\r\n     * It is unsafe to assume that an address for which this function returns\r\n     * false is an externally-owned account (EOA) and not a contract.\r\n     *\r\n     * Among others, `isContract` will return false for the following\r\n     * types of addresses:\r\n     *\r\n     *  - an externally-owned account\r\n     *  - a contract in construction\r\n     *  - an address where a contract will be created\r\n     *  - an address where a contract lived, but was destroyed\r\n     * ====\r\n     */\r\n    function isContract(address account) internal view returns (bool) {\r\n        // This method relies on extcodesize, which returns 0 for contracts in\r\n        // construction, since the code is only stored at the end of the\r\n        // constructor execution.\r\n\r\n        uint256 size;\r\n        // solhint-disable-next-line no-inline-assembly\r\n        assembly { size := extcodesize(account) }\r\n        return size > 0;\r\n    }\r\n\r\n    /**\r\n     * @dev Replacement for Solidity's `transfer`: sends `amount` wei to\r\n     * `recipient`, forwarding all available gas and reverting on errors.\r\n     *\r\n     * https://eips.ethereum.org/EIPS/eip-1884[EIP1884] increases the gas cost\r\n     * of certain opcodes, possibly making contracts go over the 2300 gas limit\r\n     * imposed by `transfer`, making them unable to receive funds via\r\n     * `transfer`. {sendValue} removes this limitation.\r\n     *\r\n     * https://diligence.consensys.net/posts/2019/09/stop-using-soliditys-transfer-now/[Learn more].\r\n     *\r\n     * IMPORTANT: because control is transferred to `recipient`, care must be\r\n     * taken to not create reentrancy vulnerabilities. Consider using\r\n     * {ReentrancyGuard} or the\r\n     * https://solidity.readthedocs.io/en/v0.5.11/security-considerations.html#use-the-checks-effects-interactions-pattern[checks-effects-interactions pattern].\r\n     */\r\n    function sendValue(address payable recipient, uint256 amount) internal {\r\n        require(address(this).balance >= amount, \"Address: insufficient balance\");\r\n\r\n        // solhint-disable-next-line avoid-low-level-calls, avoid-call-value\r\n        (bool success, ) = recipient.call{ value: amount }(\"\");\r\n        require(success, \"Address: unable to send value, recipient may have reverted\");\r\n    }\r\n\r\n    /**\r\n     * @dev Performs a Solidity function call using a low level `call`. A\r\n     * plain`call` is an unsafe replacement for a function call: use this\r\n     * function instead.\r\n     *\r\n     * If `target` reverts with a revert reason, it is bubbled up by this\r\n     * function (like regular Solidity function calls).\r\n     *\r\n     * Returns the raw returned data. To convert to the expected return value,\r\n     * use https://solidity.readthedocs.io/en/latest/units-and-global-variables.html?highlight=abi.decode#abi-encoding-and-decoding-functions[`abi.decode`].\r\n     *\r\n     * Requirements:\r\n     *\r\n     * - `target` must be a contract.\r\n     * - calling `target` with `data` must not revert.\r\n     *\r\n     * _Available since v3.1._\r\n     */\r\n    function functionCall(address target, bytes memory data) internal returns (bytes memory) {\r\n      return functionCall(target, data, \"Address: low-level call failed\");\r\n    }\r\n\r\n    /**\r\n     * @dev Same as {xref-Address-functionCall-address-bytes-}[`functionCall`], but with\r\n     * `errorMessage` as a fallback revert reason when `target` reverts.\r\n     *\r\n     * _Available since v3.1._\r\n     */\r\n    function functionCall(address target, bytes memory data, string memory errorMessage) internal returns (bytes memory) {\r\n        return functionCallWithValue(target, data, 0, errorMessage);\r\n    }\r\n\r\n    /**\r\n     * @dev Same as {xref-Address-functionCall-address-bytes-}[`functionCall`],\r\n     * but also transferring `value` wei to `target`.\r\n     *\r\n     * Requirements:\r\n     *\r\n     * - the calling contract must have an ETH balance of at least `value`.\r\n     * - the called Solidity function must be `payable`.\r\n     *\r\n     * _Available since v3.1._\r\n     */\r\n    function functionCallWithValue(address target, bytes memory data, uint256 value) internal returns (bytes memory) {\r\n        return functionCallWithValue(target, data, value, \"Address: low-level call with value failed\");\r\n    }\r\n\r\n    /**\r\n     * @dev Same as {xref-Address-functionCallWithValue-address-bytes-uint256-}[`functionCallWithValue`], but\r\n     * with `errorMessage` as a fallback revert reason when `target` reverts.\r\n     *\r\n     * _Available since v3.1._\r\n     */\r\n    function functionCallWithValue(address target, bytes memory data, uint256 value, string memory errorMessage) internal returns (bytes memory) {\r\n        require(address(this).balance >= value, \"Address: insufficient balance for call\");\r\n        require(isContract(target), \"Address: call to non-contract\");\r\n\r\n        // solhint-disable-next-line avoid-low-level-calls\r\n        (bool success, bytes memory returndata) = target.call{ value: value }(data);\r\n        return _verifyCallResult(success, returndata, errorMessage);\r\n    }\r\n\r\n    /**\r\n     * @dev Same as {xref-Address-functionCall-address-bytes-}[`functionCall`],\r\n     * but performing a static call.\r\n     *\r\n     * _Available since v3.3._\r\n     */\r\n    function functionStaticCall(address target, bytes memory data) internal view returns (bytes memory) {\r\n        return functionStaticCall(target, data, \"Address: low-level static call failed\");\r\n    }\r\n\r\n    /**\r\n     * @dev Same as {xref-Address-functionCall-address-bytes-string-}[`functionCall`],\r\n     * but performing a static call.\r\n     *\r\n     * _Available since v3.3._\r\n     */\r\n    function functionStaticCall(address target, bytes memory data, string memory errorMessage) internal view returns (bytes memory) {\r\n        require(isContract(target), \"Address: static call to non-contract\");\r\n\r\n        // solhint-disable-next-line avoid-low-level-calls\r\n        (bool success, bytes memory returndata) = target.staticcall(data);\r\n        return _verifyCallResult(success, returndata, errorMessage);\r\n    }\r\n\r\n    function _verifyCallResult(bool success, bytes memory returndata, string memory errorMessage) private pure returns(bytes memory) {\r\n        if (success) {\r\n            return returndata;\r\n        } else {\r\n            // Look for revert reason and bubble it up if present\r\n            if (returndata.length > 0) {\r\n                // The easiest way to bubble the revert reason is using memory via assembly\r\n\r\n                // solhint-disable-next-line no-inline-assembly\r\n                assembly {\r\n                    let returndata_size := mload(returndata)\r\n                    revert(add(32, returndata), returndata_size)\r\n                }\r\n            } else {\r\n                revert(errorMessage);\r\n            }\r\n        }\r\n    }\r\n}\r\n\r\n\r\n// File @openzeppelin/contracts-upgradeable/proxy/Initializable.sol@v3.4.1\r\n\r\n\r\n\r\n// solhint-disable-next-line compiler-version\r\npragma solidity >=0.4.24 <=0.8.16;\r\n\r\n/**\r\n * @dev This is a base contract to aid in writing upgradeable contracts, or any kind of contract that will be deployed\r\n * behind a proxy. Since a proxied contract can't have a constructor, it's common to move constructor logic to an\r\n * external initializer function, usually called `initialize`. It then becomes necessary to protect this initializer\r\n * function so it can only be called once. The {initializer} modifier provided by this contract will have this effect.\r\n *\r\n * TIP: To avoid leaving the proxy in an uninitialized state, the initializer function should be called as early as\r\n * possible by providing the encoded function call as the `_data` argument to {UpgradeableProxy-constructor}.\r\n *\r\n * CAUTION: When used with inheritance, manual care must be taken to not invoke a parent initializer twice, or to ensure\r\n * that all initializers are idempotent. This is not verified automatically as constructors are by Solidity.\r\n */\r\nabstract contract Initializable {\r\n\r\n    /**\r\n     * @dev Indicates that the contract has been initialized.\r\n     */\r\n    bool private _initialized;\r\n\r\n    /**\r\n     * @dev Indicates that the contract is in the process of being initialized.\r\n     */\r\n    bool private _initializing;\r\n\r\n    /**\r\n     * @dev Modifier to protect an initializer function from being invoked twice.\r\n     */\r\n    modifier initializer() {\r\n        require(_initializing || _isConstructor() || !_initialized, \"Initializable: contract is already initialized\");\r\n\r\n        bool isTopLevelCall = !_initializing;\r\n        if (isTopLevelCall) {\r\n            _initializing = true;\r\n            _initialized = true;\r\n        }\r\n\r\n        _;\r\n\r\n        if (isTopLevelCall) {\r\n            _initializing = false;\r\n        }\r\n    }\r\n\r\n    /// @dev Returns true if and only if the function is running in the constructor\r\n    function _isConstructor() private view returns (bool) {\r\n        return !AddressUpgradeable.isContract(address(this));\r\n    }\r\n}\r\n\r\n\r\n// File @openzeppelin/contracts-upgradeable/utils/ContextUpgradeable.sol@v3.4.1\r\n\r\n\r\n\r\npragma solidity >=0.6.0 <=0.8.16;\r\n\r\n/*\r\n * @dev Provides information about the current execution context, including the\r\n * sender of the transaction and its data. While these are generally available\r\n * via msg.sender and msg.data, they should not be accessed in such a direct\r\n * manner, since when dealing with GSN meta-transactions the account sending and\r\n * paying for execution may not be the actual sender (as far as an application\r\n * is concerned).\r\n *\r\n * This contract is only required for intermediate, library-like contracts.\r\n */\r\nabstract contract ContextUpgradeable is Initializable {\r\n    function __Context_init() internal initializer {\r\n        __Context_init_unchained();\r\n    }\r\n\r\n    function __Context_init_unchained() internal initializer {\r\n    }\r\n    function _msgSender() internal view virtual returns (address payable) {\r\n        return payable(msg.sender);\r\n    }\r\n\r\n    function _msgData() internal view virtual returns (bytes memory) {\r\n        this; // silence state mutability warning without generating bytecode - see https://github.com/ethereum/solidity/issues/2691\r\n        return msg.data;\r\n    }\r\n    uint256[50] private __gap;\r\n}\r\n\r\n\r\n// File @openzeppelin/contracts-upgradeable/access/OwnableUpgradeable.sol@v3.4.1\r\n\r\n\r\n\r\npragma solidity >=0.6.0 <=0.8.16;\r\n\r\n\r\n/**\r\n * @dev Contract module which provides a basic access control mechanism, where\r\n * there is an account (an owner) that can be granted exclusive access to\r\n * specific functions.\r\n *\r\n * By default, the owner account will be the one that deploys the contract. This\r\n * can later be changed with {transferOwnership}.\r\n *\r\n * This module is used through inheritance. It will make available the modifier\r\n * `onlyOwner`, which can be applied to your functions to restrict their use to\r\n * the owner.\r\n */\r\nabstract contract OwnableUpgradeable is Initializable, ContextUpgradeable {\r\n    address private _owner;\r\n\r\n    event OwnershipTransferred(address indexed previousOwner, address indexed newOwner);\r\n\r\n    /**\r\n     * @dev Initializes the contract setting the deployer as the initial owner.\r\n     */\r\n    function __Ownable_init() internal initializer {\r\n        __Context_init_unchained();\r\n        __Ownable_init_unchained();\r\n    }\r\n\r\n    function __Ownable_init_unchained() internal initializer {\r\n        address msgSender = _msgSender();\r\n        _owner = msgSender;\r\n        emit OwnershipTransferred(address(0), msgSender);\r\n    }\r\n\r\n    /**\r\n     * @dev Returns the address of the current owner.\r\n     */\r\n    function owner() public view virtual returns (address) {\r\n        return _owner;\r\n    }\r\n\r\n    /**\r\n     * @dev Throws if called by any account other than the owner.\r\n     */\r\n    modifier onlyOwner() {\r\n        require(owner() == _msgSender(), \"Ownable: caller is not the owner\");\r\n        _;\r\n    }\r\n\r\n    /**\r\n     * @dev Leaves the contract without owner. It will not be possible to call\r\n     * `onlyOwner` functions anymore. Can only be called by the current owner.\r\n     *\r\n     * NOTE: Renouncing ownership will leave the contract without an owner,\r\n     * thereby removing any functionality that is only available to the owner.\r\n     */\r\n    function renounceOwnership() public virtual onlyOwner {\r\n        emit OwnershipTransferred(_owner, address(0));\r\n        _owner = address(0);\r\n    }\r\n\r\n    /**\r\n     * @dev Transfers ownership of the contract to a new account (`newOwner`).\r\n     * Can only be called by the current owner.\r\n     */\r\n    function transferOwnership(address newOwner) public virtual onlyOwner {\r\n        require(newOwner != address(0), \"Ownable: new owner is the zero address\");\r\n        emit OwnershipTransferred(_owner, newOwner);\r\n        _owner = newOwner;\r\n    }\r\n    uint256[49] private __gap;\r\n}\r\n\r\n\r\n// File contracts/library/WhitelistUpgradeable.sol\r\n\r\n\r\npragma solidity >=0.6.12 <=0.8.16;\r\n\r\ncontract WhitelistUpgradeable is OwnableUpgradeable {\r\n    mapping (address => bool) private _whitelist;\r\n    bool private _disable;                      // default - false means whitelist feature is working on. if true no more use of whitelist\r\n\r\n    event Whitelisted(address indexed _address, bool whitelist);\r\n    event EnableWhitelist();\r\n    event DisableWhitelist();\r\n\r\n    modifier onlyWhitelisted {\r\n        require(_disable || _whitelist[msg.sender], \"Whitelist: caller is not on the whitelist\");\r\n        _;\r\n    }\r\n\r\n    function __WhitelistUpgradeable_init() internal initializer {\r\n        __Ownable_init();\r\n    }\r\n\r\n    function isWhitelist(address _address) public view returns(bool) {\r\n        return _whitelist[_address];\r\n    }\r\n\r\n    function setWhitelist(address _address, bool _on) external onlyOwner {\r\n        _whitelist[_address] = _on;\r\n\r\n        emit Whitelisted(_address, _on);\r\n    }\r\n\r\n    function disableWhitelist(bool disable) external onlyOwner {\r\n        _disable = disable;\r\n        if (disable) {\r\n            emit DisableWhitelist();\r\n        } else {\r\n            emit EnableWhitelist();\r\n        }\r\n    }\r\n\r\n    uint256[49] private __gap;\r\n}\r\n\r\n\r\n// File contracts/ProxyMeerkat.sol\r\n\r\n\r\npragma solidity >=0.6.12 <=0.8.16;\r\n\r\n\r\n\r\ncontract ProxyMeerkat is OwnableUpgradeable, WhitelistUpgradeable {\r\n    using SafeBEP20 for IBEP20;\r\n\r\n    IBEP20 private constant MMF = IBEP20(0x97749c9B61F878a880DfE312d2594AE07AEd7656);\r\n\r\n    function initialize() external initializer {\r\n        __Ownable_init();\r\n    }\r\n\r\n    function safeMeerkatTransfer(address to, uint256 amount) external onlyWhitelisted returns (uint256) {\r\n        uint256 meerkatBal = MMF.balanceOf(address(this));\r\n        if (amount > meerkatBal) {\r\n            MMF.transfer(to, meerkatBal);\r\n            return meerkatBal;\r\n        } else {\r\n            MMF.transfer(to, amount);\r\n            return amount;\r\n        }\r\n    }\r\n\r\n    // Owner can drain tokens that are sent here by mistake\r\n    function drainBEP20Token(IBEP20 _token, uint256 _amount, address _to) external onlyOwner {\r\n        require(address(_token) != address(MMF));\r\n        _token.safeTransfer(_to, _amount);\r\n    }\r\n}\r\n\r\n\r\n// File contracts/library/Whitelist.sol\r\n\r\n\r\npragma solidity >=0.6.12 <=0.8.16;\r\n\r\ncontract Whitelist is Ownable {\r\n    mapping(address => bool) private _whitelist;\r\n    bool private _disable;                      // default - false means whitelist feature is working on. if true no more use of whitelist\r\n\r\n    event Whitelisted(address indexed _address, bool whitelist);\r\n    event EnableWhitelist();\r\n    event DisableWhitelist();\r\n\r\n    modifier onlyWhitelisted {\r\n        require(_disable || _whitelist[msg.sender], \"Whitelist: caller is not on the whitelist\");\r\n        _;\r\n    }\r\n\r\n    function isWhitelist(address _address) public view returns (bool) {\r\n        return _whitelist[_address];\r\n    }\r\n\r\n    function setWhitelist(address _address, bool _on) external onlyOwner {\r\n        _whitelist[_address] = _on;\r\n\r\n        emit Whitelisted(_address, _on);\r\n    }\r\n\r\n    function disableWhitelist(bool disable) external onlyOwner {\r\n        _disable = disable;\r\n        if (disable) {\r\n            emit DisableWhitelist();\r\n        } else {\r\n            emit EnableWhitelist();\r\n        }\r\n    }\r\n}\r\n\r\n\r\n// File contracts/interfaces/IMeerkatReferral.sol\r\npragma solidity >=0.6.12 <=0.8.16;\r\n\r\ninterface IMeerkatReferral {\r\n    /**\r\n     * @dev Record referral.\r\n     */\r\n    function recordReferral(address user, address referrer) external;\r\n\r\n    /**\r\n     * @dev Record referral commission.\r\n     */\r\n    function recordReferralCommission(address referrer, uint256 commission) external;\r\n\r\n    /**\r\n     * @dev Get the referrer address that referred the user.\r\n     */\r\n    function getReferrer(address user) external view returns (address);\r\n}\r\n\r\n\r\n// File contracts/interfaces/IERC721.sol\r\n\r\npragma solidity >=0.6.12 <=0.8.16;\r\n\r\n/// @title ERC-721 Non-Fungible Token Standard\r\n/// @dev See https://eips.ethereum.org/EIPS/eip-721\r\n///  Note: the ERC-165 identifier for this interface is 0x80ac58cd.\r\ninterface ERC721 /* is ERC165 */ {\r\n    /// @dev This emits when ownership of any NFT changes by any mechanism.\r\n    ///  This event emits when NFTs are created (`from` == 0) and destroyed\r\n    ///  (`to` == 0). Exception: during contract creation, any number of NFTs\r\n    ///  may be created and assigned without emitting Transfer. At the time of\r\n    ///  any transfer, the approved address for that NFT (if any) is reset to none.\r\n    event Transfer(address indexed _from, address indexed _to, uint256 indexed _tokenId);\r\n\r\n    /// @dev This emits when the approved address for an NFT is changed or\r\n    ///  reaffirmed. The zero address indicates there is no approved address.\r\n    ///  When a Transfer event emits, this also indicates that the approved\r\n    ///  address for that NFT (if any) is reset to none.\r\n    event Approval(address indexed _owner, address indexed _approved, uint256 indexed _tokenId);\r\n\r\n    /// @dev This emits when an operator is enabled or disabled for an owner.\r\n    ///  The operator can manage all NFTs of the owner.\r\n    event ApprovalForAll(address indexed _owner, address indexed _operator, bool _approved);\r\n\r\n    /// @notice Count all NFTs assigned to an owner\r\n    /// @dev NFTs assigned to the zero address are considered invalid, and this\r\n    ///  function throws for queries about the zero address.\r\n    /// @param _owner An address for whom to query the balance\r\n    /// @return The number of NFTs owned by `_owner`, possibly zero\r\n    function balanceOf(address _owner) external view returns (uint256);\r\n\r\n    /// @notice Find the owner of an NFT\r\n    /// @dev NFTs assigned to zero address are considered invalid, and queries\r\n    ///  about them do throw.\r\n    /// @param _tokenId The identifier for an NFT\r\n    /// @return The address of the owner of the NFT\r\n    function ownerOf(uint256 _tokenId) external view returns (address);\r\n\r\n    /// @notice Transfers the ownership of an NFT from one address to another address\r\n    /// @dev Throws unless `msg.sender` is the current owner, an authorized\r\n    ///  operator, or the approved address for this NFT. Throws if `_from` is\r\n    ///  not the current owner. Throws if `_to` is the zero address. Throws if\r\n    ///  `_tokenId` is not a valid NFT. When transfer is complete, this function\r\n    ///  checks if `_to` is a smart contract (code size > 0). If so, it calls\r\n    ///  `onERC721Received` on `_to` and throws if the return value is not\r\n    ///  `bytes4(keccak256(\"onERC721Received(address,address,uint256,bytes)\"))`.\r\n    /// @param _from The current owner of the NFT\r\n    /// @param _to The new owner\r\n    /// @param _tokenId The NFT to transfer\r\n    /// @param data Additional data with no specified format, sent in call to `_to`\r\n    function safeTransferFrom(address _from, address _to, uint256 _tokenId, bytes memory data) external payable;\r\n\r\n    /// @notice Transfers the ownership of an NFT from one address to another address\r\n    /// @dev This works identically to the other function with an extra data parameter,\r\n    ///  except this function just sets data to \"\".\r\n    /// @param _from The current owner of the NFT\r\n    /// @param _to The new owner\r\n    /// @param _tokenId The NFT to transfer\r\n    function safeTransferFrom(address _from, address _to, uint256 _tokenId) external payable;\r\n\r\n    /// @notice Transfer ownership of an NFT -- THE CALLER IS RESPONSIBLE\r\n    ///  TO CONFIRM THAT `_to` IS CAPABLE OF RECEIVING NFTS OR ELSE\r\n    ///  THEY MAY BE PERMANENTLY LOST\r\n    /// @dev Throws unless `msg.sender` is the current owner, an authorized\r\n    ///  operator, or the approved address for this NFT. Throws if `_from` is\r\n    ///  not the current owner. Throws if `_to` is the zero address. Throws if\r\n    ///  `_tokenId` is not a valid NFT.\r\n    /// @param _from The current owner of the NFT\r\n    /// @param _to The new owner\r\n    /// @param _tokenId The NFT to transfer\r\n    function transferFrom(address _from, address _to, uint256 _tokenId) external payable;\r\n\r\n    /// @notice Change or reaffirm the approved address for an NFT\r\n    /// @dev The zero address indicates there is no approved address.\r\n    ///  Throws unless `msg.sender` is the current NFT owner, or an authorized\r\n    ///  operator of the current owner.\r\n    /// @param _approved The new approved NFT controller\r\n    /// @param _tokenId The NFT to approve\r\n    function approve(address _approved, uint256 _tokenId) external payable;\r\n\r\n    /// @notice Enable or disable approval for a third party (\"operator\") to manage\r\n    ///  all of `msg.sender`'s assets\r\n    /// @dev Emits the ApprovalForAll event. The contract MUST allow\r\n    ///  multiple operators per owner.\r\n    /// @param _operator Address to add to the set of authorized operators\r\n    /// @param _approved True if the operator is approved, false to revoke approval\r\n    function setApprovalForAll(address _operator, bool _approved) external;\r\n\r\n    /// @notice Get the approved address for a single NFT\r\n    /// @dev Throws if `_tokenId` is not a valid NFT.\r\n    /// @param _tokenId The NFT to find the approved address for\r\n    /// @return The approved address for this NFT, or the zero address if there is none\r\n    function getApproved(uint256 _tokenId) external view returns (address);\r\n\r\n    /// @notice Query if an address is an authorized operator for another address\r\n    /// @param _owner The address that owns the NFTs\r\n    /// @param _operator The address that acts on behalf of the owner\r\n    /// @return True if `_operator` is an approved operator for `_owner`, false otherwise\r\n    function isApprovedForAll(address _owner, address _operator) external view returns (bool);\r\n\r\n    function tokenURI(uint256 _tokenId) external view returns (string memory);\r\n\r\n    /// @notice Count NFTs tracked by this contract\r\n    /// @return A count of valid NFTs tracked by this contract, where each one of\r\n    ///  them has an assigned and queryable owner not equal to the zero address\r\n    function totalSupply() external view returns (uint256);\r\n\r\n    /// @notice Enumerate valid NFTs\r\n    /// @dev Throws if `_index` >= `totalSupply()`.\r\n    /// @param _index A counter less than `totalSupply()`\r\n    /// @return The token identifier for the `_index`th NFT,\r\n    ///  (sort order not specified)\r\n    function tokenByIndex(uint256 _index) external view returns (uint256);\r\n\r\n    /// @notice Enumerate NFTs assigned to an owner\r\n    /// @dev Throws if `_index` >= `balanceOf(_owner)` or if\r\n    ///  `_owner` is the zero address, representing invalid NFTs.\r\n    /// @param _owner An address where we are interested in NFTs owned by them\r\n    /// @param _index A counter less than `balanceOf(_owner)`\r\n    /// @return The token identifier for the `_index`th NFT assigned to `_owner`,\r\n    ///   (sort order not specified)\r\n    function tokenOfOwnerByIndex(address _owner, uint256 _index) external view returns (uint256);\r\n\r\n    function burn(uint256 tokenId) external;\r\n}\r\n\r\ninterface ERC165 {\r\n    /// @notice Query if a contract implements an interface\r\n    /// @param interfaceID The interface identifier, as specified in ERC-165\r\n    /// @dev Interface identification is specified in ERC-165. This function\r\n    ///  uses less than 30,000 gas.\r\n    /// @return `true` if the contract implements `interfaceID` and\r\n    ///  `interfaceID` is not 0xffffffff, `false` otherwise\r\n    function supportsInterface(bytes4 interfaceID) external view returns (bool);\r\n}\r\n\r\n\r\n// File contracts/MasterMeerkat.sol\r\n\r\n\r\n\r\npragma solidity >=0.6.12 <=0.8.16;\r\n\r\n\r\ninterface IMeerkatToken {\r\n    function mint(address _to, uint256 _amount) external returns (bool);\r\n    function balanceOf(address account) external view returns (uint256);\r\n    function transfer(address recipient, uint256 amount) external returns (bool);\r\n}\r\n\r\ninterface NFTController {\r\n    function getBoostRate(address token, uint tokenId) external view returns (uint boostRate);\r\n    function isWhitelistedNFT(address token) external view returns (bool);\r\n}\r\n\r\ncontract MasterMeerkat is Ownable, ReentrancyGuard, Whitelist {\r\n    using SafeMath for uint256;\r\n    using SafeBEP20 for IBEP20;\r\n\r\n    // Bonus muliplier for early meerkat makers.\r\n    uint256 public constant BONUS_MULTIPLIER = 1;\r\n\r\n    // Info of each user.\r\n    struct UserInfo {\r\n        uint256 amount;         // How many LP tokens the user has provided.\r\n        uint256 rewardDebt;     // Reward debt. See explanation below.\r\n    }\r\n\r\n    // Info of each pool.\r\n    struct PoolInfo {\r\n        IBEP20 lpToken;           // Address of LP token contract.\r\n        uint256 allocPoint;       // How many allocation points assigned to this pool. MMF to distribute per block.\r\n        uint256 lastRewardBlock;  // Last block number that MMF distribution occurs.\r\n        uint256 accMeerkatPerShare;   // Accumulated MMF per share, times 1e18. See below.\r\n    }\r\n\r\n    struct NFTSlot {\r\n        address slot1;\r\n        uint256 tokenId1;\r\n        address slot2;\r\n        uint256 tokenId2;\r\n        address slot3;\r\n        uint256 tokenId3;\r\n    }\r\n\r\n    // The MMF TOKEN!\r\n    IMeerkatToken public meerkat;\r\n    // MMF tokens created per block.\r\n    uint256 public meerkatPerBlock;\r\n\r\n    // Info of each pool.\r\n    PoolInfo[] public poolInfo;\r\n    // Info of each user that stakes LP tokens.\r\n    mapping(uint256 => mapping(address => UserInfo)) public userInfo;\r\n    // Total allocation points. Must be the sum of all allocation points in all pools.\r\n    uint256 public totalAllocPoint;\r\n    // The block number when MMF mining starts.\r\n    uint256 public startBlock;\r\n\r\n    mapping(IBEP20 => bool) public poolExistence;\r\n    mapping(address => mapping(uint256 => NFTSlot)) private _depositedNFT; // user => pid => nft slot;\r\n\r\n    bool public whitelistAll;\r\n    NFTController public controller = NFTController(address(0));\r\n    uint public nftBoostRate = 100;\r\n\r\n    // Meerkat referral contract address.\r\n    IMeerkatReferral public meerkatReferral;\r\n    // Referral commission rate in basis points.\r\n    uint16 public referralCommissionRate = 100; // 1%\r\n    // Max referral commission rate: 10%.\r\n    uint16 public constant MAXIMUM_REFERRAL_COMMISSION_RATE = 1000;\r\n    // Proxy to hold MMF\r\n    ProxyMeerkat public proxy = ProxyMeerkat(0xcAa8c10B81DDD462AFf6bA33aC8242255504B3Db);\r\n\r\n    event Deposit(address indexed user, uint256 indexed pid, uint256 amount);\r\n    event Withdraw(address indexed user, uint256 indexed pid, uint256 amount);\r\n    event EmergencyWithdraw(address indexed user, uint256 indexed pid, uint256 amount);\r\n    event UpdateEmissionRate(address indexed user, uint256 meerkatPerBlock);\r\n    event UpdateNFTController(address indexed user, address controller);\r\n    event UpdateNFTBoostRate(address indexed user, uint256 controller);\r\n    event ReferralCommissionPaid(address indexed user, address indexed referrer, uint256 commissionAmount);\r\n\r\n    constructor(\r\n        IMeerkatToken _meerkat,\r\n        uint256 _meerkatPerBlock,\r\n        uint256 _startBlock\r\n    ) public {\r\n        meerkat = _meerkat;\r\n        meerkatPerBlock = _meerkatPerBlock;\r\n        startBlock = _startBlock;\r\n        totalAllocPoint = 0;\r\n        whitelistAll = false;\r\n    }\r\n\r\n    /* ========== Modifiers ========== */\r\n\r\n    modifier nonDuplicated(IBEP20 _lpToken) {\r\n        require(poolExistence[_lpToken] == false, \"nonDuplicated: duplicated\");\r\n        _;\r\n    }\r\n\r\n    modifier nonContract() {\r\n        if (!isWhitelist(msg.sender) && !whitelistAll) {\r\n            require(tx.origin == msg.sender);\r\n        }\r\n        _;\r\n    }\r\n\r\n    /* ========== NFT View Functions ========== */\r\n\r\n    function getBoost(address _account, uint256 _pid) public view returns (uint256) {\r\n        if (address(controller) == address(0)) return 0;\r\n        NFTSlot memory slot = _depositedNFT[_account][_pid];\r\n        uint boost1 = controller.getBoostRate(slot.slot1, slot.tokenId1);\r\n        uint boost2 = controller.getBoostRate(slot.slot2, slot.tokenId2);\r\n        uint boost3 = controller.getBoostRate(slot.slot3, slot.tokenId3);\r\n        uint boost = boost1 + boost2 + boost3;\r\n        return boost.mul(nftBoostRate).div(100); // boosts from 0% onwards\r\n    }\r\n\r\n    function getSlots(address _account, uint256 _pid) public view returns (address, address, address) {\r\n        NFTSlot memory slot = _depositedNFT[_account][_pid];\r\n        return (slot.slot1, slot.slot2, slot.slot3);\r\n    }\r\n\r\n    function getTokenIds(address _account, uint256 _pid) public view returns (uint256, uint256, uint256) {\r\n        NFTSlot memory slot = _depositedNFT[_account][_pid];\r\n        return (slot.tokenId1, slot.tokenId2, slot.tokenId3);\r\n    }\r\n\r\n    /* ========== View Functions ========== */\r\n\r\n    function poolLength() external view returns (uint256) {\r\n        return poolInfo.length;\r\n    }\r\n\r\n    // Return reward multiplier over the given _from to _to block.\r\n    function getMultiplier(uint256 _from, uint256 _to) public pure returns (uint256) {\r\n        return _to.sub(_from).mul(BONUS_MULTIPLIER);\r\n    }\r\n\r\n    // View function to see pending MMF on frontend.\r\n    function pendingMeerkat(uint256 _pid, address _user) external view returns (uint256) {\r\n        PoolInfo storage pool = poolInfo[_pid];\r\n        UserInfo storage user = userInfo[_pid][_user];\r\n        uint256 accMeerkatPerShare = pool.accMeerkatPerShare;\r\n        uint256 lpSupply = pool.lpToken.balanceOf(address(this));\r\n        if (block.number > pool.lastRewardBlock && lpSupply != 0) {\r\n            uint256 multiplier = getMultiplier(pool.lastRewardBlock, block.number);\r\n            uint256 meerkatReward = multiplier.mul(meerkatPerBlock).mul(pool.allocPoint).div(totalAllocPoint);\r\n            accMeerkatPerShare = accMeerkatPerShare.add(meerkatReward.mul(1e18).div(lpSupply));\r\n        }\r\n        return user.amount.mul(accMeerkatPerShare).div(1e18).sub(user.rewardDebt);\r\n    }\r\n\r\n    /* ========== Owner Functions ========== */\r\n\r\n    // Add a new lp to the pool. Can only be called by the owner.\r\n    function add(uint256 _allocPoint, IBEP20 _lpToken, bool _withUpdate) public onlyOwner nonDuplicated(_lpToken) {\r\n        if (_withUpdate) {\r\n            massUpdatePools();\r\n        }\r\n        uint256 lastRewardBlock = block.number > startBlock ? block.number : startBlock;\r\n        totalAllocPoint = totalAllocPoint.add(_allocPoint);\r\n        poolExistence[_lpToken] = true;\r\n        poolInfo.push(PoolInfo({\r\n            lpToken : _lpToken,\r\n            allocPoint : _allocPoint,\r\n            lastRewardBlock : lastRewardBlock,\r\n            accMeerkatPerShare : 0\r\n        }));\r\n    }\r\n\r\n    // Update the given pool's MMF allocation point and deposit fee. Can only be called by the owner.\r\n    function set(uint256 _pid, uint256 _allocPoint, bool _withUpdate) public onlyOwner {\r\n        if (_withUpdate) {\r\n            massUpdatePools();\r\n        }\r\n        totalAllocPoint = totalAllocPoint.sub(poolInfo[_pid].allocPoint).add(_allocPoint);\r\n        poolInfo[_pid].allocPoint = _allocPoint;\r\n    }\r\n\r\n    /* ========== NFT External Functions ========== */\r\n\r\n    // Depositing of NFTs\r\n    function depositNFT(address _nft, uint256 _tokenId, uint256 _slot, uint256 _pid) public nonContract {\r\n        require(controller.isWhitelistedNFT(_nft), \"only approved NFTs\");\r\n        require(ERC721(_nft).balanceOf(msg.sender) > 0, \"user does not have specified NFT\");\r\n        UserInfo storage user = userInfo[_pid][msg.sender];\r\n        require(user.amount == 0, \"not allowed to deposit\");\r\n        \r\n        ERC721(_nft).transferFrom(msg.sender, address(this), _tokenId);\r\n        \r\n        NFTSlot memory slot = _depositedNFT[msg.sender][_pid];\r\n\r\n        if (_slot == 1) slot.slot1 = _nft;\r\n        else if (_slot == 2) slot.slot2 = _nft;\r\n        else if (_slot == 3) slot.slot3 = _nft;\r\n        \r\n        if (_slot == 1) slot.tokenId1 = _tokenId;\r\n        else if (_slot == 2) slot.tokenId2 = _tokenId;\r\n        else if (_slot == 3) slot.tokenId3 = _tokenId;\r\n\r\n        _depositedNFT[msg.sender][_pid] = slot;\r\n    }\r\n\r\n    // Withdrawing of NFTs\r\n    function withdrawNFT(uint256 _slot, uint256 _pid) public nonContract {\r\n        address _nft;\r\n        uint256 _tokenId;\r\n        \r\n        NFTSlot memory slot = _depositedNFT[msg.sender][_pid];\r\n\r\n        if (_slot == 1) _nft = slot.slot1;\r\n        else if (_slot == 2) _nft = slot.slot2;\r\n        else if (_slot == 3) _nft = slot.slot3;\r\n        \r\n        if (_slot == 1) _tokenId = slot.tokenId1;\r\n        else if (_slot == 2) _tokenId = slot.tokenId2;\r\n        else if (_slot == 3) _tokenId = slot.tokenId3;\r\n\r\n        if (_slot == 1) slot.slot1 = address(0);\r\n        else if (_slot == 2) slot.slot2 = address(0);\r\n        else if (_slot == 3) slot.slot3 = address(0);\r\n        \r\n        if (_slot == 1) slot.tokenId1 = uint(0);\r\n        else if (_slot == 2) slot.tokenId2 = uint(0);\r\n        else if (_slot == 3) slot.tokenId3 = uint(0);\r\n\r\n        _depositedNFT[msg.sender][_pid] = slot;\r\n        \r\n        ERC721(_nft).transferFrom(address(this), msg.sender, _tokenId);\r\n    }\r\n\r\n    /* ========== External Functions ========== */\r\n\r\n    // Update reward variables for all pools. Be careful of gas spending!\r\n    function massUpdatePools() public {\r\n        uint256 length = poolInfo.length;\r\n        for (uint256 pid = 0; pid < length; ++pid) {\r\n            updatePool(pid);\r\n        }\r\n    }\r\n\r\n    // Update reward variables of the given pool to be up-to-date.\r\n    function updatePool(uint256 _pid) public {\r\n        PoolInfo storage pool = poolInfo[_pid];\r\n        if (block.number <= pool.lastRewardBlock) {\r\n            return;\r\n        }\r\n        uint256 lpSupply = pool.lpToken.balanceOf(address(this));\r\n        if (lpSupply == 0 || pool.allocPoint == 0) {\r\n            pool.lastRewardBlock = block.number;\r\n            return;\r\n        }\r\n        uint256 multiplier = getMultiplier(pool.lastRewardBlock, block.number);\r\n        uint256 meerkatReward = multiplier.mul(meerkatPerBlock).mul(pool.allocPoint).div(totalAllocPoint);\r\n        meerkat.mint(address(proxy), meerkatReward);\r\n\r\n        pool.accMeerkatPerShare = pool.accMeerkatPerShare.add(meerkatReward.mul(1e18).div(lpSupply));\r\n        pool.lastRewardBlock = block.number;\r\n    }\r\n\r\n    // Deposit LP tokens to MasterChef for MMF allocation.\r\n    function deposit(uint256 _pid, uint256 _amount, address _referrer) public nonReentrant nonContract {\r\n        PoolInfo storage pool = poolInfo[_pid];\r\n        UserInfo storage user = userInfo[_pid][msg.sender];\r\n        updatePool(_pid);\r\n        if (_amount > 0 && address(meerkatReferral) != address(0) && _referrer != address(0) && _referrer != msg.sender) {\r\n            meerkatReferral.recordReferral(msg.sender, _referrer);\r\n        }\r\n        if (user.amount > 0) {\r\n            uint256 pending = user.amount.mul(pool.accMeerkatPerShare).div(1e18).sub(user.rewardDebt);\r\n            if (pending > 0) {\r\n                safeMeerkatTransfer(msg.sender, pending, _pid);\r\n            }\r\n        }\r\n        if (_amount > 0) {\r\n            pool.lpToken.safeTransferFrom(address(msg.sender), address(this), _amount);\r\n            user.amount = user.amount.add(_amount);\r\n        }\r\n        user.rewardDebt = user.amount.mul(pool.accMeerkatPerShare).div(1e18);\r\n        emit Deposit(msg.sender, _pid, _amount);\r\n    }\r\n\r\n    // Withdraw LP tokens from MasterChef.\r\n    function withdraw(uint256 _pid, uint256 _amount) public nonReentrant nonContract {\r\n        PoolInfo storage pool = poolInfo[_pid];\r\n        UserInfo storage user = userInfo[_pid][msg.sender];\r\n        require(user.amount >= _amount, \"withdraw: not good\");\r\n        updatePool(_pid);\r\n        uint256 pending = user.amount.mul(pool.accMeerkatPerShare).div(1e18).sub(user.rewardDebt);\r\n        if (pending > 0) {\r\n            safeMeerkatTransfer(msg.sender, pending, _pid);\r\n        }\r\n        if (_amount > 0) {\r\n            user.amount = user.amount.sub(_amount);\r\n            pool.lpToken.safeTransfer(address(msg.sender), _amount);\r\n        }\r\n        user.rewardDebt = user.amount.mul(pool.accMeerkatPerShare).div(1e18);\r\n        emit Withdraw(msg.sender, _pid, _amount);\r\n    }\r\n\r\n    // Withdraw without caring about rewards. EMERGENCY ONLY.\r\n    function emergencyWithdraw(uint256 _pid) public nonReentrant {\r\n        PoolInfo storage pool = poolInfo[_pid];\r\n        UserInfo storage user = userInfo[_pid][msg.sender];\r\n        uint256 amount = user.amount;\r\n        user.amount = 0;\r\n        user.rewardDebt = 0;\r\n        pool.lpToken.safeTransfer(address(msg.sender), amount);\r\n        emit EmergencyWithdraw(msg.sender, _pid, amount);\r\n    }\r\n\r\n    // Safe MMF transfer function, just in case if rounding error causes pool to not have enough MMF.\r\n    function safeMeerkatTransfer(address _to, uint256 _amount, uint256 _pid) internal {\r\n        uint256 boost = 0;\r\n        proxy.safeMeerkatTransfer(_to, _amount);\r\n        boost = getBoost(_to, _pid).mul(_amount).div(100);\r\n        payReferralCommission(msg.sender, _amount);\r\n        if (boost > 0) meerkat.mint(_to, boost);\r\n    }\r\n\r\n    /* ========== Set Variable Functions ========== */\r\n\r\n    function updateEmissionRate(uint256 _meerkatPerBlock) public onlyOwner {\r\n        massUpdatePools();\r\n        meerkatPerBlock = _meerkatPerBlock;\r\n        emit UpdateEmissionRate(msg.sender, _meerkatPerBlock);\r\n    }\r\n\r\n    function setNftController(address _controller) public onlyOwner {\r\n        controller = NFTController(_controller);\r\n        emit UpdateNFTController(msg.sender, _controller);\r\n    }\r\n\r\n    function setNftBoostRate(uint256 _rate) public onlyOwner {\r\n        require(_rate > 50 && _rate < 500, \"boost must be within range\");\r\n        nftBoostRate = _rate;\r\n        emit UpdateNFTBoostRate(msg.sender, _rate);\r\n    }\r\n\r\n    function setMeerkatReferral(IMeerkatReferral _meerkatReferral) public onlyOwner {\r\n        meerkatReferral = _meerkatReferral;\r\n    }\r\n    \r\n    function flipWhitelistAll() public onlyOwner {\r\n        whitelistAll = !whitelistAll;\r\n    }\r\n\r\n    function setReferralCommissionRate(uint16 _referralCommissionRate) public onlyOwner {\r\n        require(_referralCommissionRate <= MAXIMUM_REFERRAL_COMMISSION_RATE, \"setReferralCommissionRate: invalid referral commission rate basis points\");\r\n        referralCommissionRate = _referralCommissionRate;\r\n    }\r\n\r\n    /* ========== Internal Functions ========== */\r\n\r\n    // Pay referral commission to the referrer who referred this user\r\n    function payReferralCommission(address _user, uint256 _pending) internal {\r\n        if (address(meerkatReferral) != address(0) && referralCommissionRate > 0) {\r\n            address referrer = meerkatReferral.getReferrer(_user);\r\n            uint256 commissionAmount = _pending.mul(referralCommissionRate).div(10000);\r\n\r\n            if (referrer != address(0) && commissionAmount > 0) {\r\n                meerkat.mint(referrer, commissionAmount);\r\n                meerkatReferral.recordReferralCommission(referrer, commissionAmount);\r\n                emit ReferralCommissionPaid(_user, referrer, commissionAmount);\r\n            }\r\n        }\r\n    }\r\n}\r\n",
  "sourcePath": "D:\\Web dev\\game_vault\\contracts\\MasterMeerkat.sol",
  "compiler": {
    "name": "solc",
    "version": "0.8.16+commit.07a7930e.Emscripten.clang"
  },
  "schemaVersion": "3.4.8",
  "updatedAt": "2022-08-28T10:09:32.113Z",
  "devdoc": {
    "kind": "dev",
    "methods": {
      "owner()": {
        "details": "Returns the address of the current owner."
      },
      "renounceOwnership()": {
        "details": "Leaves the contract without owner. It will not be possible to call `onlyOwner` functions anymore. Can only be called by the current owner. NOTE: Renouncing ownership will leave the contract without an owner, thereby removing any functionality that is only available to the owner."
      },
      "transferOwnership(address)": {
        "details": "Transfers ownership of the contract to a new account (`newOwner`). Can only be called by the current owner."
      }
    },
    "version": 1
  },
  "userdoc": {
    "kind": "user",
    "methods": {},
    "version": 1
  }
}