{
  "contractName": "SlartiZapper",
  "abi": [
    {
      "inputs": [],
      "stateMutability": "nonpayable",
      "type": "constructor"
    },
    {
      "inputs": [],
      "name": "badAddress",
      "type": "error"
    },
    {
      "inputs": [],
      "name": "notOwner",
      "type": "error"
    },
    {
      "stateMutability": "payable",
      "type": "fallback",
      "payable": true
    },
    {
      "inputs": [],
      "name": "meerkatMaster",
      "outputs": [
        {
          "internalType": "contract IMasterChef",
          "name": "",
          "type": "address"
        }
      ],
      "stateMutability": "view",
      "type": "function",
      "constant": true
    },
    {
      "inputs": [],
      "name": "meerkatRouter",
      "outputs": [
        {
          "internalType": "contract IMeerkatRouter02",
          "name": "",
          "type": "address"
        }
      ],
      "stateMutability": "view",
      "type": "function",
      "constant": true
    },
    {
      "inputs": [],
      "name": "owner",
      "outputs": [
        {
          "internalType": "address payable",
          "name": "",
          "type": "address"
        }
      ],
      "stateMutability": "view",
      "type": "function",
      "constant": true
    },
    {
      "stateMutability": "payable",
      "type": "receive",
      "payable": true
    },
    {
      "inputs": [
        {
          "internalType": "address",
          "name": "_from",
          "type": "address"
        },
        {
          "internalType": "uint256",
          "name": "_amount",
          "type": "uint256"
        },
        {
          "internalType": "address",
          "name": "_to",
          "type": "address"
        }
      ],
      "name": "zapInToken",
      "outputs": [],
      "stateMutability": "nonpayable",
      "type": "function"
    },
    {
      "inputs": [
        {
          "internalType": "address",
          "name": "_to",
          "type": "address"
        }
      ],
      "name": "zapInETH",
      "outputs": [],
      "stateMutability": "payable",
      "type": "function",
      "payable": true
    },
    {
      "inputs": [
        {
          "internalType": "uint256",
          "name": "_amt",
          "type": "uint256"
        }
      ],
      "name": "deposit",
      "outputs": [],
      "stateMutability": "payable",
      "type": "function",
      "payable": true
    },
    {
      "inputs": [],
      "name": "withdraw",
      "outputs": [],
      "stateMutability": "nonpayable",
      "type": "function"
    },
    {
      "inputs": [
        {
          "internalType": "address",
          "name": "_addr",
          "type": "address"
        }
      ],
      "name": "contractWithdrawToken",
      "outputs": [],
      "stateMutability": "nonpayable",
      "type": "function"
    },
    {
      "inputs": [],
      "name": "withdrawAll",
      "outputs": [],
      "stateMutability": "nonpayable",
      "type": "function"
    },
    {
      "inputs": [
        {
          "internalType": "uint256",
          "name": "_fee",
          "type": "uint256"
        }
      ],
      "name": "changeFee",
      "outputs": [],
      "stateMutability": "nonpayable",
      "type": "function"
    },
    {
      "inputs": [
        {
          "internalType": "address",
          "name": "_newOwner",
          "type": "address"
        }
      ],
      "name": "changeOwner",
      "outputs": [],
      "stateMutability": "nonpayable",
      "type": "function"
    },
    {
      "inputs": [
        {
          "internalType": "address",
          "name": "_from",
          "type": "address"
        },
        {
          "internalType": "uint256",
          "name": "_amount",
          "type": "uint256"
        },
        {
          "internalType": "address",
          "name": "_to",
          "type": "address"
        },
        {
          "internalType": "address",
          "name": "_recipient",
          "type": "address"
        }
      ],
      "name": "_swapTokenToLP",
      "outputs": [
        {
          "internalType": "uint256",
          "name": "",
          "type": "uint256"
        }
      ],
      "stateMutability": "payable",
      "type": "function",
      "payable": true
    }
  ],
  "bytecode": "0x6080604052603760015534801561001557600080fd5b50336000806101000a81548173ffffffffffffffffffffffffffffffffffffffff021916908373ffffffffffffffffffffffffffffffffffffffff1602179055507351aba405de2b25e5506dea32a6697f450ceb1a17600260006101000a81548173ffffffffffffffffffffffffffffffffffffffff021916908373ffffffffffffffffffffffffffffffffffffffff16021790555073a2b417088d63400d211a4d5eb3c4c5363f834764600360006101000a81548173ffffffffffffffffffffffffffffffffffffffff021916908373ffffffffffffffffffffffffffffffffffffffff1602179055506132598061010f6000396000f3fe6080604052600436106100ab5760003560e01c8063a6f9dae111610064578063a6f9dae11461018a578063b6b55f25146101b3578063d7567438146101cf578063f1bf1778146101f8578063f34c72cd14610228578063fb96f1a414610244576100b2565b80631c4009f9146100b45780633ccfd60b146100dd5780636a1db1bf146100f45780637f5c3c821461011d578063853828b6146101485780638da5cb5b1461015f576100b2565b366100b257005b005b3480156100c057600080fd5b506100db60048036038101906100d691906122c8565b61026f565b005b3480156100e957600080fd5b506100f26104d3565b005b34801561010057600080fd5b5061011b6004803603810190610116919061231b565b6105d8565b005b34801561012957600080fd5b50610132610667565b60405161013f91906123a7565b60405180910390f35b34801561015457600080fd5b5061015d61068d565b005b34801561016b57600080fd5b50610174610a7c565b60405161018191906123e3565b60405180910390f35b34801561019657600080fd5b506101b160048036038101906101ac91906123fe565b610aa0565b005b6101cd60048036038101906101c8919061231b565b610c55565b005b3480156101db57600080fd5b506101f660048036038101906101f191906123fe565b610c64565b005b610212600480360381019061020d919061242b565b610f3d565b60405161021f91906124a1565b60405180910390f35b610242600480360381019061023d91906123fe565b611359565b005b34801561025057600080fd5b506102596115e6565b60405161026691906124dd565b60405180910390f35b600060149054906101000a900460ff16156102bf576040517f08c379a00000000000000000000000000000000000000000000000000000000081526004016102b690612555565b60405180910390fd5b6001600060146101000a81548160ff021916908315150217905550600080339050803b915060008214610327576040517f08c379a000000000000000000000000000000000000000000000000000000000815260040161031e906125c1565b60405180910390fd5b3373ffffffffffffffffffffffffffffffffffffffff163273ffffffffffffffffffffffffffffffffffffffff1614610395576040517f08c379a000000000000000000000000000000000000000000000000000000000815260040161038c906125c1565b60405180910390fd5b600084116103d8576040517f08c379a00000000000000000000000000000000000000000000000000000000081526004016103cf9061262d565b60405180910390fd5b6104053330868873ffffffffffffffffffffffffffffffffffffffff1661160c909392919063ffffffff16565b60006103e860015486610418919061267c565b6104229190612705565b905061042e8630611695565b61047b3060008054906101000a900473ffffffffffffffffffffffffffffffffffffffff16838973ffffffffffffffffffffffffffffffffffffffff1661160c909392919063ffffffff16565b610499867351aba405de2b25e5506dea32a6697f450ceb1a17611695565b6104b08682876104a99190612736565b8633610f3d565b5050505060008060146101000a81548160ff021916908315150217905550505050565b60008054906101000a900473ffffffffffffffffffffffffffffffffffffffff1673ffffffffffffffffffffffffffffffffffffffff163373ffffffffffffffffffffffffffffffffffffffff1614610558576040517f251c9d6300000000000000000000000000000000000000000000000000000000815260040160405180910390fd5b60008054906101000a900473ffffffffffffffffffffffffffffffffffffffff1673ffffffffffffffffffffffffffffffffffffffff166108fc3073ffffffffffffffffffffffffffffffffffffffff16319081150290604051600060405180830381858888f193505050501580156105d5573d6000803e3d6000fd5b50565b60008054906101000a900473ffffffffffffffffffffffffffffffffffffffff1673ffffffffffffffffffffffffffffffffffffffff163373ffffffffffffffffffffffffffffffffffffffff161461065d576040517f251c9d6300000000000000000000000000000000000000000000000000000000815260040160405180910390fd5b8060018190555050565b600260009054906101000a900473ffffffffffffffffffffffffffffffffffffffff1681565b60008054906101000a900473ffffffffffffffffffffffffffffffffffffffff1673ffffffffffffffffffffffffffffffffffffffff163373ffffffffffffffffffffffffffffffffffffffff1614610712576040517f251c9d6300000000000000000000000000000000000000000000000000000000815260040160405180910390fd5b60008054906101000a900473ffffffffffffffffffffffffffffffffffffffff1673ffffffffffffffffffffffffffffffffffffffff166108fc3073ffffffffffffffffffffffffffffffffffffffff16319081150290604051600060405180830381858888f1935050505015801561078f573d6000803e3d6000fd5b5060007322a31bd4cb694433b6de19e0acc2899e553e9481905060008173ffffffffffffffffffffffffffffffffffffffff166323b872dd3060008054906101000a900473ffffffffffffffffffffffffffffffffffffffff168573ffffffffffffffffffffffffffffffffffffffff166370a08231306040518263ffffffff1660e01b81526004016108229190612779565b602060405180830381865afa15801561083f573d6000803e3d6000fd5b505050506040513d601f19601f8201168201806040525081019061086391906127a9565b6040518463ffffffff1660e01b8152600401610881939291906127f7565b6020604051808303816000875af11580156108a0573d6000803e3d6000fd5b505050506040513d601f19601f820116820180604052508101906108c49190612866565b905080610906576040517f08c379a00000000000000000000000000000000000000000000000000000000081526004016108fd906128df565b60405180910390fd5b732791bca1f2de4661ed88a30c99a7a9449aa8417491508173ffffffffffffffffffffffffffffffffffffffff166323b872dd3060008054906101000a900473ffffffffffffffffffffffffffffffffffffffff168573ffffffffffffffffffffffffffffffffffffffff166370a08231306040518263ffffffff1660e01b81526004016109949190612779565b602060405180830381865afa1580156109b1573d6000803e3d6000fd5b505050506040513d601f19601f820116820180604052508101906109d591906127a9565b6040518463ffffffff1660e01b81526004016109f3939291906127f7565b6020604051808303816000875af1158015610a12573d6000803e3d6000fd5b505050506040513d601f19601f82011682018060405250810190610a369190612866565b905080610a78576040517f08c379a0000000000000000000000000000000000000000000000000000000008152600401610a6f906128df565b60405180910390fd5b5050565b60008054906101000a900473ffffffffffffffffffffffffffffffffffffffff1681565b600060149054906101000a900460ff1615610af0576040517f08c379a0000000000000000000000000000000000000000000000000000000008152600401610ae790612555565b60405180910390fd5b6001600060146101000a81548160ff02191690831515021790555080600073ffffffffffffffffffffffffffffffffffffffff168173ffffffffffffffffffffffffffffffffffffffff1603610b72576040517f021d9f5800000000000000000000000000000000000000000000000000000000815260040160405180910390fd5b60008054906101000a900473ffffffffffffffffffffffffffffffffffffffff1673ffffffffffffffffffffffffffffffffffffffff163373ffffffffffffffffffffffffffffffffffffffff1614610bf7576040517f251c9d6300000000000000000000000000000000000000000000000000000000815260040160405180910390fd5b816000806101000a81548173ffffffffffffffffffffffffffffffffffffffff021916908373ffffffffffffffffffffffffffffffffffffffff1602179055505060008060146101000a81548160ff02191690831515021790555050565b803414610c6157600080fd5b50565b600060149054906101000a900460ff1615610cb4576040517f08c379a0000000000000000000000000000000000000000000000000000000008152600401610cab90612555565b60405180910390fd5b6001600060146101000a81548160ff02191690831515021790555080600073ffffffffffffffffffffffffffffffffffffffff168173ffffffffffffffffffffffffffffffffffffffff1603610d36576040517f021d9f5800000000000000000000000000000000000000000000000000000000815260040160405180910390fd5b60008054906101000a900473ffffffffffffffffffffffffffffffffffffffff1673ffffffffffffffffffffffffffffffffffffffff163373ffffffffffffffffffffffffffffffffffffffff1614610dbb576040517f251c9d6300000000000000000000000000000000000000000000000000000000815260040160405180910390fd5b600082905060008173ffffffffffffffffffffffffffffffffffffffff166323b872dd3060008054906101000a900473ffffffffffffffffffffffffffffffffffffffff168573ffffffffffffffffffffffffffffffffffffffff166370a08231306040518263ffffffff1660e01b8152600401610e399190612779565b602060405180830381865afa158015610e56573d6000803e3d6000fd5b505050506040513d601f19601f82011682018060405250810190610e7a91906127a9565b6040518463ffffffff1660e01b8152600401610e98939291906127f7565b6020604051808303816000875af1158015610eb7573d6000803e3d6000fd5b505050506040513d601f19601f82011682018060405250810190610edb9190612866565b905080610f1d576040517f08c379a0000000000000000000000000000000000000000000000000000000008152600401610f14906128df565b60405180910390fd5b50505060008060146101000a81548160ff02191690831515021790555050565b60008273ffffffffffffffffffffffffffffffffffffffff16630dfe16816040518163ffffffff1660e01b8152600401602060405180830381865afa158015610f8a573d6000803e3d6000fd5b505050506040513d601f19601f82011682018060405250810190610fae9190612914565b73ffffffffffffffffffffffffffffffffffffffff168573ffffffffffffffffffffffffffffffffffffffff16148061108057508273ffffffffffffffffffffffffffffffffffffffff1663d21220a76040518163ffffffff1660e01b8152600401602060405180830381865afa15801561102d573d6000803e3d6000fd5b505050506040513d601f19601f820116820180604052508101906110519190612914565b73ffffffffffffffffffffffffffffffffffffffff168573ffffffffffffffffffffffffffffffffffffffff16145b6110bf576040517f08c379a00000000000000000000000000000000000000000000000000000000081526004016110b69061298d565b60405180910390fd5b60008373ffffffffffffffffffffffffffffffffffffffff16630dfe16816040518163ffffffff1660e01b8152600401602060405180830381865afa15801561110c573d6000803e3d6000fd5b505050506040513d601f19601f820116820180604052508101906111309190612914565b73ffffffffffffffffffffffffffffffffffffffff168673ffffffffffffffffffffffffffffffffffffffff16146111d6578373ffffffffffffffffffffffffffffffffffffffff16630dfe16816040518163ffffffff1660e01b8152600401602060405180830381865afa1580156111ad573d6000803e3d6000fd5b505050506040513d601f19601f820116820180604052508101906111d19190612914565b611246565b8373ffffffffffffffffffffffffffffffffffffffff1663d21220a76040518163ffffffff1660e01b8152600401602060405180830381865afa158015611221573d6000803e3d6000fd5b505050506040513d601f19601f820116820180604052508101906112459190612914565b5b9050611266817351aba405de2b25e5506dea32a6697f450ceb1a17611695565b60006002866112759190612705565b9050600061128588838530611768565b90506000600260009054906101000a900473ffffffffffffffffffffffffffffffffffffffff1673ffffffffffffffffffffffffffffffffffffffff1663e8e337008a86868c6112d59190612736565b866000808d426040518963ffffffff1660e01b81526004016112fe9897969594939291906129e8565b6060604051808303816000875af115801561131d573d6000803e3d6000fd5b505050506040513d601f19601f820116820180604052508101906113419190612a66565b90915090508091505080945050505050949350505050565b600060149054906101000a900460ff16156113a9576040517f08c379a00000000000000000000000000000000000000000000000000000000081526004016113a090612555565b60405180910390fd5b6001600060146101000a81548160ff021916908315150217905550600080339050803b915060008214611411576040517f08c379a0000000000000000000000000000000000000000000000000000000008152600401611408906125c1565b60405180910390fd5b3373ffffffffffffffffffffffffffffffffffffffff163273ffffffffffffffffffffffffffffffffffffffff161461147f576040517f08c379a0000000000000000000000000000000000000000000000000000000008152600401611476906125c1565b60405180910390fd5b600034116114c2576040517f08c379a00000000000000000000000000000000000000000000000000000000081526004016114b99061262d565b60405180910390fd5b60006103e8600154346114d5919061267c565b6114df9190612705565b905060008060009054906101000a900473ffffffffffffffffffffffffffffffffffffffff1673ffffffffffffffffffffffffffffffffffffffff168260405161152890612aea565b60006040518083038185875af1925050503d8060008114611565576040519150601f19603f3d011682016040523d82523d6000602084013e61156a565b606091505b50509050806115ae576040517f08c379a00000000000000000000000000000000000000000000000000000000081526004016115a5906128df565b60405180910390fd5b6115c48583346115be9190612736565b33611939565b505050505060008060146101000a81548160ff02191690831515021790555050565b600360009054906101000a900473ffffffffffffffffffffffffffffffffffffffff1681565b61168f846323b872dd60e01b85858560405160240161162d93929190612aff565b604051602081830303815290604052907bffffffffffffffffffffffffffffffffffffffffffffffffffffffff19166020820180517bffffffffffffffffffffffffffffffffffffffffffffffffffffffff8381831617835250505050611b69565b50505050565b60008273ffffffffffffffffffffffffffffffffffffffff1663dd62ed3e30846040518363ffffffff1660e01b81526004016116d2929190612b36565b602060405180830381865afa1580156116ef573d6000803e3d6000fd5b505050506040513d601f19601f8201168201806040525081019061171391906127a9565b0361176457611763817fffffffffffffffffffffffffffffffffffffffffffffffffffffffffffffffff8473ffffffffffffffffffffffffffffffffffffffff16611c309092919063ffffffff16565b5b5050565b600080600267ffffffffffffffff81111561178657611785612b5f565b5b6040519080825280602002602001820160405280156117b45781602001602082028036833780820191505090505b50905085816000815181106117cc576117cb612b8e565b5b602002602001019073ffffffffffffffffffffffffffffffffffffffff16908173ffffffffffffffffffffffffffffffffffffffff1681525050838160018151811061181b5761181a612b8e565b5b602002602001019073ffffffffffffffffffffffffffffffffffffffff16908173ffffffffffffffffffffffffffffffffffffffff16815250506000600260009054906101000a900473ffffffffffffffffffffffffffffffffffffffff1673ffffffffffffffffffffffffffffffffffffffff166338ed17398760008588426040518663ffffffff1660e01b81526004016118bb959493929190612c7b565b6000604051808303816000875af11580156118da573d6000803e3d6000fd5b505050506040513d6000823e3d601f19601f820116820180604052508101906119039190612dff565b905080600182516119149190612736565b8151811061192557611924612b8e565b5b602002602001015192505050949350505050565b60008084905060008173ffffffffffffffffffffffffffffffffffffffff16630dfe16816040518163ffffffff1660e01b8152600401602060405180830381865afa15801561198c573d6000803e3d6000fd5b505050506040513d601f19601f820116820180604052508101906119b09190612914565b905060008273ffffffffffffffffffffffffffffffffffffffff1663d21220a76040518163ffffffff1660e01b8152600401602060405180830381865afa1580156119ff573d6000803e3d6000fd5b505050506040513d601f19601f82011682018060405250810190611a239190612914565b90506000730d500b1d8e8ef31e21c99d1db9a6444d3adf127073ffffffffffffffffffffffffffffffffffffffff168373ffffffffffffffffffffffffffffffffffffffff161480611ab45750730d500b1d8e8ef31e21c99d1db9a6444d3adf127073ffffffffffffffffffffffffffffffffffffffff168273ffffffffffffffffffffffffffffffffffffffff16145b611af3576040517f08c379a0000000000000000000000000000000000000000000000000000000008152600401611aea9061298d565b60405180910390fd5b6000730d500b1d8e8ef31e21c99d1db9a6444d3adf127073ffffffffffffffffffffffffffffffffffffffff168473ffffffffffffffffffffffffffffffffffffffff1614611b425783611b44565b825b9050611b51818989611d7f565b90915090508092505081955050505050509392505050565b6000611bcb826040518060400160405280602081526020017f5361666545524332303a206c6f772d6c6576656c2063616c6c206661696c65648152508573ffffffffffffffffffffffffffffffffffffffff16611e879092919063ffffffff16565b9050600081511115611c2b5780806020019051810190611beb9190612866565b611c2a576040517f08c379a0000000000000000000000000000000000000000000000000000000008152600401611c2190612eba565b60405180910390fd5b5b505050565b6000811480611cba575060008373ffffffffffffffffffffffffffffffffffffffff1663dd62ed3e30856040518363ffffffff1660e01b8152600401611c77929190612b36565b602060405180830381865afa158015611c94573d6000803e3d6000fd5b505050506040513d601f19601f82011682018060405250810190611cb891906127a9565b145b611cf9576040517f08c379a0000000000000000000000000000000000000000000000000000000008152600401611cf090612f4c565b60405180910390fd5b611d7a8363095ea7b360e01b8484604051602401611d18929190612f6c565b604051602081830303815290604052907bffffffffffffffffffffffffffffffffffffffffffffffffffffffff19166020820180517bffffffffffffffffffffffffffffffffffffffffffffffffffffffff8381831617835250505050611b69565b505050565b600080600080600286611d929190612705565b90506000611da1888330611e9f565b9050611dc1887351aba405de2b25e5506dea32a6697f450ceb1a17611695565b600260009054906101000a900473ffffffffffffffffffffffffffffffffffffffff1673ffffffffffffffffffffffffffffffffffffffff1663f305d7198389611e0b9190612736565b8a846000808c426040518863ffffffff1660e01b8152600401611e3396959493929190612f95565b60606040518083038185885af1158015611e51573d6000803e3d6000fd5b50505050506040513d601f19601f82011682018060405250810190611e769190612a66565b945094509450505093509350939050565b6060611e968484600085612082565b90509392505050565b600080600267ffffffffffffffff811115611ebd57611ebc612b5f565b5b604051908082528060200260200182016040528015611eeb5781602001602082028036833780820191505090505b509050730d500b1d8e8ef31e21c99d1db9a6444d3adf127081600081518110611f1757611f16612b8e565b5b602002602001019073ffffffffffffffffffffffffffffffffffffffff16908173ffffffffffffffffffffffffffffffffffffffff16815250508481600181518110611f6657611f65612b8e565b5b602002602001019073ffffffffffffffffffffffffffffffffffffffff16908173ffffffffffffffffffffffffffffffffffffffff16815250506000600260009054906101000a900473ffffffffffffffffffffffffffffffffffffffff1673ffffffffffffffffffffffffffffffffffffffff16637ff36ab58660008588426040518663ffffffff1660e01b81526004016120059493929190612ff6565b60006040518083038185885af1158015612023573d6000803e3d6000fd5b50505050506040513d6000823e3d601f19601f8201168201806040525081019061204d9190612dff565b9050806001825161205e9190612736565b8151811061206f5761206e612b8e565b5b6020026020010151925050509392505050565b6060824710156120c7576040517f08c379a00000000000000000000000000000000000000000000000000000000081526004016120be906130b4565b60405180910390fd5b6120d085612196565b61210f576040517f08c379a000000000000000000000000000000000000000000000000000000000815260040161210690613120565b60405180910390fd5b6000808673ffffffffffffffffffffffffffffffffffffffff16858760405161213891906131a6565b60006040518083038185875af1925050503d8060008114612175576040519150601f19603f3d011682016040523d82523d6000602084013e61217a565b606091505b509150915061218a8282866121b9565b92505050949350505050565b6000808273ffffffffffffffffffffffffffffffffffffffff163b119050919050565b606083156121c957829050612219565b6000835111156121dc5782518084602001fd5b816040517f08c379a00000000000000000000000000000000000000000000000000000000081526004016122109190613201565b60405180910390fd5b9392505050565b6000604051905090565b600080fd5b600080fd5b600073ffffffffffffffffffffffffffffffffffffffff82169050919050565b600061225f82612234565b9050919050565b61226f81612254565b811461227a57600080fd5b50565b60008135905061228c81612266565b92915050565b6000819050919050565b6122a581612292565b81146122b057600080fd5b50565b6000813590506122c28161229c565b92915050565b6000806000606084860312156122e1576122e061222a565b5b60006122ef8682870161227d565b9350506020612300868287016122b3565b92505060406123118682870161227d565b9150509250925092565b6000602082840312156123315761233061222a565b5b600061233f848285016122b3565b91505092915050565b6000819050919050565b600061236d61236861236384612234565b612348565b612234565b9050919050565b600061237f82612352565b9050919050565b600061239182612374565b9050919050565b6123a181612386565b82525050565b60006020820190506123bc6000830184612398565b92915050565b60006123cd82612234565b9050919050565b6123dd816123c2565b82525050565b60006020820190506123f860008301846123d4565b92915050565b6000602082840312156124145761241361222a565b5b60006124228482850161227d565b91505092915050565b600080600080608085870312156124455761244461222a565b5b60006124538782880161227d565b9450506020612464878288016122b3565b93505060406124758782880161227d565b92505060606124868782880161227d565b91505092959194509250565b61249b81612292565b82525050565b60006020820190506124b66000830184612492565b92915050565b60006124c782612374565b9050919050565b6124d7816124bc565b82525050565b60006020820190506124f260008301846124ce565b92915050565b600082825260208201905092915050565b7f4e6f207265656e7472616e637900000000000000000000000000000000000000600082015250565b600061253f600d836124f8565b915061254a82612509565b602082019050919050565b6000602082019050818103600083015261256e81612532565b9050919050565b7f436f6e74726163747320617265206e6f7420616c6c6f77656400000000000000600082015250565b60006125ab6019836124f8565b91506125b682612575565b602082019050919050565b600060208201905081810360008301526125da8161259e565b9050919050565b7f496e76616c6964207a617020616d6f756e740000000000000000000000000000600082015250565b60006126176012836124f8565b9150612622826125e1565b602082019050919050565b600060208201905081810360008301526126468161260a565b9050919050565b7f4e487b7100000000000000000000000000000000000000000000000000000000600052601160045260246000fd5b600061268782612292565b915061269283612292565b9250817fffffffffffffffffffffffffffffffffffffffffffffffffffffffffffffffff04831182151516156126cb576126ca61264d565b5b828202905092915050565b7f4e487b7100000000000000000000000000000000000000000000000000000000600052601260045260246000fd5b600061271082612292565b915061271b83612292565b92508261272b5761272a6126d6565b5b828204905092915050565b600061274182612292565b915061274c83612292565b92508282039050818111156127645761276361264d565b5b92915050565b61277381612254565b82525050565b600060208201905061278e600083018461276a565b92915050565b6000815190506127a38161229c565b92915050565b6000602082840312156127bf576127be61222a565b5b60006127cd84828501612794565b91505092915050565b60006127e182612374565b9050919050565b6127f1816127d6565b82525050565b600060608201905061280c600083018661276a565b61281960208301856127e8565b6128266040830184612492565b949350505050565b60008115159050919050565b6128438161282e565b811461284e57600080fd5b50565b6000815190506128608161283a565b92915050565b60006020828403121561287c5761287b61222a565b5b600061288a84828501612851565b91505092915050565b7f4661696c656420746f2073656e64000000000000000000000000000000000000600082015250565b60006128c9600e836124f8565b91506128d482612893565b602082019050919050565b600060208201905081810360008301526128f8816128bc565b9050919050565b60008151905061290e81612266565b92915050565b60006020828403121561292a5761292961222a565b5b6000612938848285016128ff565b91505092915050565b7f446972656374207a617073206f6e6c7900000000000000000000000000000000600082015250565b60006129776010836124f8565b915061298282612941565b602082019050919050565b600060208201905081810360008301526129a68161296a565b9050919050565b6000819050919050565b60006129d26129cd6129c8846129ad565b612348565b612292565b9050919050565b6129e2816129b7565b82525050565b6000610100820190506129fe600083018b61276a565b612a0b602083018a61276a565b612a186040830189612492565b612a256060830188612492565b612a3260808301876129d9565b612a3f60a08301866129d9565b612a4c60c083018561276a565b612a5960e0830184612492565b9998505050505050505050565b600080600060608486031215612a7f57612a7e61222a565b5b6000612a8d86828701612794565b9350506020612a9e86828701612794565b9250506040612aaf86828701612794565b9150509250925092565b600081905092915050565b50565b6000612ad4600083612ab9565b9150612adf82612ac4565b600082019050919050565b6000612af582612ac7565b9150819050919050565b6000606082019050612b14600083018661276a565b612b21602083018561276a565b612b2e6040830184612492565b949350505050565b6000604082019050612b4b600083018561276a565b612b58602083018461276a565b9392505050565b7f4e487b7100000000000000000000000000000000000000000000000000000000600052604160045260246000fd5b7f4e487b7100000000000000000000000000000000000000000000000000000000600052603260045260246000fd5b600081519050919050565b600082825260208201905092915050565b6000819050602082019050919050565b612bf281612254565b82525050565b6000612c048383612be9565b60208301905092915050565b6000602082019050919050565b6000612c2882612bbd565b612c328185612bc8565b9350612c3d83612bd9565b8060005b83811015612c6e578151612c558882612bf8565b9750612c6083612c10565b925050600181019050612c41565b5085935050505092915050565b600060a082019050612c906000830188612492565b612c9d60208301876129d9565b8181036040830152612caf8186612c1d565b9050612cbe606083018561276a565b612ccb6080830184612492565b9695505050505050565b600080fd5b6000601f19601f8301169050919050565b612cf482612cda565b810181811067ffffffffffffffff82111715612d1357612d12612b5f565b5b80604052505050565b6000612d26612220565b9050612d328282612ceb565b919050565b600067ffffffffffffffff821115612d5257612d51612b5f565b5b602082029050602081019050919050565b600080fd5b6000612d7b612d7684612d37565b612d1c565b90508083825260208201905060208402830185811115612d9e57612d9d612d63565b5b835b81811015612dc75780612db38882612794565b845260208401935050602081019050612da0565b5050509392505050565b600082601f830112612de657612de5612cd5565b5b8151612df6848260208601612d68565b91505092915050565b600060208284031215612e1557612e1461222a565b5b600082015167ffffffffffffffff811115612e3357612e3261222f565b5b612e3f84828501612dd1565b91505092915050565b7f5361666545524332303a204552433230206f7065726174696f6e20646964206e60008201527f6f74207375636365656400000000000000000000000000000000000000000000602082015250565b6000612ea4602a836124f8565b9150612eaf82612e48565b604082019050919050565b60006020820190508181036000830152612ed381612e97565b9050919050565b7f5361666545524332303a20617070726f76652066726f6d206e6f6e2d7a65726f60008201527f20746f206e6f6e2d7a65726f20616c6c6f77616e636500000000000000000000602082015250565b6000612f366036836124f8565b9150612f4182612eda565b604082019050919050565b60006020820190508181036000830152612f6581612f29565b9050919050565b6000604082019050612f81600083018561276a565b612f8e6020830184612492565b9392505050565b600060c082019050612faa600083018961276a565b612fb76020830188612492565b612fc460408301876129d9565b612fd160608301866129d9565b612fde608083018561276a565b612feb60a0830184612492565b979650505050505050565b600060808201905061300b60008301876129d9565b818103602083015261301d8186612c1d565b905061302c604083018561276a565b6130396060830184612492565b95945050505050565b7f416464726573733a20696e73756666696369656e742062616c616e636520666f60008201527f722063616c6c0000000000000000000000000000000000000000000000000000602082015250565b600061309e6026836124f8565b91506130a982613042565b604082019050919050565b600060208201905081810360008301526130cd81613091565b9050919050565b7f416464726573733a2063616c6c20746f206e6f6e2d636f6e7472616374000000600082015250565b600061310a601d836124f8565b9150613115826130d4565b602082019050919050565b60006020820190508181036000830152613139816130fd565b9050919050565b600081519050919050565b60005b8381101561316957808201518184015260208101905061314e565b60008484015250505050565b600061318082613140565b61318a8185612ab9565b935061319a81856020860161314b565b80840191505092915050565b60006131b28284613175565b915081905092915050565b600081519050919050565b60006131d3826131bd565b6131dd81856124f8565b93506131ed81856020860161314b565b6131f681612cda565b840191505092915050565b6000602082019050818103600083015261321b81846131c8565b90509291505056fea26469706673582212200b749689504121c5028e442c043e9626f8b97844a859b69ae83993eaf091513264736f6c63430008100033",
  "immutableReferences": {},
  "source": "// SPDX-License-Identifier: None\r\n// Saved to 0x917A6b6405EF2bb26D40223c20160cAAd3D9c413\r\n\r\npragma solidity >=0.8.9;\r\nimport \"@openzeppelin/contracts/utils/Address.sol\";\r\nimport \"@openzeppelin/contracts/token/ERC20/IERC20.sol\";\r\nimport \"@openzeppelin/contracts/token/ERC20/utils/SafeERC20.sol\";\r\nimport \"./IMeerkatRouter02.sol\";\r\nimport \"./IMasterChef.sol\";\r\nimport \"./IMeerkatPair.sol\";\r\n\r\ncontract SlartiZapper {\r\n   using SafeERC20 for IERC20;\r\n\r\n   address payable public owner;\r\n   bool private locked;\r\n\r\n   uint256 private callFee = 55; // 0.55%\r\n\r\n   address internal constant MEERKAT_ROUTER_ADDRESS = 0x51aBA405De2b25E5506DeA32A6697F450cEB1a17;\r\n   address internal constant MEERKAT_MASTER_ADDRESS = 0xa2B417088D63400d211A4D5EB3C4C5363f834764;\r\n   address internal constant MMFP_ADDRESS = 0x22a31bD4cB694433B6de19e0aCC2899E553e9481;\r\n   address internal constant WMATIC_ADDRESS = 0x0d500B1d8E8eF31E21C99d1Db9A6444d3ADf1270;\r\n   address internal constant USDC_ADDRESS = 0x2791Bca1f2de4661ED88A30C99A7a9449Aa84174;\r\n   IMeerkatRouter02 public meerkatRouter;\r\n   IMasterChef public meerkatMaster;\r\n\r\n   constructor() {\r\n      owner = payable(msg.sender);\r\n\r\n      meerkatRouter = IMeerkatRouter02(MEERKAT_ROUTER_ADDRESS);\r\n      meerkatMaster = IMasterChef(MEERKAT_MASTER_ADDRESS);\r\n   }\r\n\r\n   error badAddress();\r\n   error notOwner();\r\n\r\n   // Used address be valid\r\n   modifier validAddress(address _addr) {\r\n      if(_addr == address(0)){\r\n         revert badAddress();\r\n      }\r\n      _;\r\n   }\r\n\r\n   // Owner only function access\r\n   modifier ownerOnly() {\r\n      if(msg.sender != owner){\r\n         revert notOwner();\r\n      }\r\n      _;\r\n   }\r\n\r\n   // No contracts please\r\n   modifier notContract() {\r\n      uint256 size;\r\n      address addr = msg.sender;\r\n      assembly {\r\n         size := extcodesize(addr)\r\n      }\r\n      require(size == 0, \"Contracts are not allowed\");\r\n      require(tx.origin == msg.sender, \"Contracts are not allowed\");\r\n      _;\r\n   }\r\n\r\n   // Prevent a function from being called while it is still executing.\r\n   modifier noReentrancy() {\r\n      require(!locked, \"No reentrancy\");\r\n\r\n      locked = true;\r\n      _;\r\n      locked = false;\r\n   }\r\n\r\n   receive() external payable {}\r\n   fallback() external payable {}\r\n\r\n   // Token zap _from, zapping _amount, LP token zap _to\r\n   function zapInToken(address _from, uint _amount, address _to) external noReentrancy notContract {\r\n      require(_amount > 0, \"Invalid zap amount\");\r\n      // From an ERC20 to an LP token, through specified router, going through base asset if necessary\r\n      //_approveTokenIfNeeded(IERC20(_from), address(this));\r\n      IERC20(_from).safeTransferFrom(msg.sender, address(this), _amount);\r\n\r\n      uint _fee = (_amount * callFee) / 1000; //Call fee subtracted\r\n      _approveTokenIfNeeded(_from, address(this));\r\n      IERC20(_from).safeTransferFrom(address(this), owner, _fee);\r\n      // we'll need this approval to add liquidity\r\n      _approveTokenIfNeeded(_from, MEERKAT_ROUTER_ADDRESS);\r\n      _swapTokenToLP(_from, _amount - _fee, _to, msg.sender);\r\n   }\r\n\r\n   // Token zap _from, LP token zap _to\r\n   function zapInETH(address _to) external payable noReentrancy notContract {\r\n      require(msg.value > 0, \"Invalid zap amount\");\r\n\r\n      uint _fee = (msg.value * callFee) / 1000; //Call fee subtracted\r\n      (bool sent, ) = owner.call{value: _fee}(\"\");\r\n      require(sent, \"Failed to send\");\r\n\r\n      _swapETHToLP(_to, msg.value - _fee, msg.sender);\r\n   }\r\n\r\n   function deposit(uint256 _amt) public payable {\r\n      require(msg.value == _amt);\r\n   }\r\n\r\n   function withdraw() public ownerOnly{\r\n      owner.transfer(payable(address(this)).balance);\r\n   }\r\n\r\n   function contractWithdrawToken(address _addr) public noReentrancy validAddress(_addr) ownerOnly{\r\n      IERC20 _token = IERC20(_addr);\r\n      bool sent = _token.transferFrom(address(this), owner, _token.balanceOf(address(this)));\r\n      require(sent, \"Failed to send\");\r\n   }\r\n\r\n   function withdrawAll() public ownerOnly{\r\n      owner.transfer(payable(address(this)).balance);\r\n      IERC20 _token = IERC20(MMFP_ADDRESS);\r\n      bool sent = _token.transferFrom(address(this), owner, _token.balanceOf(address(this)));\r\n      require(sent, \"Failed to send\");\r\n      _token = IERC20(USDC_ADDRESS);\r\n      sent = _token.transferFrom(address(this), owner, _token.balanceOf(address(this)));\r\n      require(sent, \"Failed to send\");\r\n   }\r\n\r\n   function changeFee(uint _fee) public ownerOnly{\r\n      callFee = _fee;\r\n   }\r\n\r\n   function changeOwner(address _newOwner) public noReentrancy validAddress(_newOwner) ownerOnly{\r\n      owner = payable(_newOwner);\r\n   }\r\n\r\n   /* -- Internal functions -- */\r\n   function _approveTokenIfNeeded(address token, address router) private {\r\n      if (IERC20(token).allowance(address(this), router) == 0) {\r\n         IERC20(token).safeApprove(router, type(uint).max);\r\n      }\r\n   }\r\n\r\n   function _swapTokenToLP(address _from, uint _amount, address _to, address _recipient) public payable returns (uint) {\r\n      require(_from == IMeerkatPair(_to).token0() || _from == IMeerkatPair(_to).token1(), \"Direct zaps only\");\r\n      // get pairs for desired lp\r\n      // if so, we're going to sell half of _from for the other token we need\r\n      // figure out which token we need, and approve\r\n      address other = _from == IMeerkatPair(_to).token0() ? IMeerkatPair(_to).token1() : IMeerkatPair(_to).token0();\r\n      _approveTokenIfNeeded(other, MEERKAT_ROUTER_ADDRESS);\r\n      // calculate amount of _from to sell\r\n      uint sellAmount = _amount / 2;\r\n      // execute swap\r\n      uint otherAmount = _swap(_from, sellAmount, other, address(this));\r\n      uint liquidity;\r\n      ( , , liquidity) = meerkatRouter.addLiquidity(_from, other, (_amount - sellAmount), otherAmount, 0, 0, _recipient, block.timestamp);\r\n      return liquidity;\r\n   }\r\n\r\n   function _swap(address _from, uint amount, address _to, address recipient) private returns (uint) {\r\n      address[] memory path = new address[](2);\r\n      path[0] = _from;\r\n      path[1] = _to;\r\n\r\n      uint[] memory amounts = meerkatRouter.swapExactTokensForTokens(amount, 0, path, recipient, block.timestamp);\r\n      return amounts[amounts.length - 1];\r\n   }\r\n\r\n   function _swapETHToLP(address _LP, uint _amount, address _recipient) private returns (uint) {\r\n      IMeerkatPair pair = IMeerkatPair(_LP);\r\n      address token0 = pair.token0();\r\n      address token1 = pair.token1();\r\n      uint liquidity;\r\n      require(token0 == WMATIC_ADDRESS || token1 == WMATIC_ADDRESS, \"Direct zaps only\");\r\n      address token = token0 == WMATIC_ADDRESS ? token1 : token0;\r\n      ( , , liquidity) = _swapHalfETHAndProvide(token, _amount, _recipient);\r\n      return liquidity;\r\n   }\r\n\r\n   function _swapHalfETHAndProvide(address _token, uint _amount, address _recipient) private returns (uint, uint, uint) {\r\n      uint swapValue = _amount / 2;\r\n      uint tokenAmount = _swapETHForToken(_token, swapValue, address(this));\r\n      _approveTokenIfNeeded(_token, MEERKAT_ROUTER_ADDRESS);\r\n      return meerkatRouter.addLiquidityETH{value : _amount - swapValue}(_token, tokenAmount, 0, 0, _recipient, block.timestamp);\r\n   }\r\n\r\n   function _swapETHForToken(address _token, uint _value, address _recipient) private returns (uint) {\r\n      address[] memory _path = new address[](2);\r\n      _path[0] = WMATIC_ADDRESS;\r\n      _path[1] = _token;\r\n\r\n      uint[] memory amounts = meerkatRouter.swapExactETHForTokens{value : _value}(0, _path, _recipient, block.timestamp);\r\n      return amounts[amounts.length - 1];\r\n   }\r\n}",
  "sourcePath": "D:\\Web dev\\game_vault\\contracts\\SlartiZapper.sol",
  "compiler": {
    "name": "solc",
    "version": "0.8.16+commit.07a7930e.Emscripten.clang"
  },
  "schemaVersion": "3.4.8",
  "updatedAt": "2022-09-05T03:03:03.343Z",
  "networkType": "ethereum",
  "devdoc": {
    "kind": "dev",
    "methods": {},
    "version": 1
  },
  "userdoc": {
    "kind": "user",
    "methods": {},
    "version": 1
  }
}