{
  "contractName": "SlartiZapper",
  "abi": [
    {
      "inputs": [],
      "stateMutability": "nonpayable",
      "type": "constructor"
    },
    {
      "inputs": [],
      "name": "badAddress",
      "type": "error"
    },
    {
      "inputs": [],
      "name": "notOwner",
      "type": "error"
    },
    {
      "stateMutability": "payable",
      "type": "fallback",
      "payable": true
    },
    {
      "inputs": [],
      "name": "callFee",
      "outputs": [
        {
          "internalType": "uint256",
          "name": "",
          "type": "uint256"
        }
      ],
      "stateMutability": "view",
      "type": "function",
      "constant": true
    },
    {
      "inputs": [],
      "name": "meerkatMaster",
      "outputs": [
        {
          "internalType": "contract IMasterChef",
          "name": "",
          "type": "address"
        }
      ],
      "stateMutability": "view",
      "type": "function",
      "constant": true
    },
    {
      "inputs": [],
      "name": "meerkatRouter",
      "outputs": [
        {
          "internalType": "contract IMeerkatRouter02",
          "name": "",
          "type": "address"
        }
      ],
      "stateMutability": "view",
      "type": "function",
      "constant": true
    },
    {
      "inputs": [],
      "name": "owner",
      "outputs": [
        {
          "internalType": "address payable",
          "name": "",
          "type": "address"
        }
      ],
      "stateMutability": "view",
      "type": "function",
      "constant": true
    },
    {
      "stateMutability": "payable",
      "type": "receive",
      "payable": true
    },
    {
      "inputs": [],
      "name": "getBalance",
      "outputs": [
        {
          "internalType": "uint256",
          "name": "",
          "type": "uint256"
        }
      ],
      "stateMutability": "view",
      "type": "function",
      "constant": true
    },
    {
      "inputs": [
        {
          "internalType": "address",
          "name": "_from",
          "type": "address"
        },
        {
          "internalType": "uint256",
          "name": "_amount",
          "type": "uint256"
        },
        {
          "internalType": "address",
          "name": "_to",
          "type": "address"
        }
      ],
      "name": "zapInToken",
      "outputs": [],
      "stateMutability": "nonpayable",
      "type": "function"
    },
    {
      "inputs": [
        {
          "internalType": "address",
          "name": "_to",
          "type": "address"
        }
      ],
      "name": "zapInETH",
      "outputs": [],
      "stateMutability": "payable",
      "type": "function",
      "payable": true
    },
    {
      "inputs": [
        {
          "internalType": "uint256",
          "name": "_amt",
          "type": "uint256"
        }
      ],
      "name": "deposit",
      "outputs": [],
      "stateMutability": "payable",
      "type": "function",
      "payable": true
    },
    {
      "inputs": [
        {
          "internalType": "uint256",
          "name": "_amt",
          "type": "uint256"
        }
      ],
      "name": "toContract",
      "outputs": [],
      "stateMutability": "payable",
      "type": "function",
      "payable": true
    },
    {
      "inputs": [],
      "name": "withdraw",
      "outputs": [],
      "stateMutability": "nonpayable",
      "type": "function"
    },
    {
      "inputs": [
        {
          "internalType": "address",
          "name": "_addr",
          "type": "address"
        }
      ],
      "name": "contractWithdrawToken",
      "outputs": [],
      "stateMutability": "nonpayable",
      "type": "function"
    },
    {
      "inputs": [],
      "name": "withdrawAll",
      "outputs": [],
      "stateMutability": "nonpayable",
      "type": "function"
    },
    {
      "inputs": [
        {
          "internalType": "address",
          "name": "_from",
          "type": "address"
        },
        {
          "internalType": "uint256",
          "name": "_amount",
          "type": "uint256"
        },
        {
          "internalType": "address",
          "name": "_to",
          "type": "address"
        },
        {
          "internalType": "address",
          "name": "_recipient",
          "type": "address"
        }
      ],
      "name": "_swapTokenToLP",
      "outputs": [
        {
          "internalType": "uint256",
          "name": "",
          "type": "uint256"
        }
      ],
      "stateMutability": "payable",
      "type": "function",
      "payable": true
    }
  ],
  "bytecode": "0x6080604052603760015534801561001557600080fd5b50336000806101000a81548173ffffffffffffffffffffffffffffffffffffffff021916908373ffffffffffffffffffffffffffffffffffffffff1602179055507351aba405de2b25e5506dea32a6697f450ceb1a17600260006101000a81548173ffffffffffffffffffffffffffffffffffffffff021916908373ffffffffffffffffffffffffffffffffffffffff16021790555073a2b417088d63400d211a4d5eb3c4c5363f834764600360006101000a81548173ffffffffffffffffffffffffffffffffffffffff021916908373ffffffffffffffffffffffffffffffffffffffff1602179055506132588061010f6000396000f3fe6080604052600436106100c65760003560e01c80638da5cb5b1161007f578063d756743811610059578063d75674381461020a578063f1bf177814610233578063f34c72cd14610263578063fb96f1a41461027f576100cd565b80638da5cb5b1461019857806390321e1a146101c3578063b6b55f25146101ee576100cd565b806312065fe0146100cf5780631c4009f9146100fa578063290a2774146101235780633ccfd60b1461013f5780637f5c3c8214610156578063853828b614610181576100cd565b366100cd57005b005b3480156100db57600080fd5b506100e46102aa565b6040516100f191906121cc565b60405180910390f35b34801561010657600080fd5b50610121600480360381019061011c9190612285565b6102b2565b005b61013d600480360381019061013891906122d8565b610516565b005b34801561014b57600080fd5b506101546106a4565b005b34801561016257600080fd5b5061016b6107a9565b6040516101789190612364565b60405180910390f35b34801561018d57600080fd5b506101966107cf565b005b3480156101a457600080fd5b506101ad610bbe565b6040516101ba91906123a0565b60405180910390f35b3480156101cf57600080fd5b506101d8610be2565b6040516101e591906121cc565b60405180910390f35b610208600480360381019061020391906122d8565b610be8565b005b34801561021657600080fd5b50610231600480360381019061022c91906123bb565b610bf7565b005b61024d600480360381019061024891906123e8565b610ed0565b60405161025a91906121cc565b60405180910390f35b61027d600480360381019061027891906123bb565b6112ec565b005b34801561028b57600080fd5b50610294611579565b6040516102a19190612470565b60405180910390f35b600047905090565b600060149054906101000a900460ff1615610302576040517f08c379a00000000000000000000000000000000000000000000000000000000081526004016102f9906124e8565b60405180910390fd5b6001600060146101000a81548160ff021916908315150217905550600080339050803b91506000821461036a576040517f08c379a000000000000000000000000000000000000000000000000000000000815260040161036190612554565b60405180910390fd5b3373ffffffffffffffffffffffffffffffffffffffff163273ffffffffffffffffffffffffffffffffffffffff16146103d8576040517f08c379a00000000000000000000000000000000000000000000000000000000081526004016103cf90612554565b60405180910390fd5b6000841161041b576040517f08c379a0000000000000000000000000000000000000000000000000000000008152600401610412906125c0565b60405180910390fd5b6104483330868873ffffffffffffffffffffffffffffffffffffffff1661159f909392919063ffffffff16565b60006103e86001548661045b919061260f565b6104659190612698565b90506104718630611628565b6104be3060008054906101000a900473ffffffffffffffffffffffffffffffffffffffff16838973ffffffffffffffffffffffffffffffffffffffff1661159f909392919063ffffffff16565b6104dc867351aba405de2b25e5506dea32a6697f450ceb1a17611628565b6104f38682876104ec91906126c9565b8633610ed0565b5050505060008060146101000a81548160ff021916908315150217905550505050565b600060149054906101000a900460ff1615610566576040517f08c379a000000000000000000000000000000000000000000000000000000000815260040161055d906124e8565b60405180910390fd5b6001600060146101000a81548160ff021916908315150217905550803373ffffffffffffffffffffffffffffffffffffffff1631116105da576040517f08c379a00000000000000000000000000000000000000000000000000000000081526004016105d190612749565b60405180910390fd5b60003073ffffffffffffffffffffffffffffffffffffffff16826040516106009061279a565b60006040518083038185875af1925050503d806000811461063d576040519150601f19603f3d011682016040523d82523d6000602084013e610642565b606091505b5050905080610686576040517f08c379a000000000000000000000000000000000000000000000000000000000815260040161067d906127fb565b60405180910390fd5b5060008060146101000a81548160ff02191690831515021790555050565b60008054906101000a900473ffffffffffffffffffffffffffffffffffffffff1673ffffffffffffffffffffffffffffffffffffffff163373ffffffffffffffffffffffffffffffffffffffff1614610729576040517f251c9d6300000000000000000000000000000000000000000000000000000000815260040160405180910390fd5b60008054906101000a900473ffffffffffffffffffffffffffffffffffffffff1673ffffffffffffffffffffffffffffffffffffffff166108fc3073ffffffffffffffffffffffffffffffffffffffff16319081150290604051600060405180830381858888f193505050501580156107a6573d6000803e3d6000fd5b50565b600260009054906101000a900473ffffffffffffffffffffffffffffffffffffffff1681565b60008054906101000a900473ffffffffffffffffffffffffffffffffffffffff1673ffffffffffffffffffffffffffffffffffffffff163373ffffffffffffffffffffffffffffffffffffffff1614610854576040517f251c9d6300000000000000000000000000000000000000000000000000000000815260040160405180910390fd5b60008054906101000a900473ffffffffffffffffffffffffffffffffffffffff1673ffffffffffffffffffffffffffffffffffffffff166108fc3073ffffffffffffffffffffffffffffffffffffffff16319081150290604051600060405180830381858888f193505050501580156108d1573d6000803e3d6000fd5b5060007322a31bd4cb694433b6de19e0acc2899e553e9481905060008173ffffffffffffffffffffffffffffffffffffffff166323b872dd3060008054906101000a900473ffffffffffffffffffffffffffffffffffffffff168573ffffffffffffffffffffffffffffffffffffffff166370a08231306040518263ffffffff1660e01b8152600401610964919061282a565b602060405180830381865afa158015610981573d6000803e3d6000fd5b505050506040513d601f19601f820116820180604052508101906109a5919061285a565b6040518463ffffffff1660e01b81526004016109c3939291906128a8565b6020604051808303816000875af11580156109e2573d6000803e3d6000fd5b505050506040513d601f19601f82011682018060405250810190610a069190612917565b905080610a48576040517f08c379a0000000000000000000000000000000000000000000000000000000008152600401610a3f906127fb565b60405180910390fd5b732791bca1f2de4661ed88a30c99a7a9449aa8417491508173ffffffffffffffffffffffffffffffffffffffff166323b872dd3060008054906101000a900473ffffffffffffffffffffffffffffffffffffffff168573ffffffffffffffffffffffffffffffffffffffff166370a08231306040518263ffffffff1660e01b8152600401610ad6919061282a565b602060405180830381865afa158015610af3573d6000803e3d6000fd5b505050506040513d601f19601f82011682018060405250810190610b17919061285a565b6040518463ffffffff1660e01b8152600401610b35939291906128a8565b6020604051808303816000875af1158015610b54573d6000803e3d6000fd5b505050506040513d601f19601f82011682018060405250810190610b789190612917565b905080610bba576040517f08c379a0000000000000000000000000000000000000000000000000000000008152600401610bb1906127fb565b60405180910390fd5b5050565b60008054906101000a900473ffffffffffffffffffffffffffffffffffffffff1681565b60015481565b803414610bf457600080fd5b50565b600060149054906101000a900460ff1615610c47576040517f08c379a0000000000000000000000000000000000000000000000000000000008152600401610c3e906124e8565b60405180910390fd5b6001600060146101000a81548160ff02191690831515021790555080600073ffffffffffffffffffffffffffffffffffffffff168173ffffffffffffffffffffffffffffffffffffffff1603610cc9576040517f021d9f5800000000000000000000000000000000000000000000000000000000815260040160405180910390fd5b60008054906101000a900473ffffffffffffffffffffffffffffffffffffffff1673ffffffffffffffffffffffffffffffffffffffff163373ffffffffffffffffffffffffffffffffffffffff1614610d4e576040517f251c9d6300000000000000000000000000000000000000000000000000000000815260040160405180910390fd5b600082905060008173ffffffffffffffffffffffffffffffffffffffff166323b872dd3060008054906101000a900473ffffffffffffffffffffffffffffffffffffffff168573ffffffffffffffffffffffffffffffffffffffff166370a08231306040518263ffffffff1660e01b8152600401610dcc919061282a565b602060405180830381865afa158015610de9573d6000803e3d6000fd5b505050506040513d601f19601f82011682018060405250810190610e0d919061285a565b6040518463ffffffff1660e01b8152600401610e2b939291906128a8565b6020604051808303816000875af1158015610e4a573d6000803e3d6000fd5b505050506040513d601f19601f82011682018060405250810190610e6e9190612917565b905080610eb0576040517f08c379a0000000000000000000000000000000000000000000000000000000008152600401610ea7906127fb565b60405180910390fd5b50505060008060146101000a81548160ff02191690831515021790555050565b60008273ffffffffffffffffffffffffffffffffffffffff16630dfe16816040518163ffffffff1660e01b8152600401602060405180830381865afa158015610f1d573d6000803e3d6000fd5b505050506040513d601f19601f82011682018060405250810190610f419190612959565b73ffffffffffffffffffffffffffffffffffffffff168573ffffffffffffffffffffffffffffffffffffffff16148061101357508273ffffffffffffffffffffffffffffffffffffffff1663d21220a76040518163ffffffff1660e01b8152600401602060405180830381865afa158015610fc0573d6000803e3d6000fd5b505050506040513d601f19601f82011682018060405250810190610fe49190612959565b73ffffffffffffffffffffffffffffffffffffffff168573ffffffffffffffffffffffffffffffffffffffff16145b611052576040517f08c379a0000000000000000000000000000000000000000000000000000000008152600401611049906129d2565b60405180910390fd5b60008373ffffffffffffffffffffffffffffffffffffffff16630dfe16816040518163ffffffff1660e01b8152600401602060405180830381865afa15801561109f573d6000803e3d6000fd5b505050506040513d601f19601f820116820180604052508101906110c39190612959565b73ffffffffffffffffffffffffffffffffffffffff168673ffffffffffffffffffffffffffffffffffffffff1614611169578373ffffffffffffffffffffffffffffffffffffffff16630dfe16816040518163ffffffff1660e01b8152600401602060405180830381865afa158015611140573d6000803e3d6000fd5b505050506040513d601f19601f820116820180604052508101906111649190612959565b6111d9565b8373ffffffffffffffffffffffffffffffffffffffff1663d21220a76040518163ffffffff1660e01b8152600401602060405180830381865afa1580156111b4573d6000803e3d6000fd5b505050506040513d601f19601f820116820180604052508101906111d89190612959565b5b90506111f9817351aba405de2b25e5506dea32a6697f450ceb1a17611628565b60006002866112089190612698565b90506000611218888385306116fb565b90506000600260009054906101000a900473ffffffffffffffffffffffffffffffffffffffff1673ffffffffffffffffffffffffffffffffffffffff1663e8e337008a86868c61126891906126c9565b866000808d426040518963ffffffff1660e01b8152600401611291989796959493929190612a2d565b6060604051808303816000875af11580156112b0573d6000803e3d6000fd5b505050506040513d601f19601f820116820180604052508101906112d49190612aab565b90915090508091505080945050505050949350505050565b600060149054906101000a900460ff161561133c576040517f08c379a0000000000000000000000000000000000000000000000000000000008152600401611333906124e8565b60405180910390fd5b6001600060146101000a81548160ff021916908315150217905550600080339050803b9150600082146113a4576040517f08c379a000000000000000000000000000000000000000000000000000000000815260040161139b90612554565b60405180910390fd5b3373ffffffffffffffffffffffffffffffffffffffff163273ffffffffffffffffffffffffffffffffffffffff1614611412576040517f08c379a000000000000000000000000000000000000000000000000000000000815260040161140990612554565b60405180910390fd5b60003411611455576040517f08c379a000000000000000000000000000000000000000000000000000000000815260040161144c906125c0565b60405180910390fd5b60006103e860015434611468919061260f565b6114729190612698565b905060008060009054906101000a900473ffffffffffffffffffffffffffffffffffffffff1673ffffffffffffffffffffffffffffffffffffffff16826040516114bb9061279a565b60006040518083038185875af1925050503d80600081146114f8576040519150601f19603f3d011682016040523d82523d6000602084013e6114fd565b606091505b5050905080611541576040517f08c379a0000000000000000000000000000000000000000000000000000000008152600401611538906127fb565b60405180910390fd5b61155785833461155191906126c9565b336118cc565b505050505060008060146101000a81548160ff02191690831515021790555050565b600360009054906101000a900473ffffffffffffffffffffffffffffffffffffffff1681565b611622846323b872dd60e01b8585856040516024016115c093929190612afe565b604051602081830303815290604052907bffffffffffffffffffffffffffffffffffffffffffffffffffffffff19166020820180517bffffffffffffffffffffffffffffffffffffffffffffffffffffffff8381831617835250505050611afc565b50505050565b60008273ffffffffffffffffffffffffffffffffffffffff1663dd62ed3e30846040518363ffffffff1660e01b8152600401611665929190612b35565b602060405180830381865afa158015611682573d6000803e3d6000fd5b505050506040513d601f19601f820116820180604052508101906116a6919061285a565b036116f7576116f6817fffffffffffffffffffffffffffffffffffffffffffffffffffffffffffffffff8473ffffffffffffffffffffffffffffffffffffffff16611bc39092919063ffffffff16565b5b5050565b600080600267ffffffffffffffff81111561171957611718612b5e565b5b6040519080825280602002602001820160405280156117475781602001602082028036833780820191505090505b509050858160008151811061175f5761175e612b8d565b5b602002602001019073ffffffffffffffffffffffffffffffffffffffff16908173ffffffffffffffffffffffffffffffffffffffff168152505083816001815181106117ae576117ad612b8d565b5b602002602001019073ffffffffffffffffffffffffffffffffffffffff16908173ffffffffffffffffffffffffffffffffffffffff16815250506000600260009054906101000a900473ffffffffffffffffffffffffffffffffffffffff1673ffffffffffffffffffffffffffffffffffffffff166338ed17398760008588426040518663ffffffff1660e01b815260040161184e959493929190612c7a565b6000604051808303816000875af115801561186d573d6000803e3d6000fd5b505050506040513d6000823e3d601f19601f820116820180604052508101906118969190612dfe565b905080600182516118a791906126c9565b815181106118b8576118b7612b8d565b5b602002602001015192505050949350505050565b60008084905060008173ffffffffffffffffffffffffffffffffffffffff16630dfe16816040518163ffffffff1660e01b8152600401602060405180830381865afa15801561191f573d6000803e3d6000fd5b505050506040513d601f19601f820116820180604052508101906119439190612959565b905060008273ffffffffffffffffffffffffffffffffffffffff1663d21220a76040518163ffffffff1660e01b8152600401602060405180830381865afa158015611992573d6000803e3d6000fd5b505050506040513d601f19601f820116820180604052508101906119b69190612959565b90506000730d500b1d8e8ef31e21c99d1db9a6444d3adf127073ffffffffffffffffffffffffffffffffffffffff168373ffffffffffffffffffffffffffffffffffffffff161480611a475750730d500b1d8e8ef31e21c99d1db9a6444d3adf127073ffffffffffffffffffffffffffffffffffffffff168273ffffffffffffffffffffffffffffffffffffffff16145b611a86576040517f08c379a0000000000000000000000000000000000000000000000000000000008152600401611a7d906129d2565b60405180910390fd5b6000730d500b1d8e8ef31e21c99d1db9a6444d3adf127073ffffffffffffffffffffffffffffffffffffffff168473ffffffffffffffffffffffffffffffffffffffff1614611ad55783611ad7565b825b9050611ae4818989611d12565b90915090508092505081955050505050509392505050565b6000611b5e826040518060400160405280602081526020017f5361666545524332303a206c6f772d6c6576656c2063616c6c206661696c65648152508573ffffffffffffffffffffffffffffffffffffffff16611e1a9092919063ffffffff16565b9050600081511115611bbe5780806020019051810190611b7e9190612917565b611bbd576040517f08c379a0000000000000000000000000000000000000000000000000000000008152600401611bb490612eb9565b60405180910390fd5b5b505050565b6000811480611c4d575060008373ffffffffffffffffffffffffffffffffffffffff1663dd62ed3e30856040518363ffffffff1660e01b8152600401611c0a929190612b35565b602060405180830381865afa158015611c27573d6000803e3d6000fd5b505050506040513d601f19601f82011682018060405250810190611c4b919061285a565b145b611c8c576040517f08c379a0000000000000000000000000000000000000000000000000000000008152600401611c8390612f4b565b60405180910390fd5b611d0d8363095ea7b360e01b8484604051602401611cab929190612f6b565b604051602081830303815290604052907bffffffffffffffffffffffffffffffffffffffffffffffffffffffff19166020820180517bffffffffffffffffffffffffffffffffffffffffffffffffffffffff8381831617835250505050611afc565b505050565b600080600080600286611d259190612698565b90506000611d34888330611e32565b9050611d54887351aba405de2b25e5506dea32a6697f450ceb1a17611628565b600260009054906101000a900473ffffffffffffffffffffffffffffffffffffffff1673ffffffffffffffffffffffffffffffffffffffff1663f305d7198389611d9e91906126c9565b8a846000808c426040518863ffffffff1660e01b8152600401611dc696959493929190612f94565b60606040518083038185885af1158015611de4573d6000803e3d6000fd5b50505050506040513d601f19601f82011682018060405250810190611e099190612aab565b945094509450505093509350939050565b6060611e298484600085612015565b90509392505050565b600080600267ffffffffffffffff811115611e5057611e4f612b5e565b5b604051908082528060200260200182016040528015611e7e5781602001602082028036833780820191505090505b509050730d500b1d8e8ef31e21c99d1db9a6444d3adf127081600081518110611eaa57611ea9612b8d565b5b602002602001019073ffffffffffffffffffffffffffffffffffffffff16908173ffffffffffffffffffffffffffffffffffffffff16815250508481600181518110611ef957611ef8612b8d565b5b602002602001019073ffffffffffffffffffffffffffffffffffffffff16908173ffffffffffffffffffffffffffffffffffffffff16815250506000600260009054906101000a900473ffffffffffffffffffffffffffffffffffffffff1673ffffffffffffffffffffffffffffffffffffffff16637ff36ab58660008588426040518663ffffffff1660e01b8152600401611f989493929190612ff5565b60006040518083038185885af1158015611fb6573d6000803e3d6000fd5b50505050506040513d6000823e3d601f19601f82011682018060405250810190611fe09190612dfe565b90508060018251611ff191906126c9565b8151811061200257612001612b8d565b5b6020026020010151925050509392505050565b60608247101561205a576040517f08c379a0000000000000000000000000000000000000000000000000000000008152600401612051906130b3565b60405180910390fd5b61206385612129565b6120a2576040517f08c379a00000000000000000000000000000000000000000000000000000000081526004016120999061311f565b60405180910390fd5b6000808673ffffffffffffffffffffffffffffffffffffffff1685876040516120cb91906131a5565b60006040518083038185875af1925050503d8060008114612108576040519150601f19603f3d011682016040523d82523d6000602084013e61210d565b606091505b509150915061211d82828661214c565b92505050949350505050565b6000808273ffffffffffffffffffffffffffffffffffffffff163b119050919050565b6060831561215c578290506121ac565b60008351111561216f5782518084602001fd5b816040517f08c379a00000000000000000000000000000000000000000000000000000000081526004016121a39190613200565b60405180910390fd5b9392505050565b6000819050919050565b6121c6816121b3565b82525050565b60006020820190506121e160008301846121bd565b92915050565b6000604051905090565b600080fd5b600080fd5b600073ffffffffffffffffffffffffffffffffffffffff82169050919050565b6000612226826121fb565b9050919050565b6122368161221b565b811461224157600080fd5b50565b6000813590506122538161222d565b92915050565b612262816121b3565b811461226d57600080fd5b50565b60008135905061227f81612259565b92915050565b60008060006060848603121561229e5761229d6121f1565b5b60006122ac86828701612244565b93505060206122bd86828701612270565b92505060406122ce86828701612244565b9150509250925092565b6000602082840312156122ee576122ed6121f1565b5b60006122fc84828501612270565b91505092915050565b6000819050919050565b600061232a612325612320846121fb565b612305565b6121fb565b9050919050565b600061233c8261230f565b9050919050565b600061234e82612331565b9050919050565b61235e81612343565b82525050565b60006020820190506123796000830184612355565b92915050565b600061238a826121fb565b9050919050565b61239a8161237f565b82525050565b60006020820190506123b56000830184612391565b92915050565b6000602082840312156123d1576123d06121f1565b5b60006123df84828501612244565b91505092915050565b60008060008060808587031215612402576124016121f1565b5b600061241087828801612244565b945050602061242187828801612270565b935050604061243287828801612244565b925050606061244387828801612244565b91505092959194509250565b600061245a82612331565b9050919050565b61246a8161244f565b82525050565b60006020820190506124856000830184612461565b92915050565b600082825260208201905092915050565b7f4e6f207265656e7472616e637900000000000000000000000000000000000000600082015250565b60006124d2600d8361248b565b91506124dd8261249c565b602082019050919050565b60006020820190508181036000830152612501816124c5565b9050919050565b7f436f6e74726163747320617265206e6f7420616c6c6f77656400000000000000600082015250565b600061253e60198361248b565b915061254982612508565b602082019050919050565b6000602082019050818103600083015261256d81612531565b9050919050565b7f496e76616c6964207a617020616d6f756e740000000000000000000000000000600082015250565b60006125aa60128361248b565b91506125b582612574565b602082019050919050565b600060208201905081810360008301526125d98161259d565b9050919050565b7f4e487b7100000000000000000000000000000000000000000000000000000000600052601160045260246000fd5b600061261a826121b3565b9150612625836121b3565b9250817fffffffffffffffffffffffffffffffffffffffffffffffffffffffffffffffff048311821515161561265e5761265d6125e0565b5b828202905092915050565b7f4e487b7100000000000000000000000000000000000000000000000000000000600052601260045260246000fd5b60006126a3826121b3565b91506126ae836121b3565b9250826126be576126bd612669565b5b828204905092915050565b60006126d4826121b3565b91506126df836121b3565b92508282039050818111156126f7576126f66125e0565b5b92915050565b7f496e73756666696369656e742062616c616e6365000000000000000000000000600082015250565b600061273360148361248b565b915061273e826126fd565b602082019050919050565b6000602082019050818103600083015261276281612726565b9050919050565b600081905092915050565b50565b6000612784600083612769565b915061278f82612774565b600082019050919050565b60006127a582612777565b9150819050919050565b7f4661696c656420746f2073656e64000000000000000000000000000000000000600082015250565b60006127e5600e8361248b565b91506127f0826127af565b602082019050919050565b60006020820190508181036000830152612814816127d8565b9050919050565b6128248161221b565b82525050565b600060208201905061283f600083018461281b565b92915050565b60008151905061285481612259565b92915050565b6000602082840312156128705761286f6121f1565b5b600061287e84828501612845565b91505092915050565b600061289282612331565b9050919050565b6128a281612887565b82525050565b60006060820190506128bd600083018661281b565b6128ca6020830185612899565b6128d760408301846121bd565b949350505050565b60008115159050919050565b6128f4816128df565b81146128ff57600080fd5b50565b600081519050612911816128eb565b92915050565b60006020828403121561292d5761292c6121f1565b5b600061293b84828501612902565b91505092915050565b6000815190506129538161222d565b92915050565b60006020828403121561296f5761296e6121f1565b5b600061297d84828501612944565b91505092915050565b7f446972656374207a617073206f6e6c7900000000000000000000000000000000600082015250565b60006129bc60108361248b565b91506129c782612986565b602082019050919050565b600060208201905081810360008301526129eb816129af565b9050919050565b6000819050919050565b6000612a17612a12612a0d846129f2565b612305565b6121b3565b9050919050565b612a27816129fc565b82525050565b600061010082019050612a43600083018b61281b565b612a50602083018a61281b565b612a5d60408301896121bd565b612a6a60608301886121bd565b612a776080830187612a1e565b612a8460a0830186612a1e565b612a9160c083018561281b565b612a9e60e08301846121bd565b9998505050505050505050565b600080600060608486031215612ac457612ac36121f1565b5b6000612ad286828701612845565b9350506020612ae386828701612845565b9250506040612af486828701612845565b9150509250925092565b6000606082019050612b13600083018661281b565b612b20602083018561281b565b612b2d60408301846121bd565b949350505050565b6000604082019050612b4a600083018561281b565b612b57602083018461281b565b9392505050565b7f4e487b7100000000000000000000000000000000000000000000000000000000600052604160045260246000fd5b7f4e487b7100000000000000000000000000000000000000000000000000000000600052603260045260246000fd5b600081519050919050565b600082825260208201905092915050565b6000819050602082019050919050565b612bf18161221b565b82525050565b6000612c038383612be8565b60208301905092915050565b6000602082019050919050565b6000612c2782612bbc565b612c318185612bc7565b9350612c3c83612bd8565b8060005b83811015612c6d578151612c548882612bf7565b9750612c5f83612c0f565b925050600181019050612c40565b5085935050505092915050565b600060a082019050612c8f60008301886121bd565b612c9c6020830187612a1e565b8181036040830152612cae8186612c1c565b9050612cbd606083018561281b565b612cca60808301846121bd565b9695505050505050565b600080fd5b6000601f19601f8301169050919050565b612cf382612cd9565b810181811067ffffffffffffffff82111715612d1257612d11612b5e565b5b80604052505050565b6000612d256121e7565b9050612d318282612cea565b919050565b600067ffffffffffffffff821115612d5157612d50612b5e565b5b602082029050602081019050919050565b600080fd5b6000612d7a612d7584612d36565b612d1b565b90508083825260208201905060208402830185811115612d9d57612d9c612d62565b5b835b81811015612dc65780612db28882612845565b845260208401935050602081019050612d9f565b5050509392505050565b600082601f830112612de557612de4612cd4565b5b8151612df5848260208601612d67565b91505092915050565b600060208284031215612e1457612e136121f1565b5b600082015167ffffffffffffffff811115612e3257612e316121f6565b5b612e3e84828501612dd0565b91505092915050565b7f5361666545524332303a204552433230206f7065726174696f6e20646964206e60008201527f6f74207375636365656400000000000000000000000000000000000000000000602082015250565b6000612ea3602a8361248b565b9150612eae82612e47565b604082019050919050565b60006020820190508181036000830152612ed281612e96565b9050919050565b7f5361666545524332303a20617070726f76652066726f6d206e6f6e2d7a65726f60008201527f20746f206e6f6e2d7a65726f20616c6c6f77616e636500000000000000000000602082015250565b6000612f3560368361248b565b9150612f4082612ed9565b604082019050919050565b60006020820190508181036000830152612f6481612f28565b9050919050565b6000604082019050612f80600083018561281b565b612f8d60208301846121bd565b9392505050565b600060c082019050612fa9600083018961281b565b612fb660208301886121bd565b612fc36040830187612a1e565b612fd06060830186612a1e565b612fdd608083018561281b565b612fea60a08301846121bd565b979650505050505050565b600060808201905061300a6000830187612a1e565b818103602083015261301c8186612c1c565b905061302b604083018561281b565b61303860608301846121bd565b95945050505050565b7f416464726573733a20696e73756666696369656e742062616c616e636520666f60008201527f722063616c6c0000000000000000000000000000000000000000000000000000602082015250565b600061309d60268361248b565b91506130a882613041565b604082019050919050565b600060208201905081810360008301526130cc81613090565b9050919050565b7f416464726573733a2063616c6c20746f206e6f6e2d636f6e7472616374000000600082015250565b6000613109601d8361248b565b9150613114826130d3565b602082019050919050565b60006020820190508181036000830152613138816130fc565b9050919050565b600081519050919050565b60005b8381101561316857808201518184015260208101905061314d565b60008484015250505050565b600061317f8261313f565b6131898185612769565b935061319981856020860161314a565b80840191505092915050565b60006131b18284613174565b915081905092915050565b600081519050919050565b60006131d2826131bc565b6131dc818561248b565b93506131ec81856020860161314a565b6131f581612cd9565b840191505092915050565b6000602082019050818103600083015261321a81846131c7565b90509291505056fea2646970667358221220dc4266d0927442ab583ab0f6f3d987732f691a606e960ff1f0f5c74a80053b1f64736f6c63430008100033",
  "immutableReferences": {},
  "source": "// SPDX-License-Identifier: None\r\n// Saved to 0x917A6b6405EF2bb26D40223c20160cAAd3D9c413\r\n\r\npragma solidity >=0.8.9;\r\nimport \"@openzeppelin/contracts/utils/Address.sol\";\r\nimport \"@openzeppelin/contracts/token/ERC20/IERC20.sol\";\r\nimport \"@openzeppelin/contracts/token/ERC20/utils/SafeERC20.sol\";\r\nimport \"./IMeerkatRouter02.sol\";\r\nimport \"./IMasterChef.sol\";\r\nimport \"./IMeerkatPair.sol\";\r\n\r\ncontract SlartiZapper {\r\n   using SafeERC20 for IERC20;\r\n\r\n   address payable public owner;\r\n   bool private locked;\r\n\r\n   uint256 public callFee = 55; // 0.55%\r\n\r\n   address internal constant MEERKAT_ROUTER_ADDRESS = 0x51aBA405De2b25E5506DeA32A6697F450cEB1a17;\r\n   address internal constant MEERKAT_MASTER_ADDRESS = 0xa2B417088D63400d211A4D5EB3C4C5363f834764;\r\n   address internal constant MMFP_ADDRESS = 0x22a31bD4cB694433B6de19e0aCC2899E553e9481;\r\n   address internal constant WMATIC_ADDRESS = 0x0d500B1d8E8eF31E21C99d1Db9A6444d3ADf1270;\r\n   address internal constant USDC_ADDRESS = 0x2791Bca1f2de4661ED88A30C99A7a9449Aa84174;\r\n   IMeerkatRouter02 public meerkatRouter;\r\n   IMasterChef public meerkatMaster;\r\n\r\n   constructor() {\r\n      owner = payable(msg.sender);\r\n\r\n      meerkatRouter = IMeerkatRouter02(MEERKAT_ROUTER_ADDRESS);\r\n      meerkatMaster = IMasterChef(MEERKAT_MASTER_ADDRESS);\r\n      //meerkatRouterCro = IMeerkatRouter02(MEERKAT_ROUTER_CRO_ADDRESS);\r\n      //meerkatMasterCro = IMasterChef(MEERKAT_MASTER_CRO_ADDRESS);\r\n   }\r\n\r\n   error badAddress();\r\n   error notOwner();\r\n\r\n   // Used address be valid\r\n   modifier validAddress(address _addr) {\r\n      if(_addr == address(0)){\r\n         revert badAddress();\r\n      }\r\n      _;\r\n   }\r\n\r\n   // Owner only function access\r\n   modifier ownerOnly() {\r\n      if(msg.sender != owner){\r\n         revert notOwner();\r\n      }\r\n      _;\r\n   }\r\n\r\n   // No contracts please\r\n   modifier notContract() {\r\n      uint256 size;\r\n      address addr = msg.sender;\r\n      assembly {\r\n         size := extcodesize(addr)\r\n      }\r\n      require(size == 0, \"Contracts are not allowed\");\r\n      require(tx.origin == msg.sender, \"Contracts are not allowed\");\r\n      _;\r\n   }\r\n\r\n   // Prevent a function from being called while it is still executing.\r\n   modifier noReentrancy() {\r\n      require(!locked, \"No reentrancy\");\r\n\r\n      locked = true;\r\n      _;\r\n      locked = false;\r\n   }\r\n\r\n   receive() external payable {}\r\n   fallback() external payable {}\r\n\r\n   //Get the contract balance for the native token\r\n   function getBalance() public view returns (uint) {\r\n      return address(this).balance;\r\n   }\r\n\r\n   // Token zap _from, zapping _amount, LP token zap _to\r\n   function zapInToken(address _from, uint _amount, address _to) external noReentrancy notContract {\r\n      require(_amount > 0, \"Invalid zap amount\");\r\n      // From an ERC20 to an LP token, through specified router, going through base asset if necessary\r\n      //_approveTokenIfNeeded(IERC20(_from), address(this));\r\n      IERC20(_from).safeTransferFrom(msg.sender, address(this), _amount);\r\n\r\n      uint _fee = (_amount * callFee) / 1000; //Call fee subtracted\r\n      _approveTokenIfNeeded(_from, address(this));\r\n      IERC20(_from).safeTransferFrom(address(this), owner, _fee);\r\n      // we'll need this approval to add liquidity\r\n      _approveTokenIfNeeded(_from, MEERKAT_ROUTER_ADDRESS);\r\n      _swapTokenToLP(_from, _amount - _fee, _to, msg.sender);\r\n   }\r\n\r\n   // Token zap _from, LP token zap _to\r\n   function zapInETH(address _to) external payable noReentrancy notContract {\r\n      require(msg.value > 0, \"Invalid zap amount\");\r\n\r\n      uint _fee = (msg.value * callFee) / 1000; //Call fee subtracted\r\n      (bool sent, ) = owner.call{value: _fee}(\"\");\r\n      require(sent, \"Failed to send\");\r\n\r\n      _swapETHToLP(_to, msg.value - _fee, msg.sender);\r\n   }\r\n\r\n   function deposit(uint256 _amt) public payable {\r\n      require(msg.value == _amt);\r\n   }\r\n\r\n   function toContract(uint256 _amt) public payable noReentrancy{\r\n      require(msg.sender.balance > _amt, \"Insufficient balance\");\r\n      (bool sent, ) = payable(address(this)).call{value: _amt}(\"\");\r\n      require(sent, \"Failed to send\");\r\n   }\r\n\r\n   function withdraw() public ownerOnly{\r\n      owner.transfer(payable(address(this)).balance);\r\n   }\r\n\r\n   function contractWithdrawToken(address _addr) public noReentrancy validAddress(_addr) ownerOnly{\r\n      IERC20 _token = IERC20(_addr);\r\n      bool sent = _token.transferFrom(address(this), owner, _token.balanceOf(address(this)));\r\n      require(sent, \"Failed to send\");\r\n   }\r\n\r\n   function withdrawAll() public ownerOnly{\r\n      owner.transfer(payable(address(this)).balance);\r\n      IERC20 _token = IERC20(MMFP_ADDRESS);\r\n      bool sent = _token.transferFrom(address(this), owner, _token.balanceOf(address(this)));\r\n      require(sent, \"Failed to send\");\r\n      _token = IERC20(USDC_ADDRESS);\r\n      sent = _token.transferFrom(address(this), owner, _token.balanceOf(address(this)));\r\n      require(sent, \"Failed to send\");\r\n   }\r\n\r\n   /* -- Internal functions -- */\r\n   function _approveTokenIfNeeded(address token, address router) private {\r\n      if (IERC20(token).allowance(address(this), router) == 0) {\r\n         IERC20(token).safeApprove(router, type(uint).max);\r\n      }\r\n   }\r\n\r\n   function _swapTokenToLP(address _from, uint _amount, address _to, address _recipient) public payable returns (uint) {\r\n      require(_from == IMeerkatPair(_to).token0() || _from == IMeerkatPair(_to).token1(), \"Direct zaps only\");\r\n      // get pairs for desired lp\r\n      // if so, we're going to sell half of _from for the other token we need\r\n      // figure out which token we need, and approve\r\n      address other = _from == IMeerkatPair(_to).token0() ? IMeerkatPair(_to).token1() : IMeerkatPair(_to).token0();\r\n      _approveTokenIfNeeded(other, MEERKAT_ROUTER_ADDRESS);\r\n      // calculate amount of _from to sell\r\n      uint sellAmount = _amount / 2;\r\n      // execute swap\r\n      uint otherAmount = _swap(_from, sellAmount, other, address(this));\r\n      uint liquidity;\r\n      ( , , liquidity) = meerkatRouter.addLiquidity(_from, other, (_amount - sellAmount), otherAmount, 0, 0, _recipient, block.timestamp);\r\n      return liquidity;\r\n   }\r\n\r\n   function _swap(address _from, uint amount, address _to, address recipient) private returns (uint) {\r\n      address[] memory path = new address[](2);\r\n      path[0] = _from;\r\n      path[1] = _to;\r\n\r\n      uint[] memory amounts = meerkatRouter.swapExactTokensForTokens(amount, 0, path, recipient, block.timestamp);\r\n      return amounts[amounts.length - 1];\r\n   }\r\n\r\n   function _swapETHToLP(address _LP, uint _amount, address _recipient) private returns (uint) {\r\n      IMeerkatPair pair = IMeerkatPair(_LP);\r\n      address token0 = pair.token0();\r\n      address token1 = pair.token1();\r\n      uint liquidity;\r\n      require(token0 == WMATIC_ADDRESS || token1 == WMATIC_ADDRESS, \"Direct zaps only\");\r\n      address token = token0 == WMATIC_ADDRESS ? token1 : token0;\r\n      ( , , liquidity) = _swapHalfETHAndProvide(token, _amount, _recipient);\r\n      return liquidity;\r\n   }\r\n\r\n   function _swapHalfETHAndProvide(address _token, uint _amount, address _recipient) private returns (uint, uint, uint) {\r\n      uint swapValue = _amount / 2;\r\n      uint tokenAmount = _swapETHForToken(_token, swapValue, address(this));\r\n      _approveTokenIfNeeded(_token, MEERKAT_ROUTER_ADDRESS);\r\n      return meerkatRouter.addLiquidityETH{value : _amount - swapValue}(_token, tokenAmount, 0, 0, _recipient, block.timestamp);\r\n   }\r\n\r\n   function _swapETHForToken(address _token, uint _value, address _recipient) private returns (uint) {\r\n      address[] memory _path = new address[](2);\r\n      _path[0] = WMATIC_ADDRESS;\r\n      _path[1] = _token;\r\n\r\n      uint[] memory amounts = meerkatRouter.swapExactETHForTokens{value : _value}(0, _path, _recipient, block.timestamp);\r\n      return amounts[amounts.length - 1];\r\n   }\r\n}",
  "sourcePath": "D:\\Web dev\\game_vault\\contracts\\SlartiZapper.sol",
  "compiler": {
    "name": "solc",
    "version": "0.8.16+commit.07a7930e.Emscripten.clang"
  },
  "schemaVersion": "3.4.8",
  "updatedAt": "2022-09-04T07:24:05.292Z",
  "networkType": "ethereum",
  "devdoc": {
    "kind": "dev",
    "methods": {},
    "version": 1
  },
  "userdoc": {
    "kind": "user",
    "methods": {},
    "version": 1
  }
}