{
  "contractName": "VogonRouter",
  "abi": [
    {
      "inputs": [],
      "stateMutability": "nonpayable",
      "type": "constructor"
    },
    {
      "inputs": [],
      "name": "badAddress",
      "type": "error"
    },
    {
      "inputs": [],
      "name": "notOwner",
      "type": "error"
    },
    {
      "anonymous": false,
      "inputs": [
        {
          "indexed": false,
          "internalType": "address",
          "name": "addr",
          "type": "address"
        }
      ],
      "name": "TokenAdded",
      "type": "event"
    },
    {
      "stateMutability": "payable",
      "type": "fallback",
      "payable": true
    },
    {
      "inputs": [],
      "name": "callFee",
      "outputs": [
        {
          "internalType": "uint256",
          "name": "",
          "type": "uint256"
        }
      ],
      "stateMutability": "view",
      "type": "function",
      "constant": true
    },
    {
      "inputs": [],
      "name": "meerkatMaster",
      "outputs": [
        {
          "internalType": "contract IMasterChef",
          "name": "",
          "type": "address"
        }
      ],
      "stateMutability": "view",
      "type": "function",
      "constant": true
    },
    {
      "inputs": [],
      "name": "meerkatRouter",
      "outputs": [
        {
          "internalType": "contract IMeerkatRouter02",
          "name": "",
          "type": "address"
        }
      ],
      "stateMutability": "view",
      "type": "function",
      "constant": true
    },
    {
      "inputs": [],
      "name": "owner",
      "outputs": [
        {
          "internalType": "address payable",
          "name": "",
          "type": "address"
        }
      ],
      "stateMutability": "view",
      "type": "function",
      "constant": true
    },
    {
      "inputs": [],
      "name": "performanceFee",
      "outputs": [
        {
          "internalType": "uint256",
          "name": "",
          "type": "uint256"
        }
      ],
      "stateMutability": "view",
      "type": "function",
      "constant": true
    },
    {
      "inputs": [],
      "name": "withdrawFee",
      "outputs": [
        {
          "internalType": "uint256",
          "name": "",
          "type": "uint256"
        }
      ],
      "stateMutability": "view",
      "type": "function",
      "constant": true
    },
    {
      "inputs": [],
      "name": "withdrawFeePeriod",
      "outputs": [
        {
          "internalType": "uint256",
          "name": "",
          "type": "uint256"
        }
      ],
      "stateMutability": "view",
      "type": "function",
      "constant": true
    },
    {
      "stateMutability": "payable",
      "type": "receive",
      "payable": true
    },
    {
      "inputs": [],
      "name": "getBalance",
      "outputs": [
        {
          "internalType": "uint256",
          "name": "",
          "type": "uint256"
        }
      ],
      "stateMutability": "view",
      "type": "function",
      "constant": true
    },
    {
      "inputs": [
        {
          "internalType": "address",
          "name": "_addr",
          "type": "address"
        }
      ],
      "name": "addNewToken",
      "outputs": [],
      "stateMutability": "nonpayable",
      "type": "function"
    },
    {
      "inputs": [
        {
          "internalType": "address",
          "name": "_from",
          "type": "address"
        },
        {
          "internalType": "uint256",
          "name": "_amount",
          "type": "uint256"
        },
        {
          "internalType": "address",
          "name": "_to",
          "type": "address"
        }
      ],
      "name": "zapInToken",
      "outputs": [],
      "stateMutability": "payable",
      "type": "function",
      "payable": true
    },
    {
      "inputs": [
        {
          "internalType": "address",
          "name": "_to",
          "type": "address"
        }
      ],
      "name": "zapInETH",
      "outputs": [],
      "stateMutability": "payable",
      "type": "function",
      "payable": true
    },
    {
      "inputs": [
        {
          "internalType": "uint256",
          "name": "_pid",
          "type": "uint256"
        },
        {
          "internalType": "uint256",
          "name": "_amount",
          "type": "uint256"
        }
      ],
      "name": "withdrawFromFarm",
      "outputs": [],
      "stateMutability": "payable",
      "type": "function",
      "payable": true
    },
    {
      "inputs": [
        {
          "internalType": "address",
          "name": "_addr",
          "type": "address"
        },
        {
          "internalType": "uint256",
          "name": "_amt",
          "type": "uint256"
        }
      ],
      "name": "recieveToken",
      "outputs": [],
      "stateMutability": "payable",
      "type": "function",
      "payable": true
    },
    {
      "inputs": [
        {
          "internalType": "uint256",
          "name": "_amt",
          "type": "uint256"
        }
      ],
      "name": "deposit",
      "outputs": [],
      "stateMutability": "payable",
      "type": "function",
      "payable": true
    },
    {
      "inputs": [
        {
          "internalType": "uint256",
          "name": "_amt",
          "type": "uint256"
        }
      ],
      "name": "toContract",
      "outputs": [],
      "stateMutability": "payable",
      "type": "function",
      "payable": true
    },
    {
      "inputs": [],
      "name": "withdraw",
      "outputs": [],
      "stateMutability": "nonpayable",
      "type": "function"
    },
    {
      "inputs": [
        {
          "internalType": "address",
          "name": "_addr",
          "type": "address"
        }
      ],
      "name": "contractWithdrawToken",
      "outputs": [],
      "stateMutability": "nonpayable",
      "type": "function"
    },
    {
      "inputs": [
        {
          "internalType": "address",
          "name": "_addr",
          "type": "address"
        }
      ],
      "name": "withdrawAll",
      "outputs": [],
      "stateMutability": "nonpayable",
      "type": "function"
    },
    {
      "inputs": [
        {
          "internalType": "address",
          "name": "_from",
          "type": "address"
        },
        {
          "internalType": "uint256",
          "name": "_amount",
          "type": "uint256"
        },
        {
          "internalType": "address",
          "name": "_to",
          "type": "address"
        },
        {
          "internalType": "address",
          "name": "_recipient",
          "type": "address"
        }
      ],
      "name": "_swapTokenToLP",
      "outputs": [
        {
          "internalType": "uint256",
          "name": "",
          "type": "uint256"
        }
      ],
      "stateMutability": "payable",
      "type": "function",
      "payable": true
    }
  ],
  "bytecode": "0x60806040526101f4600255604b60035560326004556203f4806005553480156200002857600080fd5b50336000806101000a81548173ffffffffffffffffffffffffffffffffffffffff021916908373ffffffffffffffffffffffffffffffffffffffff1602179055507322a31bd4cb694433b6de19e0acc2899e553e9481600160007322a31bd4cb694433b6de19e0acc2899e553e948173ffffffffffffffffffffffffffffffffffffffff1673ffffffffffffffffffffffffffffffffffffffff16815260200190815260200160002060006101000a81548173ffffffffffffffffffffffffffffffffffffffff021916908373ffffffffffffffffffffffffffffffffffffffff160217905550600160007322a31bd4cb694433b6de19e0acc2899e553e948173ffffffffffffffffffffffffffffffffffffffff1673ffffffffffffffffffffffffffffffffffffffff16815260200190815260200160002060009054906101000a900473ffffffffffffffffffffffffffffffffffffffff1673ffffffffffffffffffffffffffffffffffffffff1663095ea7b3307f80000000000000000000000000000000000000000000000000000000000000006040518363ffffffff1660e01b8152600401620001df929190620003ae565b6020604051808303816000875af1158015620001ff573d6000803e3d6000fd5b505050506040513d601f19601f820116820180604052508101906200022591906200041d565b507351aba405de2b25e5506dea32a6697f450ceb1a17600660006101000a81548173ffffffffffffffffffffffffffffffffffffffff021916908373ffffffffffffffffffffffffffffffffffffffff16021790555073a2b417088d63400d211a4d5eb3c4c5363f834764600760006101000a81548173ffffffffffffffffffffffffffffffffffffffff021916908373ffffffffffffffffffffffffffffffffffffffff1602179055506200044f565b600073ffffffffffffffffffffffffffffffffffffffff82169050919050565b6000819050919050565b6000620003216200031b6200031584620002d6565b620002f6565b620002d6565b9050919050565b6000620003358262000300565b9050919050565b6000620003498262000328565b9050919050565b6200035b816200033c565b82525050565b6000819050919050565b6000819050919050565b600062000396620003906200038a8462000361565b620002f6565b6200036b565b9050919050565b620003a88162000375565b82525050565b6000604082019050620003c5600083018562000350565b620003d460208301846200039d565b9392505050565b600080fd5b60008115159050919050565b620003f781620003e0565b81146200040357600080fd5b50565b6000815190506200041781620003ec565b92915050565b600060208284031215620004365762000435620003db565b5b6000620004468482850162000406565b91505092915050565b61469a806200045f6000396000f3fe6080604052600436106101185760003560e01c80638da5cb5b116100a0578063e941fa7811610064578063e941fa7814610318578063f1bf177814610343578063f34c72cd14610373578063fa09e6301461038f578063fb96f1a4146103b85761011f565b80638da5cb5b1461025257806390321e1a1461027d578063b6b55f25146102a8578063d7567438146102c4578063df10b4e6146102ed5761011f565b80633ccfd60b116100e75780633ccfd60b146101a057806364db444a146101b75780636e21950f146101e05780637f5c3c82146101fc57806387788782146102275761011f565b806312065fe0146101215780631c4009f91461014c57806321eebef214610168578063290a2774146101845761011f565b3661011f57005b005b34801561012d57600080fd5b506101366103e3565b60405161014391906132b1565b60405180910390f35b6101666004803603810190610161919061336a565b6103eb565b005b610182600480360381019061017d91906133bd565b610645565b005b61019e600480360381019061019991906133fd565b610a95565b005b3480156101ac57600080fd5b506101b5610c23565b005b3480156101c357600080fd5b506101de60048036038101906101d9919061342a565b610d28565b005b6101fa60048036038101906101f59190613457565b611050565b005b34801561020857600080fd5b506102116114c6565b60405161021e91906134f6565b60405180910390f35b34801561023357600080fd5b5061023c6114ec565b60405161024991906132b1565b60405180910390f35b34801561025e57600080fd5b506102676114f2565b6040516102749190613532565b60405180910390f35b34801561028957600080fd5b50610292611516565b60405161029f91906132b1565b60405180910390f35b6102c260048036038101906102bd91906133fd565b61151c565b005b3480156102d057600080fd5b506102eb60048036038101906102e6919061342a565b61152b565b005b3480156102f957600080fd5b506103026118bc565b60405161030f91906132b1565b60405180910390f35b34801561032457600080fd5b5061032d6118c2565b60405161033a91906132b1565b60405180910390f35b61035d6004803603810190610358919061354d565b6118c8565b60405161036a91906132b1565b60405180910390f35b61038d6004803603810190610388919061342a565b611ce4565b005b34801561039b57600080fd5b506103b660048036038101906103b1919061342a565b611f71565b005b3480156103c457600080fd5b506103cd612293565b6040516103da91906135d5565b60405180910390f35b600047905090565b600060149054906101000a900460ff161561043b576040517f08c379a00000000000000000000000000000000000000000000000000000000081526004016104329061364d565b60405180910390fd5b6001600060146101000a81548160ff021916908315150217905550600080339050803b9150600082146104a3576040517f08c379a000000000000000000000000000000000000000000000000000000000815260040161049a906136b9565b60405180910390fd5b3373ffffffffffffffffffffffffffffffffffffffff163273ffffffffffffffffffffffffffffffffffffffff1614610511576040517f08c379a0000000000000000000000000000000000000000000000000000000008152600401610508906136b9565b60405180910390fd5b60008411610554576040517f08c379a000000000000000000000000000000000000000000000000000000000815260040161054b90613725565b60405180910390fd5b6105813330868873ffffffffffffffffffffffffffffffffffffffff166122b9909392919063ffffffff16565b60006103e8600354866105949190613774565b61059e91906137fd565b90506105ed3060008054906101000a900473ffffffffffffffffffffffffffffffffffffffff16838973ffffffffffffffffffffffffffffffffffffffff166122b9909392919063ffffffff16565b61060b867351aba405de2b25e5506dea32a6697f450ceb1a17612342565b61062286828761061b919061382e565b86336118c8565b5050505060008060146101000a81548160ff021916908315150217905550505050565b600060149054906101000a900460ff1615610695576040517f08c379a000000000000000000000000000000000000000000000000000000000815260040161068c9061364d565b60405180910390fd5b6001600060146101000a81548160ff02191690831515021790555081600073ffffffffffffffffffffffffffffffffffffffff168173ffffffffffffffffffffffffffffffffffffffff1603610717576040517f021d9f5800000000000000000000000000000000000000000000000000000000815260040160405180910390fd5b828280600160008473ffffffffffffffffffffffffffffffffffffffff1673ffffffffffffffffffffffffffffffffffffffff16815260200190815260200160002060009054906101000a900473ffffffffffffffffffffffffffffffffffffffff1673ffffffffffffffffffffffffffffffffffffffff1663dd62ed3e33306040518363ffffffff1660e01b81526004016107b4929190613871565b602060405180830381865afa1580156107d1573d6000803e3d6000fd5b505050506040513d601f19601f820116820180604052508101906107f591906138af565b1015610836576040517f08c379a000000000000000000000000000000000000000000000000000000000815260040161082d90613928565b60405180910390fd5b83600160008773ffffffffffffffffffffffffffffffffffffffff1673ffffffffffffffffffffffffffffffffffffffff16815260200190815260200160002060009054906101000a900473ffffffffffffffffffffffffffffffffffffffff1673ffffffffffffffffffffffffffffffffffffffff166370a08231336040518263ffffffff1660e01b81526004016108cf9190613948565b602060405180830381865afa1580156108ec573d6000803e3d6000fd5b505050506040513d601f19601f8201168201806040525081019061091091906138af565b11610950576040517f08c379a0000000000000000000000000000000000000000000000000000000008152600401610947906139af565b60405180910390fd5b6000600160008773ffffffffffffffffffffffffffffffffffffffff1673ffffffffffffffffffffffffffffffffffffffff16815260200190815260200160002060009054906101000a900473ffffffffffffffffffffffffffffffffffffffff1673ffffffffffffffffffffffffffffffffffffffff166323b872dd3330886040518463ffffffff1660e01b81526004016109ee939291906139f0565b6020604051808303816000875af1158015610a0d573d6000803e3d6000fd5b505050506040513d601f19601f82011682018060405250810190610a319190613a5f565b905080610a73576040517f08c379a0000000000000000000000000000000000000000000000000000000008152600401610a6a90613ad8565b60405180910390fd5b5050505060008060146101000a81548160ff0219169083151502179055505050565b600060149054906101000a900460ff1615610ae5576040517f08c379a0000000000000000000000000000000000000000000000000000000008152600401610adc9061364d565b60405180910390fd5b6001600060146101000a81548160ff021916908315150217905550803373ffffffffffffffffffffffffffffffffffffffff163111610b59576040517f08c379a0000000000000000000000000000000000000000000000000000000008152600401610b50906139af565b60405180910390fd5b60003073ffffffffffffffffffffffffffffffffffffffff1682604051610b7f90613b29565b60006040518083038185875af1925050503d8060008114610bbc576040519150601f19603f3d011682016040523d82523d6000602084013e610bc1565b606091505b5050905080610c05576040517f08c379a0000000000000000000000000000000000000000000000000000000008152600401610bfc90613ad8565b60405180910390fd5b5060008060146101000a81548160ff02191690831515021790555050565b60008054906101000a900473ffffffffffffffffffffffffffffffffffffffff1673ffffffffffffffffffffffffffffffffffffffff163373ffffffffffffffffffffffffffffffffffffffff1614610ca8576040517f251c9d6300000000000000000000000000000000000000000000000000000000815260040160405180910390fd5b60008054906101000a900473ffffffffffffffffffffffffffffffffffffffff1673ffffffffffffffffffffffffffffffffffffffff166108fc3073ffffffffffffffffffffffffffffffffffffffff16319081150290604051600060405180830381858888f19350505050158015610d25573d6000803e3d6000fd5b50565b60008054906101000a900473ffffffffffffffffffffffffffffffffffffffff1673ffffffffffffffffffffffffffffffffffffffff163373ffffffffffffffffffffffffffffffffffffffff1614610dad576040517f251c9d6300000000000000000000000000000000000000000000000000000000815260040160405180910390fd5b600060149054906101000a900460ff1615610dfd576040517f08c379a0000000000000000000000000000000000000000000000000000000008152600401610df49061364d565b60405180910390fd5b6001600060146101000a81548160ff02191690831515021790555080600073ffffffffffffffffffffffffffffffffffffffff168173ffffffffffffffffffffffffffffffffffffffff1603610e7f576040517f021d9f5800000000000000000000000000000000000000000000000000000000815260040160405180910390fd5b81600160008473ffffffffffffffffffffffffffffffffffffffff1673ffffffffffffffffffffffffffffffffffffffff16815260200190815260200160002060006101000a81548173ffffffffffffffffffffffffffffffffffffffff021916908373ffffffffffffffffffffffffffffffffffffffff160217905550600160008373ffffffffffffffffffffffffffffffffffffffff1673ffffffffffffffffffffffffffffffffffffffff16815260200190815260200160002060009054906101000a900473ffffffffffffffffffffffffffffffffffffffff1673ffffffffffffffffffffffffffffffffffffffff1663095ea7b3307f80000000000000000000000000000000000000000000000000000000000000006040518363ffffffff1660e01b8152600401610fb7929190613b79565b6020604051808303816000875af1158015610fd6573d6000803e3d6000fd5b505050506040513d601f19601f82011682018060405250810190610ffa9190613a5f565b507f784c8f4dbf0ffedd6e72c76501c545a70f8b203b30a26ce542bf92ba87c248a48260405161102a9190613948565b60405180910390a15060008060146101000a81548160ff02191690831515021790555050565b600060149054906101000a900460ff16156110a0576040517f08c379a00000000000000000000000000000000000000000000000000000000081526004016110979061364d565b60405180910390fd5b6001600060146101000a81548160ff021916908315150217905550600081116110fe576040517f08c379a00000000000000000000000000000000000000000000000000000000081526004016110f590613bee565b60405180910390fd5b6000600160007322a31bd4cb694433b6de19e0acc2899e553e948173ffffffffffffffffffffffffffffffffffffffff1673ffffffffffffffffffffffffffffffffffffffff16815260200190815260200160002060009054906101000a900473ffffffffffffffffffffffffffffffffffffffff1673ffffffffffffffffffffffffffffffffffffffff166370a08231306040518263ffffffff1660e01b81526004016111ac9190613948565b602060405180830381865afa1580156111c9573d6000803e3d6000fd5b505050506040513d601f19601f820116820180604052508101906111ed91906138af565b90506000600760009054906101000a900473ffffffffffffffffffffffffffffffffffffffff1673ffffffffffffffffffffffffffffffffffffffff166393f1a40b85306040518363ffffffff1660e01b815260040161124e929190613c0e565b6040805180830381865afa15801561126a573d6000803e3d6000fd5b505050506040513d601f19601f8201168201806040525081019061128e9190613c37565b509050828110156112d4576040517f08c379a00000000000000000000000000000000000000000000000000000000081526004016112cb90613cc3565b60405180910390fd5b600760009054906101000a900473ffffffffffffffffffffffffffffffffffffffff1673ffffffffffffffffffffffffffffffffffffffff1663441a3e7085856040518363ffffffff1660e01b8152600401611331929190613ce3565b600060405180830381600087803b15801561134b57600080fd5b505af115801561135f573d6000803e3d6000fd5b505050508282600160007322a31bd4cb694433b6de19e0acc2899e553e948173ffffffffffffffffffffffffffffffffffffffff1673ffffffffffffffffffffffffffffffffffffffff16815260200190815260200160002060009054906101000a900473ffffffffffffffffffffffffffffffffffffffff1673ffffffffffffffffffffffffffffffffffffffff166370a08231306040518263ffffffff1660e01b81526004016114119190613948565b602060405180830381865afa15801561142e573d6000803e3d6000fd5b505050506040513d601f19601f8201168201806040525081019061145291906138af565b61145c919061382e565b1461149c576040517f08c379a000000000000000000000000000000000000000000000000000000000815260040161149390613d58565b60405180910390fd5b6114a63384612415565b505060008060146101000a81548160ff0219169083151502179055505050565b600660009054906101000a900473ffffffffffffffffffffffffffffffffffffffff1681565b60025481565b60008054906101000a900473ffffffffffffffffffffffffffffffffffffffff1681565b60035481565b80341461152857600080fd5b50565b600060149054906101000a900460ff161561157b576040517f08c379a00000000000000000000000000000000000000000000000000000000081526004016115729061364d565b60405180910390fd5b6001600060146101000a81548160ff02191690831515021790555080600073ffffffffffffffffffffffffffffffffffffffff168173ffffffffffffffffffffffffffffffffffffffff16036115fd576040517f021d9f5800000000000000000000000000000000000000000000000000000000815260040160405180910390fd5b60008054906101000a900473ffffffffffffffffffffffffffffffffffffffff1673ffffffffffffffffffffffffffffffffffffffff163373ffffffffffffffffffffffffffffffffffffffff1614611682576040517f251c9d6300000000000000000000000000000000000000000000000000000000815260040160405180910390fd5b6000600160008473ffffffffffffffffffffffffffffffffffffffff1673ffffffffffffffffffffffffffffffffffffffff16815260200190815260200160002060009054906101000a900473ffffffffffffffffffffffffffffffffffffffff1673ffffffffffffffffffffffffffffffffffffffff166323b872dd3060008054906101000a900473ffffffffffffffffffffffffffffffffffffffff16600160008873ffffffffffffffffffffffffffffffffffffffff1673ffffffffffffffffffffffffffffffffffffffff16815260200190815260200160002060009054906101000a900473ffffffffffffffffffffffffffffffffffffffff1673ffffffffffffffffffffffffffffffffffffffff166370a08231306040518263ffffffff1660e01b81526004016117b99190613948565b602060405180830381865afa1580156117d6573d6000803e3d6000fd5b505050506040513d601f19601f820116820180604052508101906117fa91906138af565b6040518463ffffffff1660e01b8152600401611818939291906139f0565b6020604051808303816000875af1158015611837573d6000803e3d6000fd5b505050506040513d601f19601f8201168201806040525081019061185b9190613a5f565b90508061189d576040517f08c379a000000000000000000000000000000000000000000000000000000000815260040161189490613ad8565b60405180910390fd5b505060008060146101000a81548160ff02191690831515021790555050565b60055481565b60045481565b60008273ffffffffffffffffffffffffffffffffffffffff16630dfe16816040518163ffffffff1660e01b8152600401602060405180830381865afa158015611915573d6000803e3d6000fd5b505050506040513d601f19601f820116820180604052508101906119399190613d8d565b73ffffffffffffffffffffffffffffffffffffffff168573ffffffffffffffffffffffffffffffffffffffff161480611a0b57508273ffffffffffffffffffffffffffffffffffffffff1663d21220a76040518163ffffffff1660e01b8152600401602060405180830381865afa1580156119b8573d6000803e3d6000fd5b505050506040513d601f19601f820116820180604052508101906119dc9190613d8d565b73ffffffffffffffffffffffffffffffffffffffff168573ffffffffffffffffffffffffffffffffffffffff16145b611a4a576040517f08c379a0000000000000000000000000000000000000000000000000000000008152600401611a4190613e06565b60405180910390fd5b60008373ffffffffffffffffffffffffffffffffffffffff16630dfe16816040518163ffffffff1660e01b8152600401602060405180830381865afa158015611a97573d6000803e3d6000fd5b505050506040513d601f19601f82011682018060405250810190611abb9190613d8d565b73ffffffffffffffffffffffffffffffffffffffff168673ffffffffffffffffffffffffffffffffffffffff1614611b61578373ffffffffffffffffffffffffffffffffffffffff16630dfe16816040518163ffffffff1660e01b8152600401602060405180830381865afa158015611b38573d6000803e3d6000fd5b505050506040513d601f19601f82011682018060405250810190611b5c9190613d8d565b611bd1565b8373ffffffffffffffffffffffffffffffffffffffff1663d21220a76040518163ffffffff1660e01b8152600401602060405180830381865afa158015611bac573d6000803e3d6000fd5b505050506040513d601f19601f82011682018060405250810190611bd09190613d8d565b5b9050611bf1817351aba405de2b25e5506dea32a6697f450ceb1a17612342565b6000600286611c0091906137fd565b90506000611c10888385306127e0565b90506000600660009054906101000a900473ffffffffffffffffffffffffffffffffffffffff1673ffffffffffffffffffffffffffffffffffffffff1663e8e337008a86868c611c60919061382e565b866000808d426040518963ffffffff1660e01b8152600401611c89989796959493929190613e61565b6060604051808303816000875af1158015611ca8573d6000803e3d6000fd5b505050506040513d601f19601f82011682018060405250810190611ccc9190613edf565b90915090508091505080945050505050949350505050565b600060149054906101000a900460ff1615611d34576040517f08c379a0000000000000000000000000000000000000000000000000000000008152600401611d2b9061364d565b60405180910390fd5b6001600060146101000a81548160ff021916908315150217905550600080339050803b915060008214611d9c576040517f08c379a0000000000000000000000000000000000000000000000000000000008152600401611d93906136b9565b60405180910390fd5b3373ffffffffffffffffffffffffffffffffffffffff163273ffffffffffffffffffffffffffffffffffffffff1614611e0a576040517f08c379a0000000000000000000000000000000000000000000000000000000008152600401611e01906136b9565b60405180910390fd5b60003411611e4d576040517f08c379a0000000000000000000000000000000000000000000000000000000008152600401611e4490613725565b60405180910390fd5b60006103e860035434611e609190613774565b611e6a91906137fd565b905060008060009054906101000a900473ffffffffffffffffffffffffffffffffffffffff1673ffffffffffffffffffffffffffffffffffffffff1682604051611eb390613b29565b60006040518083038185875af1925050503d8060008114611ef0576040519150601f19603f3d011682016040523d82523d6000602084013e611ef5565b606091505b5050905080611f39576040517f08c379a0000000000000000000000000000000000000000000000000000000008152600401611f3090613ad8565b60405180910390fd5b611f4f858334611f49919061382e565b336129b1565b505050505060008060146101000a81548160ff02191690831515021790555050565b60008054906101000a900473ffffffffffffffffffffffffffffffffffffffff1673ffffffffffffffffffffffffffffffffffffffff163373ffffffffffffffffffffffffffffffffffffffff1614611ff6576040517f251c9d6300000000000000000000000000000000000000000000000000000000815260040160405180910390fd5b60008054906101000a900473ffffffffffffffffffffffffffffffffffffffff1673ffffffffffffffffffffffffffffffffffffffff166108fc3073ffffffffffffffffffffffffffffffffffffffff16319081150290604051600060405180830381858888f19350505050158015612073573d6000803e3d6000fd5b506000600160008373ffffffffffffffffffffffffffffffffffffffff1673ffffffffffffffffffffffffffffffffffffffff16815260200190815260200160002060009054906101000a900473ffffffffffffffffffffffffffffffffffffffff1673ffffffffffffffffffffffffffffffffffffffff166323b872dd3060008054906101000a900473ffffffffffffffffffffffffffffffffffffffff16600160008773ffffffffffffffffffffffffffffffffffffffff1673ffffffffffffffffffffffffffffffffffffffff16815260200190815260200160002060009054906101000a900473ffffffffffffffffffffffffffffffffffffffff1673ffffffffffffffffffffffffffffffffffffffff166370a08231306040518263ffffffff1660e01b81526004016121ab9190613948565b602060405180830381865afa1580156121c8573d6000803e3d6000fd5b505050506040513d601f19601f820116820180604052508101906121ec91906138af565b6040518463ffffffff1660e01b815260040161220a939291906139f0565b6020604051808303816000875af1158015612229573d6000803e3d6000fd5b505050506040513d601f19601f8201168201806040525081019061224d9190613a5f565b90508061228f576040517f08c379a000000000000000000000000000000000000000000000000000000000815260040161228690613ad8565b60405180910390fd5b5050565b600760009054906101000a900473ffffffffffffffffffffffffffffffffffffffff1681565b61233c846323b872dd60e01b8585856040516024016122da93929190613f32565b604051602081830303815290604052907bffffffffffffffffffffffffffffffffffffffffffffffffffffffff19166020820180517bffffffffffffffffffffffffffffffffffffffffffffffffffffffff8381831617835250505050612be1565b50505050565b60008273ffffffffffffffffffffffffffffffffffffffff1663dd62ed3e30846040518363ffffffff1660e01b815260040161237f929190613871565b602060405180830381865afa15801561239c573d6000803e3d6000fd5b505050506040513d601f19601f820116820180604052508101906123c091906138af565b0361241157612410817fffffffffffffffffffffffffffffffffffffffffffffffffffffffffffffffff8473ffffffffffffffffffffffffffffffffffffffff16612ca89092919063ffffffff16565b5b5050565b81600073ffffffffffffffffffffffffffffffffffffffff168173ffffffffffffffffffffffffffffffffffffffff160361247c576040517f021d9f5800000000000000000000000000000000000000000000000000000000815260040160405180910390fd5b308280600160008473ffffffffffffffffffffffffffffffffffffffff1673ffffffffffffffffffffffffffffffffffffffff16815260200190815260200160002060009054906101000a900473ffffffffffffffffffffffffffffffffffffffff1673ffffffffffffffffffffffffffffffffffffffff1663dd62ed3e33306040518363ffffffff1660e01b8152600401612519929190613871565b602060405180830381865afa158015612536573d6000803e3d6000fd5b505050506040513d601f19601f8201168201806040525081019061255a91906138af565b101561259b576040517f08c379a000000000000000000000000000000000000000000000000000000000815260040161259290613928565b60405180910390fd5b83600160008773ffffffffffffffffffffffffffffffffffffffff1673ffffffffffffffffffffffffffffffffffffffff16815260200190815260200160002060009054906101000a900473ffffffffffffffffffffffffffffffffffffffff1673ffffffffffffffffffffffffffffffffffffffff166370a08231306040518263ffffffff1660e01b81526004016126349190613948565b602060405180830381865afa158015612651573d6000803e3d6000fd5b505050506040513d601f19601f8201168201806040525081019061267591906138af565b116126b5576040517f08c379a00000000000000000000000000000000000000000000000000000000081526004016126ac906139af565b60405180910390fd5b6000600160008773ffffffffffffffffffffffffffffffffffffffff1673ffffffffffffffffffffffffffffffffffffffff16815260200190815260200160002060009054906101000a900473ffffffffffffffffffffffffffffffffffffffff1673ffffffffffffffffffffffffffffffffffffffff166323b872dd3033886040518463ffffffff1660e01b815260040161275393929190613f69565b6020604051808303816000875af1158015612772573d6000803e3d6000fd5b505050506040513d601f19601f820116820180604052508101906127969190613a5f565b9050806127d8576040517f08c379a00000000000000000000000000000000000000000000000000000000081526004016127cf90613ad8565b60405180910390fd5b505050505050565b600080600267ffffffffffffffff8111156127fe576127fd613fa0565b5b60405190808252806020026020018201604052801561282c5781602001602082028036833780820191505090505b509050858160008151811061284457612843613fcf565b5b602002602001019073ffffffffffffffffffffffffffffffffffffffff16908173ffffffffffffffffffffffffffffffffffffffff1681525050838160018151811061289357612892613fcf565b5b602002602001019073ffffffffffffffffffffffffffffffffffffffff16908173ffffffffffffffffffffffffffffffffffffffff16815250506000600660009054906101000a900473ffffffffffffffffffffffffffffffffffffffff1673ffffffffffffffffffffffffffffffffffffffff166338ed17398760008588426040518663ffffffff1660e01b81526004016129339594939291906140bc565b6000604051808303816000875af1158015612952573d6000803e3d6000fd5b505050506040513d6000823e3d601f19601f8201168201806040525081019061297b9190614240565b9050806001825161298c919061382e565b8151811061299d5761299c613fcf565b5b602002602001015192505050949350505050565b60008084905060008173ffffffffffffffffffffffffffffffffffffffff16630dfe16816040518163ffffffff1660e01b8152600401602060405180830381865afa158015612a04573d6000803e3d6000fd5b505050506040513d601f19601f82011682018060405250810190612a289190613d8d565b905060008273ffffffffffffffffffffffffffffffffffffffff1663d21220a76040518163ffffffff1660e01b8152600401602060405180830381865afa158015612a77573d6000803e3d6000fd5b505050506040513d601f19601f82011682018060405250810190612a9b9190613d8d565b90506000730d500b1d8e8ef31e21c99d1db9a6444d3adf127073ffffffffffffffffffffffffffffffffffffffff168373ffffffffffffffffffffffffffffffffffffffff161480612b2c5750730d500b1d8e8ef31e21c99d1db9a6444d3adf127073ffffffffffffffffffffffffffffffffffffffff168273ffffffffffffffffffffffffffffffffffffffff16145b612b6b576040517f08c379a0000000000000000000000000000000000000000000000000000000008152600401612b6290613e06565b60405180910390fd5b6000730d500b1d8e8ef31e21c99d1db9a6444d3adf127073ffffffffffffffffffffffffffffffffffffffff168473ffffffffffffffffffffffffffffffffffffffff1614612bba5783612bbc565b825b9050612bc9818989612df7565b90915090508092505081955050505050509392505050565b6000612c43826040518060400160405280602081526020017f5361666545524332303a206c6f772d6c6576656c2063616c6c206661696c65648152508573ffffffffffffffffffffffffffffffffffffffff16612eff9092919063ffffffff16565b9050600081511115612ca35780806020019051810190612c639190613a5f565b612ca2576040517f08c379a0000000000000000000000000000000000000000000000000000000008152600401612c99906142fb565b60405180910390fd5b5b505050565b6000811480612d32575060008373ffffffffffffffffffffffffffffffffffffffff1663dd62ed3e30856040518363ffffffff1660e01b8152600401612cef929190613871565b602060405180830381865afa158015612d0c573d6000803e3d6000fd5b505050506040513d601f19601f82011682018060405250810190612d3091906138af565b145b612d71576040517f08c379a0000000000000000000000000000000000000000000000000000000008152600401612d689061438d565b60405180910390fd5b612df28363095ea7b360e01b8484604051602401612d909291906143ad565b604051602081830303815290604052907bffffffffffffffffffffffffffffffffffffffffffffffffffffffff19166020820180517bffffffffffffffffffffffffffffffffffffffffffffffffffffffff8381831617835250505050612be1565b505050565b600080600080600286612e0a91906137fd565b90506000612e19888330612f17565b9050612e39887351aba405de2b25e5506dea32a6697f450ceb1a17612342565b600660009054906101000a900473ffffffffffffffffffffffffffffffffffffffff1673ffffffffffffffffffffffffffffffffffffffff1663f305d7198389612e83919061382e565b8a846000808c426040518863ffffffff1660e01b8152600401612eab969594939291906143d6565b60606040518083038185885af1158015612ec9573d6000803e3d6000fd5b50505050506040513d601f19601f82011682018060405250810190612eee9190613edf565b945094509450505093509350939050565b6060612f0e84846000856130fa565b90509392505050565b600080600267ffffffffffffffff811115612f3557612f34613fa0565b5b604051908082528060200260200182016040528015612f635781602001602082028036833780820191505090505b509050730d500b1d8e8ef31e21c99d1db9a6444d3adf127081600081518110612f8f57612f8e613fcf565b5b602002602001019073ffffffffffffffffffffffffffffffffffffffff16908173ffffffffffffffffffffffffffffffffffffffff16815250508481600181518110612fde57612fdd613fcf565b5b602002602001019073ffffffffffffffffffffffffffffffffffffffff16908173ffffffffffffffffffffffffffffffffffffffff16815250506000600660009054906101000a900473ffffffffffffffffffffffffffffffffffffffff1673ffffffffffffffffffffffffffffffffffffffff16637ff36ab58660008588426040518663ffffffff1660e01b815260040161307d9493929190614437565b60006040518083038185885af115801561309b573d6000803e3d6000fd5b50505050506040513d6000823e3d601f19601f820116820180604052508101906130c59190614240565b905080600182516130d6919061382e565b815181106130e7576130e6613fcf565b5b6020026020010151925050509392505050565b60608247101561313f576040517f08c379a0000000000000000000000000000000000000000000000000000000008152600401613136906144f5565b60405180910390fd5b6131488561320e565b613187576040517f08c379a000000000000000000000000000000000000000000000000000000000815260040161317e90614561565b60405180910390fd5b6000808673ffffffffffffffffffffffffffffffffffffffff1685876040516131b091906145e7565b60006040518083038185875af1925050503d80600081146131ed576040519150601f19603f3d011682016040523d82523d6000602084013e6131f2565b606091505b5091509150613202828286613231565b92505050949350505050565b6000808273ffffffffffffffffffffffffffffffffffffffff163b119050919050565b6060831561324157829050613291565b6000835111156132545782518084602001fd5b816040517f08c379a00000000000000000000000000000000000000000000000000000000081526004016132889190614642565b60405180910390fd5b9392505050565b6000819050919050565b6132ab81613298565b82525050565b60006020820190506132c660008301846132a2565b92915050565b6000604051905090565b600080fd5b600080fd5b600073ffffffffffffffffffffffffffffffffffffffff82169050919050565b600061330b826132e0565b9050919050565b61331b81613300565b811461332657600080fd5b50565b60008135905061333881613312565b92915050565b61334781613298565b811461335257600080fd5b50565b6000813590506133648161333e565b92915050565b600080600060608486031215613383576133826132d6565b5b600061339186828701613329565b93505060206133a286828701613355565b92505060406133b386828701613329565b9150509250925092565b600080604083850312156133d4576133d36132d6565b5b60006133e285828601613329565b92505060206133f385828601613355565b9150509250929050565b600060208284031215613413576134126132d6565b5b600061342184828501613355565b91505092915050565b6000602082840312156134405761343f6132d6565b5b600061344e84828501613329565b91505092915050565b6000806040838503121561346e5761346d6132d6565b5b600061347c85828601613355565b925050602061348d85828601613355565b9150509250929050565b6000819050919050565b60006134bc6134b76134b2846132e0565b613497565b6132e0565b9050919050565b60006134ce826134a1565b9050919050565b60006134e0826134c3565b9050919050565b6134f0816134d5565b82525050565b600060208201905061350b60008301846134e7565b92915050565b600061351c826132e0565b9050919050565b61352c81613511565b82525050565b60006020820190506135476000830184613523565b92915050565b60008060008060808587031215613567576135666132d6565b5b600061357587828801613329565b945050602061358687828801613355565b935050604061359787828801613329565b92505060606135a887828801613329565b91505092959194509250565b60006135bf826134c3565b9050919050565b6135cf816135b4565b82525050565b60006020820190506135ea60008301846135c6565b92915050565b600082825260208201905092915050565b7f4e6f207265656e7472616e637900000000000000000000000000000000000000600082015250565b6000613637600d836135f0565b915061364282613601565b602082019050919050565b600060208201905081810360008301526136668161362a565b9050919050565b7f436f6e74726163747320617265206e6f7420616c6c6f77656400000000000000600082015250565b60006136a36019836135f0565b91506136ae8261366d565b602082019050919050565b600060208201905081810360008301526136d281613696565b9050919050565b7f496e76616c6964207a617020616d6f756e740000000000000000000000000000600082015250565b600061370f6012836135f0565b915061371a826136d9565b602082019050919050565b6000602082019050818103600083015261373e81613702565b9050919050565b7f4e487b7100000000000000000000000000000000000000000000000000000000600052601160045260246000fd5b600061377f82613298565b915061378a83613298565b9250817fffffffffffffffffffffffffffffffffffffffffffffffffffffffffffffffff04831182151516156137c3576137c2613745565b5b828202905092915050565b7f4e487b7100000000000000000000000000000000000000000000000000000000600052601260045260246000fd5b600061380882613298565b915061381383613298565b925082613823576138226137ce565b5b828204905092915050565b600061383982613298565b915061384483613298565b925082820390508181111561385c5761385b613745565b5b92915050565b61386b81613300565b82525050565b60006040820190506138866000830185613862565b6138936020830184613862565b9392505050565b6000815190506138a98161333e565b92915050565b6000602082840312156138c5576138c46132d6565b5b60006138d38482850161389a565b91505092915050565b7f436865636b20796f20616c6c6f77616e63650000000000000000000000000000600082015250565b60006139126012836135f0565b915061391d826138dc565b602082019050919050565b6000602082019050818103600083015261394181613905565b9050919050565b600060208201905061395d6000830184613862565b92915050565b7f496e73756666696369656e742062616c616e6365000000000000000000000000600082015250565b60006139996014836135f0565b91506139a482613963565b602082019050919050565b600060208201905081810360008301526139c88161398c565b9050919050565b60006139da826134c3565b9050919050565b6139ea816139cf565b82525050565b6000606082019050613a056000830186613862565b613a1260208301856139e1565b613a1f60408301846132a2565b949350505050565b60008115159050919050565b613a3c81613a27565b8114613a4757600080fd5b50565b600081519050613a5981613a33565b92915050565b600060208284031215613a7557613a746132d6565b5b6000613a8384828501613a4a565b91505092915050565b7f4661696c656420746f2073656e64000000000000000000000000000000000000600082015250565b6000613ac2600e836135f0565b9150613acd82613a8c565b602082019050919050565b60006020820190508181036000830152613af181613ab5565b9050919050565b600081905092915050565b50565b6000613b13600083613af8565b9150613b1e82613b03565b600082019050919050565b6000613b3482613b06565b9150819050919050565b6000819050919050565b6000613b63613b5e613b5984613b3e565b613497565b613298565b9050919050565b613b7381613b48565b82525050565b6000604082019050613b8e60008301856139e1565b613b9b6020830184613b6a565b9392505050565b7f576974686472617720616d6f756e74207a65726f000000000000000000000000600082015250565b6000613bd86014836135f0565b9150613be382613ba2565b602082019050919050565b60006020820190508181036000830152613c0781613bcb565b9050919050565b6000604082019050613c2360008301856132a2565b613c306020830184613862565b9392505050565b60008060408385031215613c4e57613c4d6132d6565b5b6000613c5c8582860161389a565b9250506020613c6d8582860161389a565b9150509250929050565b7f496e73756666696369656e74207374616b656420616d6f756e74000000000000600082015250565b6000613cad601a836135f0565b9150613cb882613c77565b602082019050919050565b60006020820190508181036000830152613cdc81613ca0565b9050919050565b6000604082019050613cf860008301856132a2565b613d0560208301846132a2565b9392505050565b7f4572726f72207769746864726177696e67000000000000000000000000000000600082015250565b6000613d426011836135f0565b9150613d4d82613d0c565b602082019050919050565b60006020820190508181036000830152613d7181613d35565b9050919050565b600081519050613d8781613312565b92915050565b600060208284031215613da357613da26132d6565b5b6000613db184828501613d78565b91505092915050565b7f446972656374207a617073206f6e6c7900000000000000000000000000000000600082015250565b6000613df06010836135f0565b9150613dfb82613dba565b602082019050919050565b60006020820190508181036000830152613e1f81613de3565b9050919050565b6000819050919050565b6000613e4b613e46613e4184613e26565b613497565b613298565b9050919050565b613e5b81613e30565b82525050565b600061010082019050613e77600083018b613862565b613e84602083018a613862565b613e9160408301896132a2565b613e9e60608301886132a2565b613eab6080830187613e52565b613eb860a0830186613e52565b613ec560c0830185613862565b613ed260e08301846132a2565b9998505050505050505050565b600080600060608486031215613ef857613ef76132d6565b5b6000613f068682870161389a565b9350506020613f178682870161389a565b9250506040613f288682870161389a565b9150509250925092565b6000606082019050613f476000830186613862565b613f546020830185613862565b613f6160408301846132a2565b949350505050565b6000606082019050613f7e60008301866139e1565b613f8b6020830185613862565b613f9860408301846132a2565b949350505050565b7f4e487b7100000000000000000000000000000000000000000000000000000000600052604160045260246000fd5b7f4e487b7100000000000000000000000000000000000000000000000000000000600052603260045260246000fd5b600081519050919050565b600082825260208201905092915050565b6000819050602082019050919050565b61403381613300565b82525050565b6000614045838361402a565b60208301905092915050565b6000602082019050919050565b600061406982613ffe565b6140738185614009565b935061407e8361401a565b8060005b838110156140af5781516140968882614039565b97506140a183614051565b925050600181019050614082565b5085935050505092915050565b600060a0820190506140d160008301886132a2565b6140de6020830187613e52565b81810360408301526140f0818661405e565b90506140ff6060830185613862565b61410c60808301846132a2565b9695505050505050565b600080fd5b6000601f19601f8301169050919050565b6141358261411b565b810181811067ffffffffffffffff8211171561415457614153613fa0565b5b80604052505050565b60006141676132cc565b9050614173828261412c565b919050565b600067ffffffffffffffff82111561419357614192613fa0565b5b602082029050602081019050919050565b600080fd5b60006141bc6141b784614178565b61415d565b905080838252602082019050602084028301858111156141df576141de6141a4565b5b835b8181101561420857806141f4888261389a565b8452602084019350506020810190506141e1565b5050509392505050565b600082601f83011261422757614226614116565b5b81516142378482602086016141a9565b91505092915050565b600060208284031215614256576142556132d6565b5b600082015167ffffffffffffffff811115614274576142736132db565b5b61428084828501614212565b91505092915050565b7f5361666545524332303a204552433230206f7065726174696f6e20646964206e60008201527f6f74207375636365656400000000000000000000000000000000000000000000602082015250565b60006142e5602a836135f0565b91506142f082614289565b604082019050919050565b60006020820190508181036000830152614314816142d8565b9050919050565b7f5361666545524332303a20617070726f76652066726f6d206e6f6e2d7a65726f60008201527f20746f206e6f6e2d7a65726f20616c6c6f77616e636500000000000000000000602082015250565b60006143776036836135f0565b91506143828261431b565b604082019050919050565b600060208201905081810360008301526143a68161436a565b9050919050565b60006040820190506143c26000830185613862565b6143cf60208301846132a2565b9392505050565b600060c0820190506143eb6000830189613862565b6143f860208301886132a2565b6144056040830187613e52565b6144126060830186613e52565b61441f6080830185613862565b61442c60a08301846132a2565b979650505050505050565b600060808201905061444c6000830187613e52565b818103602083015261445e818661405e565b905061446d6040830185613862565b61447a60608301846132a2565b95945050505050565b7f416464726573733a20696e73756666696369656e742062616c616e636520666f60008201527f722063616c6c0000000000000000000000000000000000000000000000000000602082015250565b60006144df6026836135f0565b91506144ea82614483565b604082019050919050565b6000602082019050818103600083015261450e816144d2565b9050919050565b7f416464726573733a2063616c6c20746f206e6f6e2d636f6e7472616374000000600082015250565b600061454b601d836135f0565b915061455682614515565b602082019050919050565b6000602082019050818103600083015261457a8161453e565b9050919050565b600081519050919050565b60005b838110156145aa57808201518184015260208101905061458f565b60008484015250505050565b60006145c182614581565b6145cb8185613af8565b93506145db81856020860161458c565b80840191505092915050565b60006145f382846145b6565b915081905092915050565b600081519050919050565b6000614614826145fe565b61461e81856135f0565b935061462e81856020860161458c565b6146378161411b565b840191505092915050565b6000602082019050818103600083015261465c8184614609565b90509291505056fea2646970667358221220fe965d00d293cec7139c5c3d357ddec74589e6bd2e30b9321ef13e0d70f0a69e64736f6c63430008100033",
  "immutableReferences": {},
  "source": "// SPDX-License-Identifier: None\r\n// Saved to 0x917A6b6405EF2bb26D40223c20160cAAd3D9c413\r\n\r\npragma solidity >=0.8.9;\r\nimport \"@openzeppelin/contracts/utils/Address.sol\";\r\nimport \"@openzeppelin/contracts/token/ERC20/IERC20.sol\";\r\nimport \"@openzeppelin/contracts/token/ERC20/utils/SafeERC20.sol\";\r\nimport \"./IMeerkatRouter02.sol\";\r\nimport \"./IMasterChef.sol\";\r\nimport \"./IMeerkatPair.sol\";\r\n\r\ncontract VogonRouter {\r\n   using SafeERC20 for IERC20;\r\n\r\n   address payable public owner;\r\n   bool private locked;\r\n   mapping(address => IERC20) private tokenMap;\r\n\r\n   uint256 public performanceFee = 500; // 5%\r\n   uint256 public callFee = 75; // 0.75%\r\n   uint256 public withdrawFee = 50; // 0.5%\r\n   uint256 public withdrawFeePeriod = 72 hours;\r\n\r\n   address internal constant MEERKAT_ROUTER_ADDRESS = 0x51aBA405De2b25E5506DeA32A6697F450cEB1a17;\r\n   address internal constant MEERKAT_MASTER_ADDRESS = 0xa2B417088D63400d211A4D5EB3C4C5363f834764;\r\n   //address internal constant MEERKAT_ROUTER_CRO_ADDRESS = 0x145677FC4d9b8F19B5D56d1820c48e0443049a30;\r\n   //address internal constant MEERKAT_MASTER_CRO_ADDRESS = 0x6bE34986Fdd1A91e4634eb6b9F8017439b7b5EDc;\r\n   address internal constant MMFP_ADDRESS = 0x22a31bD4cB694433B6de19e0aCC2899E553e9481;\r\n   address internal constant WMATIC_ADDRESS = 0x0d500B1d8E8eF31E21C99d1Db9A6444d3ADf1270;\r\n   IMeerkatRouter02 public meerkatRouter;\r\n   IMasterChef public meerkatMaster;\r\n   //IMeerkatRouter02 public meerkatRouterCro;\r\n   //IMasterChef public meerkatMasterCro;\r\n\r\n   event TokenAdded(address addr);\r\n\r\n   constructor() {\r\n      owner = payable(msg.sender);\r\n\r\n      tokenMap[MMFP_ADDRESS] = IERC20(MMFP_ADDRESS);\r\n      tokenMap[MMFP_ADDRESS].approve(payable(address(this)), 2 ** 255);\r\n\r\n      meerkatRouter = IMeerkatRouter02(MEERKAT_ROUTER_ADDRESS);\r\n      meerkatMaster = IMasterChef(MEERKAT_MASTER_ADDRESS);\r\n      //meerkatRouterCro = IMeerkatRouter02(MEERKAT_ROUTER_CRO_ADDRESS);\r\n      //meerkatMasterCro = IMasterChef(MEERKAT_MASTER_CRO_ADDRESS);\r\n   }\r\n\r\n   error badAddress();\r\n   error notOwner();\r\n\r\n   // Used address be valid\r\n   modifier validAddress(address _addr) {\r\n      if(_addr == address(0)){\r\n         revert badAddress();\r\n      }\r\n      _;\r\n   }\r\n\r\n   // Owner only function access\r\n   modifier ownerOnly() {\r\n      if(msg.sender != owner){\r\n         revert notOwner();\r\n      }\r\n      _;\r\n   }\r\n\r\n   // No contracts please\r\n   modifier notContract() {\r\n      uint256 size;\r\n      address addr = msg.sender;\r\n      assembly {\r\n         size := extcodesize(addr)\r\n      }\r\n      require(size == 0, \"Contracts are not allowed\");\r\n      require(tx.origin == msg.sender, \"Contracts are not allowed\");\r\n      _;\r\n   }\r\n\r\n   // Prevent a function from being called while it is still executing.\r\n   modifier noReentrancy() {\r\n      require(!locked, \"No reentrancy\");\r\n\r\n      locked = true;\r\n      _;\r\n      locked = false;\r\n   }\r\n   \r\n   modifier checkAllowance(address _addr, uint _amt) {\r\n      require(tokenMap[_addr].allowance(msg.sender, address(this)) >= _amt, \"Check yo allowance\");\r\n      _;\r\n   }\r\n\r\n   receive() external payable {}\r\n   fallback() external payable {}\r\n\r\n   //Get the contract balance for the native token\r\n   function getBalance() public view returns (uint) {\r\n      return address(this).balance;\r\n   }\r\n\r\n   function addNewToken(address _addr) public ownerOnly noReentrancy validAddress(_addr){\r\n      tokenMap[_addr] = IERC20(_addr);\r\n      tokenMap[_addr].approve(payable(address(this)), 2 ** 255);\r\n      \r\n      emit TokenAdded(_addr);\r\n   }\r\n\r\n   // Token zap _from, zapping _amount, LP token zap _to\r\n   function zapInToken(address _from, uint _amount, address _to) external payable noReentrancy notContract {\r\n      require(_amount > 0, \"Invalid zap amount\");\r\n      // From an ERC20 to an LP token, through specified router, going through base asset if necessary\r\n      IERC20(_from).safeTransferFrom(msg.sender, address(this), _amount);\r\n\r\n      uint _fee = (_amount * callFee) / 1000; //Call fee subtracted 0.75%\r\n      IERC20(_from).safeTransferFrom(address(this), owner, _fee);\r\n      // we'll need this approval to add liquidity\r\n      _approveTokenIfNeeded(_from, MEERKAT_ROUTER_ADDRESS);\r\n      _swapTokenToLP(_from, _amount - _fee, _to, msg.sender);\r\n   }\r\n\r\n   // Token zap _from, LP token zap _to\r\n   function zapInETH(address _to) external payable noReentrancy notContract {\r\n      require(msg.value > 0, \"Invalid zap amount\");\r\n\r\n      uint _fee = (msg.value * callFee) / 1000; //Call fee subtracted 0.75%\r\n      (bool sent, ) = owner.call{value: _fee}(\"\");\r\n      require(sent, \"Failed to send\");\r\n\r\n      _swapNativeToLP(_to, msg.value - _fee, msg.sender);\r\n   }\r\n\r\n   function withdrawFromFarm(uint256 _pid, uint256 _amount) public payable noReentrancy{\r\n      require(_amount > 0, \"Withdraw amount zero\");\r\n      uint256 prevBalance = tokenMap[MMFP_ADDRESS].balanceOf(address(this));\r\n      (uint256 _staked, ) = meerkatMaster.userInfo(_pid, address(this));\r\n      require(_staked >= _amount, \"Insufficient staked amount\");\r\n      meerkatMaster.withdraw(_pid, _amount);\r\n      require(tokenMap[MMFP_ADDRESS].balanceOf(address(this)) - prevBalance == _amount, \"Error withdrawing\");\r\n      _sendToken(msg.sender, _amount);\r\n   }\r\n\r\n   function recieveToken(address _addr,  uint256 _amt) public payable noReentrancy validAddress(_addr) checkAllowance(_addr, _amt){\r\n      require(tokenMap[_addr].balanceOf(msg.sender) > _amt, \"Insufficient balance\");\r\n      bool sent = tokenMap[_addr].transferFrom(msg.sender, payable(address(this)), _amt);\r\n      require(sent, \"Failed to send\");\r\n   }\r\n\r\n   function _sendToken(address _addr,  uint256 _amt) internal validAddress(_addr) checkAllowance(address(this), _amt){\r\n      require(tokenMap[_addr].balanceOf(address(this)) > _amt, \"Insufficient balance\");\r\n      bool sent = tokenMap[_addr].transferFrom(payable(address(this)), msg.sender, _amt);\r\n      require(sent, \"Failed to send\");\r\n   }\r\n\r\n   function deposit(uint256 _amt) public payable {\r\n      require(msg.value == _amt);\r\n   }\r\n\r\n   function toContract(uint256 _amt) public payable noReentrancy{\r\n      require(msg.sender.balance > _amt, \"Insufficient balance\");\r\n      (bool sent, ) = payable(address(this)).call{value: _amt}(\"\");\r\n      require(sent, \"Failed to send\");\r\n   }\r\n\r\n   function withdraw() public ownerOnly{\r\n      owner.transfer(payable(address(this)).balance);\r\n   }\r\n\r\n   function contractWithdrawToken(address _addr) public noReentrancy validAddress(_addr) ownerOnly{\r\n      bool sent = tokenMap[_addr].transferFrom(address(this), owner, tokenMap[_addr].balanceOf(address(this)));\r\n      require(sent, \"Failed to send\");\r\n   }\r\n\r\n   function withdrawAll(address _addr) public ownerOnly{\r\n      owner.transfer(payable(address(this)).balance);\r\n      bool sent = tokenMap[_addr].transferFrom(address(this), owner, tokenMap[_addr].balanceOf(address(this)));\r\n      require(sent, \"Failed to send\");\r\n   }\r\n\r\n   function _approveTokenIfNeeded(address token, address router) private {\r\n      if (IERC20(token).allowance(address(this), router) == 0) {\r\n         IERC20(token).safeApprove(router, type(uint).max);\r\n      }\r\n   }\r\n\r\n   function _swapTokenToLP(address _from, uint _amount, address _to, address _recipient) public payable returns (uint) {\r\n      require(_from == IMeerkatPair(_to).token0() || _from == IMeerkatPair(_to).token1(), \"Direct zaps only\");\r\n        // get pairs for desired lp\r\n        // if so, we're going to sell half of _from for the other token we need\r\n        // figure out which token we need, and approve\r\n        address other = _from == IMeerkatPair(_to).token0() ? IMeerkatPair(_to).token1() : IMeerkatPair(_to).token0();\r\n        _approveTokenIfNeeded(other, MEERKAT_ROUTER_ADDRESS);\r\n        // calculate amount of _from to sell\r\n        uint sellAmount = _amount / 2;\r\n        // execute swap\r\n        uint otherAmount = _swap(_from, sellAmount, other, address(this));\r\n        uint liquidity;\r\n        ( , , liquidity) = meerkatRouter.addLiquidity(_from, other, (_amount - sellAmount), otherAmount, 0, 0, _recipient, block.timestamp);\r\n        return liquidity;\r\n   }\r\n\r\n   function _swap(address _from, uint amount, address _to, address recipient) private returns (uint) {\r\n      address[] memory path = new address[](2);\r\n      path[0] = _from;\r\n      path[1] = _to;\r\n\r\n      uint[] memory amounts = meerkatRouter.swapExactTokensForTokens(amount, 0, path, recipient, block.timestamp);\r\n      return amounts[amounts.length - 1];\r\n   }\r\n\r\n   function _swapNativeToLP(address _LP, uint _amount, address _recipient) private returns (uint) {\r\n      IMeerkatPair pair = IMeerkatPair(_LP);\r\n      address token0 = pair.token0();\r\n      address token1 = pair.token1();\r\n      uint liquidity;\r\n      require(token0 == WMATIC_ADDRESS || token1 == WMATIC_ADDRESS, \"Direct zaps only\");\r\n      address token = token0 == WMATIC_ADDRESS ? token1 : token0;\r\n      ( , , liquidity) = _swapHalfNativeAndProvide(token, _amount, _recipient);\r\n      return liquidity;\r\n   }\r\n\r\n   function _swapHalfNativeAndProvide(address _token, uint _amount, address _recipient) private returns (uint, uint, uint) {\r\n      uint swapValue = _amount / 2;\r\n      uint tokenAmount = _swapNativeForToken(_token, swapValue, address(this));\r\n      _approveTokenIfNeeded(_token, MEERKAT_ROUTER_ADDRESS);\r\n      return meerkatRouter.addLiquidityETH{value : _amount - swapValue}(_token, tokenAmount, 0, 0, _recipient, block.timestamp);\r\n   }\r\n\r\n   function _swapNativeForToken(address _token, uint _value, address _recipient) private returns (uint) {\r\n      address[] memory _path = new address[](2);\r\n      _path[0] = WMATIC_ADDRESS;\r\n      _path[1] = _token;\r\n\r\n      uint[] memory amounts = meerkatRouter.swapExactETHForTokens{value : _value}(0, _path, _recipient, block.timestamp);\r\n      return amounts[amounts.length - 1];\r\n   }\r\n}",
  "sourcePath": "D:\\Web dev\\game_vault\\contracts\\VogonRouter.sol",
  "compiler": {
    "name": "solc",
    "version": "0.8.16+commit.07a7930e.Emscripten.clang"
  },
  "schemaVersion": "3.4.8",
  "updatedAt": "2022-09-03T10:56:22.096Z",
  "networkType": "ethereum",
  "devdoc": {
    "kind": "dev",
    "methods": {},
    "version": 1
  },
  "userdoc": {
    "kind": "user",
    "methods": {},
    "version": 1
  }
}