{
  "contractName": "VogonCryptoVault",
  "abi": [
    {
      "inputs": [
        {
          "internalType": "string",
          "name": "_title",
          "type": "string"
        },
        {
          "internalType": "address",
          "name": "_addr",
          "type": "address"
        },
        {
          "internalType": "uint256",
          "name": "_performance",
          "type": "uint256"
        },
        {
          "internalType": "uint256",
          "name": "_withdraw",
          "type": "uint256"
        }
      ],
      "stateMutability": "nonpayable",
      "type": "constructor"
    },
    {
      "inputs": [],
      "name": "badAddress",
      "type": "error"
    },
    {
      "inputs": [],
      "name": "notOwner",
      "type": "error"
    },
    {
      "anonymous": false,
      "inputs": [
        {
          "indexed": false,
          "internalType": "address",
          "name": "addr",
          "type": "address"
        }
      ],
      "name": "TokenAdded",
      "type": "event"
    },
    {
      "stateMutability": "payable",
      "type": "fallback"
    },
    {
      "inputs": [],
      "name": "MAX_CALL_FEE",
      "outputs": [
        {
          "internalType": "uint256",
          "name": "",
          "type": "uint256"
        }
      ],
      "stateMutability": "view",
      "type": "function"
    },
    {
      "inputs": [],
      "name": "MAX_PERFORMANCE_FEE",
      "outputs": [
        {
          "internalType": "uint256",
          "name": "",
          "type": "uint256"
        }
      ],
      "stateMutability": "view",
      "type": "function"
    },
    {
      "inputs": [],
      "name": "MAX_WITHDRAW_FEE",
      "outputs": [
        {
          "internalType": "uint256",
          "name": "",
          "type": "uint256"
        }
      ],
      "stateMutability": "view",
      "type": "function"
    },
    {
      "inputs": [],
      "name": "MAX_WITHDRAW_FEE_PERIOD",
      "outputs": [
        {
          "internalType": "uint256",
          "name": "",
          "type": "uint256"
        }
      ],
      "stateMutability": "view",
      "type": "function"
    },
    {
      "inputs": [],
      "name": "callFee",
      "outputs": [
        {
          "internalType": "uint256",
          "name": "",
          "type": "uint256"
        }
      ],
      "stateMutability": "view",
      "type": "function"
    },
    {
      "inputs": [],
      "name": "meerkatMaster",
      "outputs": [
        {
          "internalType": "contract IMasterChef",
          "name": "",
          "type": "address"
        }
      ],
      "stateMutability": "view",
      "type": "function"
    },
    {
      "inputs": [],
      "name": "meerkatRouter",
      "outputs": [
        {
          "internalType": "contract IMeerkatRouter02",
          "name": "",
          "type": "address"
        }
      ],
      "stateMutability": "view",
      "type": "function"
    },
    {
      "inputs": [],
      "name": "owner",
      "outputs": [
        {
          "internalType": "address payable",
          "name": "",
          "type": "address"
        }
      ],
      "stateMutability": "view",
      "type": "function"
    },
    {
      "inputs": [],
      "name": "performanceFee",
      "outputs": [
        {
          "internalType": "uint256",
          "name": "",
          "type": "uint256"
        }
      ],
      "stateMutability": "view",
      "type": "function"
    },
    {
      "inputs": [],
      "name": "title",
      "outputs": [
        {
          "internalType": "string",
          "name": "",
          "type": "string"
        }
      ],
      "stateMutability": "view",
      "type": "function"
    },
    {
      "inputs": [],
      "name": "withdrawFee",
      "outputs": [
        {
          "internalType": "uint256",
          "name": "",
          "type": "uint256"
        }
      ],
      "stateMutability": "view",
      "type": "function"
    },
    {
      "inputs": [],
      "name": "withdrawFeePeriod",
      "outputs": [
        {
          "internalType": "uint256",
          "name": "",
          "type": "uint256"
        }
      ],
      "stateMutability": "view",
      "type": "function"
    },
    {
      "stateMutability": "payable",
      "type": "receive"
    },
    {
      "inputs": [],
      "name": "getBalance",
      "outputs": [
        {
          "internalType": "uint256",
          "name": "",
          "type": "uint256"
        }
      ],
      "stateMutability": "view",
      "type": "function"
    },
    {
      "inputs": [
        {
          "internalType": "address",
          "name": "_addr",
          "type": "address"
        }
      ],
      "name": "getContractTokenBalance",
      "outputs": [
        {
          "internalType": "uint256",
          "name": "",
          "type": "uint256"
        }
      ],
      "stateMutability": "view",
      "type": "function"
    },
    {
      "inputs": [
        {
          "internalType": "address",
          "name": "_addr",
          "type": "address"
        }
      ],
      "name": "addNewToken",
      "outputs": [],
      "stateMutability": "nonpayable",
      "type": "function"
    },
    {
      "inputs": [
        {
          "internalType": "uint256",
          "name": "_amtFrom",
          "type": "uint256"
        },
        {
          "internalType": "uint256",
          "name": "_amtTo",
          "type": "uint256"
        }
      ],
      "name": "swapTokenOld",
      "outputs": [],
      "stateMutability": "payable",
      "type": "function"
    },
    {
      "inputs": [
        {
          "internalType": "uint256",
          "name": "_amtFrom",
          "type": "uint256"
        },
        {
          "internalType": "uint256",
          "name": "_amtTo",
          "type": "uint256"
        }
      ],
      "name": "swapTokenToEthOld",
      "outputs": [],
      "stateMutability": "payable",
      "type": "function"
    },
    {
      "inputs": [
        {
          "internalType": "uint256",
          "name": "_amtFrom",
          "type": "uint256"
        },
        {
          "internalType": "address[]",
          "name": "_path",
          "type": "address[]"
        }
      ],
      "name": "swapToken",
      "outputs": [],
      "stateMutability": "payable",
      "type": "function"
    },
    {
      "inputs": [
        {
          "internalType": "uint256",
          "name": "_amtFrom",
          "type": "uint256"
        },
        {
          "internalType": "uint256",
          "name": "_amtTo",
          "type": "uint256"
        },
        {
          "internalType": "address[]",
          "name": "_path",
          "type": "address[]"
        }
      ],
      "name": "swapTokenToEth",
      "outputs": [],
      "stateMutability": "payable",
      "type": "function"
    },
    {
      "inputs": [
        {
          "internalType": "uint256",
          "name": "_pid",
          "type": "uint256"
        },
        {
          "internalType": "uint256",
          "name": "_amount",
          "type": "uint256"
        }
      ],
      "name": "depositInFarm",
      "outputs": [],
      "stateMutability": "payable",
      "type": "function"
    },
    {
      "inputs": [
        {
          "internalType": "uint256",
          "name": "_pid",
          "type": "uint256"
        },
        {
          "internalType": "uint256",
          "name": "_amount",
          "type": "uint256"
        }
      ],
      "name": "withdrawFromFarm",
      "outputs": [],
      "stateMutability": "payable",
      "type": "function"
    },
    {
      "inputs": [
        {
          "internalType": "address",
          "name": "_addr",
          "type": "address"
        },
        {
          "internalType": "uint256",
          "name": "_amt",
          "type": "uint256"
        }
      ],
      "name": "recieveToken",
      "outputs": [],
      "stateMutability": "payable",
      "type": "function"
    },
    {
      "inputs": [
        {
          "internalType": "uint256",
          "name": "_amt",
          "type": "uint256"
        }
      ],
      "name": "deposit",
      "outputs": [],
      "stateMutability": "payable",
      "type": "function"
    },
    {
      "inputs": [
        {
          "internalType": "uint256",
          "name": "_amt",
          "type": "uint256"
        }
      ],
      "name": "toContract",
      "outputs": [],
      "stateMutability": "payable",
      "type": "function"
    },
    {
      "inputs": [],
      "name": "withdraw",
      "outputs": [],
      "stateMutability": "nonpayable",
      "type": "function"
    },
    {
      "inputs": [
        {
          "internalType": "address",
          "name": "_addr",
          "type": "address"
        }
      ],
      "name": "contractWithdrawToken",
      "outputs": [],
      "stateMutability": "nonpayable",
      "type": "function"
    }
  ],
  "bytecode": "0x608060405260c86004556019600555600a6006556203f4806007553480156200002757600080fd5b5060405162004a7638038062004a7683398181016040528101906200004d9190620006d3565b83600090816200005e9190620009a5565b5033600160006101000a81548173ffffffffffffffffffffffffffffffffffffffff021916908373ffffffffffffffffffffffffffffffffffffffff16021790555082600260008573ffffffffffffffffffffffffffffffffffffffff1673ffffffffffffffffffffffffffffffffffffffff16815260200190815260200160002060006101000a81548173ffffffffffffffffffffffffffffffffffffffff021916908373ffffffffffffffffffffffffffffffffffffffff160217905550600260008473ffffffffffffffffffffffffffffffffffffffff1673ffffffffffffffffffffffffffffffffffffffff16815260200190815260200160002060009054906101000a900473ffffffffffffffffffffffffffffffffffffffff1673ffffffffffffffffffffffffffffffffffffffff1663095ea7b3307f80000000000000000000000000000000000000000000000000000000000000006040518363ffffffff1660e01b8152600401620001da92919062000b30565b6020604051808303816000875af1158015620001fa573d6000803e3d6000fd5b505050506040513d601f19601f8201168201806040525081019062000220919062000b9a565b507322a31bd4cb694433b6de19e0acc2899e553e9481600260007322a31bd4cb694433b6de19e0acc2899e553e948173ffffffffffffffffffffffffffffffffffffffff1673ffffffffffffffffffffffffffffffffffffffff16815260200190815260200160002060006101000a81548173ffffffffffffffffffffffffffffffffffffffff021916908373ffffffffffffffffffffffffffffffffffffffff160217905550600260007322a31bd4cb694433b6de19e0acc2899e553e948173ffffffffffffffffffffffffffffffffffffffff1673ffffffffffffffffffffffffffffffffffffffff16815260200190815260200160002060009054906101000a900473ffffffffffffffffffffffffffffffffffffffff1673ffffffffffffffffffffffffffffffffffffffff1663095ea7b3307f80000000000000000000000000000000000000000000000000000000000000006040518363ffffffff1660e01b81526004016200039792919062000b30565b6020604051808303816000875af1158015620003b7573d6000803e3d6000fd5b505050506040513d601f19601f82011682018060405250810190620003dd919062000b9a565b5081600481905550806006819055507351aba405de2b25e5506dea32a6697f450ceb1a17600860006101000a81548173ffffffffffffffffffffffffffffffffffffffff021916908373ffffffffffffffffffffffffffffffffffffffff16021790555073a2b417088d63400d211a4d5eb3c4c5363f834764600960006101000a81548173ffffffffffffffffffffffffffffffffffffffff021916908373ffffffffffffffffffffffffffffffffffffffff1602179055505050505062000bcc565b6000604051905090565b600080fd5b600080fd5b600080fd5b600080fd5b6000601f19601f8301169050919050565b7f4e487b7100000000000000000000000000000000000000000000000000000000600052604160045260246000fd5b6200050982620004be565b810181811067ffffffffffffffff821117156200052b576200052a620004cf565b5b80604052505050565b600062000540620004a0565b90506200054e8282620004fe565b919050565b600067ffffffffffffffff821115620005715762000570620004cf565b5b6200057c82620004be565b9050602081019050919050565b60005b83811015620005a95780820151818401526020810190506200058c565b60008484015250505050565b6000620005cc620005c68462000553565b62000534565b905082815260208101848484011115620005eb57620005ea620004b9565b5b620005f884828562000589565b509392505050565b600082601f830112620006185762000617620004b4565b5b81516200062a848260208601620005b5565b91505092915050565b600073ffffffffffffffffffffffffffffffffffffffff82169050919050565b6000620006608262000633565b9050919050565b620006728162000653565b81146200067e57600080fd5b50565b600081519050620006928162000667565b92915050565b6000819050919050565b620006ad8162000698565b8114620006b957600080fd5b50565b600081519050620006cd81620006a2565b92915050565b60008060008060808587031215620006f057620006ef620004aa565b5b600085015167ffffffffffffffff811115620007115762000710620004af565b5b6200071f8782880162000600565b9450506020620007328782880162000681565b93505060406200074587828801620006bc565b92505060606200075887828801620006bc565b91505092959194509250565b600081519050919050565b7f4e487b7100000000000000000000000000000000000000000000000000000000600052602260045260246000fd5b60006002820490506001821680620007b757607f821691505b602082108103620007cd57620007cc6200076f565b5b50919050565b60008190508160005260206000209050919050565b60006020601f8301049050919050565b600082821b905092915050565b600060088302620008377fffffffffffffffffffffffffffffffffffffffffffffffffffffffffffffffff82620007f8565b620008438683620007f8565b95508019841693508086168417925050509392505050565b6000819050919050565b600062000886620008806200087a8462000698565b6200085b565b62000698565b9050919050565b6000819050919050565b620008a28362000865565b620008ba620008b1826200088d565b84845462000805565b825550505050565b600090565b620008d1620008c2565b620008de81848462000897565b505050565b5b818110156200090657620008fa600082620008c7565b600181019050620008e4565b5050565b601f82111562000955576200091f81620007d3565b6200092a84620007e8565b810160208510156200093a578190505b620009526200094985620007e8565b830182620008e3565b50505b505050565b600082821c905092915050565b60006200097a600019846008026200095a565b1980831691505092915050565b600062000995838362000967565b9150826002028217905092915050565b620009b08262000764565b67ffffffffffffffff811115620009cc57620009cb620004cf565b5b620009d882546200079e565b620009e58282856200090a565b600060209050601f83116001811462000a1d576000841562000a08578287015190505b62000a14858262000987565b86555062000a84565b601f19841662000a2d86620007d3565b60005b8281101562000a575784890151825560018201915060208501945060208101905062000a30565b8683101562000a77578489015162000a73601f89168262000967565b8355505b6001600288020188555050505b505050505050565b600062000aad62000aa762000aa18462000633565b6200085b565b62000633565b9050919050565b600062000ac18262000a8c565b9050919050565b600062000ad58262000ab4565b9050919050565b62000ae78162000ac8565b82525050565b6000819050919050565b600062000b1862000b1262000b0c8462000aed565b6200085b565b62000698565b9050919050565b62000b2a8162000af7565b82525050565b600060408201905062000b47600083018562000adc565b62000b56602083018462000b1f565b9392505050565b60008115159050919050565b62000b748162000b5d565b811462000b8057600080fd5b50565b60008151905062000b948162000b69565b92915050565b60006020828403121562000bb35762000bb2620004aa565b5b600062000bc38482850162000b83565b91505092915050565b613e9a8062000bdc6000396000f3fe6080604052600436106101855760003560e01c80637f5c3c82116100d1578063d4b0de2f1161008a578063df10b4e611610064578063df10b4e6146104c2578063e941fa78146104ed578063f09b130b14610518578063fb96f1a4146105345761018c565b8063d4b0de2f14610452578063d69e09971461047d578063d7567438146104995761018c565b80637f5c3c821461035f578063877887821461038a5780638da5cb5b146103b557806390321e1a146103e0578063b6b55f251461040b578063bdca9165146104275761018c565b80632cfc5f011161013e5780634a79d50c116101185780634a79d50c146102d357806364db444a146102fe5780636a862bd3146103275780636e21950f146103435761018c565b80632cfc5f01146102755780633ac7747e146102a05780633ccfd60b146102bc5761018c565b806312065fe01461018e57806314205e28146101b957806321eebef2146101f6578063290a27741461021257806329b89aa21461022e5780632ad5a53f1461024a5761018c565b3661018c57005b005b34801561019a57600080fd5b506101a361055f565b6040516101b09190612ee4565b60405180910390f35b3480156101c557600080fd5b506101e060048036038101906101db9190612f71565b610567565b6040516101ed9190612ee4565b60405180910390f35b610210600480360381019061020b9190612fca565b6106b1565b005b61022c6004803603810190610227919061300a565b610b01565b005b61024860048036038101906102439190613037565b610c8f565b005b34801561025657600080fd5b5061025f61101d565b60405161026c9190612ee4565b60405180910390f35b34801561028157600080fd5b5061028a611022565b6040516102979190612ee4565b60405180910390f35b6102ba60048036038101906102b591906131d0565b611029565b005b3480156102c857600080fd5b506102d1611170565b005b3480156102df57600080fd5b506102e8611279565b6040516102f591906132ab565b60405180910390f35b34801561030a57600080fd5b5061032560048036038101906103209190612f71565b611307565b005b610341600480360381019061033c9190613037565b611631565b005b61035d60048036038101906103589190613037565b6119b1565b005b34801561036b57600080fd5b50610374611e27565b604051610381919061332c565b60405180910390f35b34801561039657600080fd5b5061039f611e4d565b6040516103ac9190612ee4565b60405180910390f35b3480156103c157600080fd5b506103ca611e53565b6040516103d79190613368565b60405180910390f35b3480156103ec57600080fd5b506103f5611e79565b6040516104029190612ee4565b60405180910390f35b6104256004803603810190610420919061300a565b611e7f565b005b34801561043357600080fd5b5061043c611e8e565b6040516104499190612ee4565b60405180910390f35b34801561045e57600080fd5b50610467611e94565b6040516104749190612ee4565b60405180910390f35b61049760048036038101906104929190613383565b611e99565b005b3480156104a557600080fd5b506104c060048036038101906104bb9190612f71565b612113565b005b3480156104ce57600080fd5b506104d76124a8565b6040516104e49190612ee4565b60405180910390f35b3480156104f957600080fd5b506105026124ae565b60405161050f9190612ee4565b60405180910390f35b610532600480360381019061052d9190613037565b6124b4565b005b34801561054057600080fd5b5061054961270f565b6040516105569190613413565b60405180910390f35b600047905090565b600081600073ffffffffffffffffffffffffffffffffffffffff168173ffffffffffffffffffffffffffffffffffffffff16036105d0576040517f021d9f5800000000000000000000000000000000000000000000000000000000815260040160405180910390fd5b600260008473ffffffffffffffffffffffffffffffffffffffff1673ffffffffffffffffffffffffffffffffffffffff16815260200190815260200160002060009054906101000a900473ffffffffffffffffffffffffffffffffffffffff1673ffffffffffffffffffffffffffffffffffffffff166370a08231306040518263ffffffff1660e01b8152600401610668919061343d565b602060405180830381865afa158015610685573d6000803e3d6000fd5b505050506040513d601f19601f820116820180604052508101906106a9919061346d565b915050919050565b600160149054906101000a900460ff1615610701576040517f08c379a00000000000000000000000000000000000000000000000000000000081526004016106f8906134e6565b60405180910390fd5b60018060146101000a81548160ff02191690831515021790555081600073ffffffffffffffffffffffffffffffffffffffff168173ffffffffffffffffffffffffffffffffffffffff1603610782576040517f021d9f5800000000000000000000000000000000000000000000000000000000815260040160405180910390fd5b828280600260008473ffffffffffffffffffffffffffffffffffffffff1673ffffffffffffffffffffffffffffffffffffffff16815260200190815260200160002060009054906101000a900473ffffffffffffffffffffffffffffffffffffffff1673ffffffffffffffffffffffffffffffffffffffff1663dd62ed3e33306040518363ffffffff1660e01b815260040161081f929190613506565b602060405180830381865afa15801561083c573d6000803e3d6000fd5b505050506040513d601f19601f82011682018060405250810190610860919061346d565b10156108a1576040517f08c379a00000000000000000000000000000000000000000000000000000000081526004016108989061357b565b60405180910390fd5b83600260008773ffffffffffffffffffffffffffffffffffffffff1673ffffffffffffffffffffffffffffffffffffffff16815260200190815260200160002060009054906101000a900473ffffffffffffffffffffffffffffffffffffffff1673ffffffffffffffffffffffffffffffffffffffff166370a08231336040518263ffffffff1660e01b815260040161093a919061343d565b602060405180830381865afa158015610957573d6000803e3d6000fd5b505050506040513d601f19601f8201168201806040525081019061097b919061346d565b116109bb576040517f08c379a00000000000000000000000000000000000000000000000000000000081526004016109b2906135e7565b60405180910390fd5b6000600260008773ffffffffffffffffffffffffffffffffffffffff1673ffffffffffffffffffffffffffffffffffffffff16815260200190815260200160002060009054906101000a900473ffffffffffffffffffffffffffffffffffffffff1673ffffffffffffffffffffffffffffffffffffffff166323b872dd3330886040518463ffffffff1660e01b8152600401610a5993929190613628565b6020604051808303816000875af1158015610a78573d6000803e3d6000fd5b505050506040513d601f19601f82011682018060405250810190610a9c9190613697565b905080610ade576040517f08c379a0000000000000000000000000000000000000000000000000000000008152600401610ad590613710565b60405180910390fd5b505050506000600160146101000a81548160ff0219169083151502179055505050565b600160149054906101000a900460ff1615610b51576040517f08c379a0000000000000000000000000000000000000000000000000000000008152600401610b48906134e6565b60405180910390fd5b60018060146101000a81548160ff021916908315150217905550803373ffffffffffffffffffffffffffffffffffffffff163111610bc4576040517f08c379a0000000000000000000000000000000000000000000000000000000008152600401610bbb906135e7565b60405180910390fd5b60003073ffffffffffffffffffffffffffffffffffffffff1682604051610bea90613761565b60006040518083038185875af1925050503d8060008114610c27576040519150601f19603f3d011682016040523d82523d6000602084013e610c2c565b606091505b5050905080610c70576040517f08c379a0000000000000000000000000000000000000000000000000000000008152600401610c6790613710565b60405180910390fd5b506000600160146101000a81548160ff02191690831515021790555050565b600160149054906101000a900460ff1615610cdf576040517f08c379a0000000000000000000000000000000000000000000000000000000008152600401610cd6906134e6565b60405180910390fd5b60018060146101000a81548160ff02191690831515021790555080600260007322a31bd4cb694433b6de19e0acc2899e553e948173ffffffffffffffffffffffffffffffffffffffff1673ffffffffffffffffffffffffffffffffffffffff16815260200190815260200160002060009054906101000a900473ffffffffffffffffffffffffffffffffffffffff1673ffffffffffffffffffffffffffffffffffffffff166370a08231336040518263ffffffff1660e01b8152600401610da6919061343d565b602060405180830381865afa158015610dc3573d6000803e3d6000fd5b505050506040513d601f19601f82011682018060405250810190610de7919061346d565b11610e27576040517f08c379a0000000000000000000000000000000000000000000000000000000008152600401610e1e906135e7565b60405180910390fd5b600260007322a31bd4cb694433b6de19e0acc2899e553e948173ffffffffffffffffffffffffffffffffffffffff1673ffffffffffffffffffffffffffffffffffffffff16815260200190815260200160002060009054906101000a900473ffffffffffffffffffffffffffffffffffffffff1673ffffffffffffffffffffffffffffffffffffffff1663095ea7b373a2b417088d63400d211a4d5eb3c4c5363f834764836040518363ffffffff1660e01b8152600401610ee9929190613776565b6020604051808303816000875af1158015610f08573d6000803e3d6000fd5b505050506040513d601f19601f82011682018060405250810190610f2c9190613697565b50610f4b7322a31bd4cb694433b6de19e0acc2899e553e948182612735565b600960009054906101000a900473ffffffffffffffffffffffffffffffffffffffff1673ffffffffffffffffffffffffffffffffffffffff16638dbdbe6d8383600160009054906101000a900473ffffffffffffffffffffffffffffffffffffffff166040518463ffffffff1660e01b8152600401610fcc9392919061379f565b600060405180830381600087803b158015610fe657600080fd5b505af1158015610ffa573d6000803e3d6000fd5b505050506000600160146101000a81548160ff0219169083151502179055505050565b606481565b6203f48081565b600160149054906101000a900460ff1615611079576040517f08c379a0000000000000000000000000000000000000000000000000000000008152600401611070906134e6565b60405180910390fd5b60018060146101000a81548160ff0219169083151502179055506000601e426110a29190613805565b9050600860009054906101000a900473ffffffffffffffffffffffffffffffffffffffff1673ffffffffffffffffffffffffffffffffffffffff16637ff36ab58460008533866040518663ffffffff1660e01b81526004016111079493929190613932565b60006040518083038185885af1158015611125573d6000803e3d6000fd5b50505050506040513d6000823e3d601f19601f8201168201806040525081019061114f9190613a41565b50506000600160146101000a81548160ff0219169083151502179055505050565b600160009054906101000a900473ffffffffffffffffffffffffffffffffffffffff1673ffffffffffffffffffffffffffffffffffffffff163373ffffffffffffffffffffffffffffffffffffffff16146111f7576040517f251c9d6300000000000000000000000000000000000000000000000000000000815260040160405180910390fd5b600160009054906101000a900473ffffffffffffffffffffffffffffffffffffffff1673ffffffffffffffffffffffffffffffffffffffff166108fc3073ffffffffffffffffffffffffffffffffffffffff16319081150290604051600060405180830381858888f19350505050158015611276573d6000803e3d6000fd5b50565b6000805461128690613ab9565b80601f01602080910402602001604051908101604052809291908181526020018280546112b290613ab9565b80156112ff5780601f106112d4576101008083540402835291602001916112ff565b820191906000526020600020905b8154815290600101906020018083116112e257829003601f168201915b505050505081565b600160009054906101000a900473ffffffffffffffffffffffffffffffffffffffff1673ffffffffffffffffffffffffffffffffffffffff163373ffffffffffffffffffffffffffffffffffffffff161461138e576040517f251c9d6300000000000000000000000000000000000000000000000000000000815260040160405180910390fd5b600160149054906101000a900460ff16156113de576040517f08c379a00000000000000000000000000000000000000000000000000000000081526004016113d5906134e6565b60405180910390fd5b60018060146101000a81548160ff02191690831515021790555080600073ffffffffffffffffffffffffffffffffffffffff168173ffffffffffffffffffffffffffffffffffffffff160361145f576040517f021d9f5800000000000000000000000000000000000000000000000000000000815260040160405180910390fd5b81600260008473ffffffffffffffffffffffffffffffffffffffff1673ffffffffffffffffffffffffffffffffffffffff16815260200190815260200160002060006101000a81548173ffffffffffffffffffffffffffffffffffffffff021916908373ffffffffffffffffffffffffffffffffffffffff160217905550600260008373ffffffffffffffffffffffffffffffffffffffff1673ffffffffffffffffffffffffffffffffffffffff16815260200190815260200160002060009054906101000a900473ffffffffffffffffffffffffffffffffffffffff1673ffffffffffffffffffffffffffffffffffffffff1663095ea7b3307f80000000000000000000000000000000000000000000000000000000000000006040518363ffffffff1660e01b8152600401611597929190613b25565b6020604051808303816000875af11580156115b6573d6000803e3d6000fd5b505050506040513d601f19601f820116820180604052508101906115da9190613697565b507f784c8f4dbf0ffedd6e72c76501c545a70f8b203b30a26ce542bf92ba87c248a48260405161160a919061343d565b60405180910390a1506000600160146101000a81548160ff02191690831515021790555050565b600160149054906101000a900460ff1615611681576040517f08c379a0000000000000000000000000000000000000000000000000000000008152600401611678906134e6565b60405180910390fd5b60018060146101000a81548160ff0219169083151502179055506000600267ffffffffffffffff8111156116b8576116b761308d565b5b6040519080825280602002602001820160405280156116e65781602001602082028036833780820191505090505b5090507322a31bd4cb694433b6de19e0acc2899e553e94818160008151811061171257611711613b4e565b5b602002602001019073ffffffffffffffffffffffffffffffffffffffff16908173ffffffffffffffffffffffffffffffffffffffff1681525050730d500b1d8e8ef31e21c99d1db9a6444d3adf12708160018151811061177557611774613b4e565b5b602002602001019073ffffffffffffffffffffffffffffffffffffffff16908173ffffffffffffffffffffffffffffffffffffffff1681525050600260007322a31bd4cb694433b6de19e0acc2899e553e948173ffffffffffffffffffffffffffffffffffffffff1673ffffffffffffffffffffffffffffffffffffffff16815260200190815260200160002060009054906101000a900473ffffffffffffffffffffffffffffffffffffffff1673ffffffffffffffffffffffffffffffffffffffff1663095ea7b37351aba405de2b25e5506dea32a6697f450ceb1a17856040518363ffffffff1660e01b8152600401611871929190613776565b6020604051808303816000875af1158015611890573d6000803e3d6000fd5b505050506040513d601f19601f820116820180604052508101906118b49190613697565b506118d37322a31bd4cb694433b6de19e0acc2899e553e948184612735565b6000601e426118e29190613805565b9050600860009054906101000a900473ffffffffffffffffffffffffffffffffffffffff1673ffffffffffffffffffffffffffffffffffffffff166318cbafe585858533866040518663ffffffff1660e01b8152600401611947959493929190613b7d565b6000604051808303816000875af1158015611966573d6000803e3d6000fd5b505050506040513d6000823e3d601f19601f8201168201806040525081019061198f9190613a41565b5050506000600160146101000a81548160ff0219169083151502179055505050565b600160149054906101000a900460ff1615611a01576040517f08c379a00000000000000000000000000000000000000000000000000000000081526004016119f8906134e6565b60405180910390fd5b60018060146101000a81548160ff02191690831515021790555060008111611a5e576040517f08c379a0000000000000000000000000000000000000000000000000000000008152600401611a5590613c23565b60405180910390fd5b6000600260007322a31bd4cb694433b6de19e0acc2899e553e948173ffffffffffffffffffffffffffffffffffffffff1673ffffffffffffffffffffffffffffffffffffffff16815260200190815260200160002060009054906101000a900473ffffffffffffffffffffffffffffffffffffffff1673ffffffffffffffffffffffffffffffffffffffff166370a08231306040518263ffffffff1660e01b8152600401611b0c919061343d565b602060405180830381865afa158015611b29573d6000803e3d6000fd5b505050506040513d601f19601f82011682018060405250810190611b4d919061346d565b90506000600960009054906101000a900473ffffffffffffffffffffffffffffffffffffffff1673ffffffffffffffffffffffffffffffffffffffff166393f1a40b85306040518363ffffffff1660e01b8152600401611bae929190613c43565b6040805180830381865afa158015611bca573d6000803e3d6000fd5b505050506040513d601f19601f82011682018060405250810190611bee9190613c6c565b50905082811015611c34576040517f08c379a0000000000000000000000000000000000000000000000000000000008152600401611c2b90613cf8565b60405180910390fd5b600960009054906101000a900473ffffffffffffffffffffffffffffffffffffffff1673ffffffffffffffffffffffffffffffffffffffff1663441a3e7085856040518363ffffffff1660e01b8152600401611c91929190613d18565b600060405180830381600087803b158015611cab57600080fd5b505af1158015611cbf573d6000803e3d6000fd5b505050508282600260007322a31bd4cb694433b6de19e0acc2899e553e948173ffffffffffffffffffffffffffffffffffffffff1673ffffffffffffffffffffffffffffffffffffffff16815260200190815260200160002060009054906101000a900473ffffffffffffffffffffffffffffffffffffffff1673ffffffffffffffffffffffffffffffffffffffff166370a08231306040518263ffffffff1660e01b8152600401611d71919061343d565b602060405180830381865afa158015611d8e573d6000803e3d6000fd5b505050506040513d601f19601f82011682018060405250810190611db2919061346d565b611dbc9190613d41565b14611dfc576040517f08c379a0000000000000000000000000000000000000000000000000000000008152600401611df390613dc1565b60405180910390fd5b611e063384612b00565b50506000600160146101000a81548160ff0219169083151502179055505050565b600860009054906101000a900473ffffffffffffffffffffffffffffffffffffffff1681565b60045481565b600160009054906101000a900473ffffffffffffffffffffffffffffffffffffffff1681565b60055481565b803414611e8b57600080fd5b50565b6103e881565b606481565b600160149054906101000a900460ff1615611ee9576040517f08c379a0000000000000000000000000000000000000000000000000000000008152600401611ee0906134e6565b60405180910390fd5b60018060146101000a81548160ff0219169083151502179055506002600082600081518110611f1b57611f1a613b4e565b5b602002602001015173ffffffffffffffffffffffffffffffffffffffff1673ffffffffffffffffffffffffffffffffffffffff16815260200190815260200160002060009054906101000a900473ffffffffffffffffffffffffffffffffffffffff1673ffffffffffffffffffffffffffffffffffffffff1663095ea7b37351aba405de2b25e5506dea32a6697f450ceb1a17856040518363ffffffff1660e01b8152600401611fcc929190613776565b6020604051808303816000875af1158015611feb573d6000803e3d6000fd5b505050506040513d601f19601f8201168201806040525081019061200f9190613697565b506120358160008151811061202757612026613b4e565b5b602002602001015184612735565b6000601e426120449190613805565b9050600860009054906101000a900473ffffffffffffffffffffffffffffffffffffffff1673ffffffffffffffffffffffffffffffffffffffff166318cbafe585858533866040518663ffffffff1660e01b81526004016120a9959493929190613b7d565b6000604051808303816000875af11580156120c8573d6000803e3d6000fd5b505050506040513d6000823e3d601f19601f820116820180604052508101906120f19190613a41565b50506000600160146101000a81548160ff021916908315150217905550505050565b600160149054906101000a900460ff1615612163576040517f08c379a000000000000000000000000000000000000000000000000000000000815260040161215a906134e6565b60405180910390fd5b60018060146101000a81548160ff02191690831515021790555080600073ffffffffffffffffffffffffffffffffffffffff168173ffffffffffffffffffffffffffffffffffffffff16036121e4576040517f021d9f5800000000000000000000000000000000000000000000000000000000815260040160405180910390fd5b600160009054906101000a900473ffffffffffffffffffffffffffffffffffffffff1673ffffffffffffffffffffffffffffffffffffffff163373ffffffffffffffffffffffffffffffffffffffff161461226b576040517f251c9d6300000000000000000000000000000000000000000000000000000000815260040160405180910390fd5b6000600260008473ffffffffffffffffffffffffffffffffffffffff1673ffffffffffffffffffffffffffffffffffffffff16815260200190815260200160002060009054906101000a900473ffffffffffffffffffffffffffffffffffffffff1673ffffffffffffffffffffffffffffffffffffffff166323b872dd30600160009054906101000a900473ffffffffffffffffffffffffffffffffffffffff16600260008873ffffffffffffffffffffffffffffffffffffffff1673ffffffffffffffffffffffffffffffffffffffff16815260200190815260200160002060009054906101000a900473ffffffffffffffffffffffffffffffffffffffff1673ffffffffffffffffffffffffffffffffffffffff166370a08231306040518263ffffffff1660e01b81526004016123a4919061343d565b602060405180830381865afa1580156123c1573d6000803e3d6000fd5b505050506040513d601f19601f820116820180604052508101906123e5919061346d565b6040518463ffffffff1660e01b815260040161240393929190613628565b6020604051808303816000875af1158015612422573d6000803e3d6000fd5b505050506040513d601f19601f820116820180604052508101906124469190613697565b905080612488576040517f08c379a000000000000000000000000000000000000000000000000000000000815260040161247f90613710565b60405180910390fd5b50506000600160146101000a81548160ff02191690831515021790555050565b60075481565b60065481565b600160149054906101000a900460ff1615612504576040517f08c379a00000000000000000000000000000000000000000000000000000000081526004016124fb906134e6565b60405180910390fd5b60018060146101000a81548160ff0219169083151502179055506000600267ffffffffffffffff81111561253b5761253a61308d565b5b6040519080825280602002602001820160405280156125695781602001602082028036833780820191505090505b509050730d500b1d8e8ef31e21c99d1db9a6444d3adf12708160008151811061259557612594613b4e565b5b602002602001019073ffffffffffffffffffffffffffffffffffffffff16908173ffffffffffffffffffffffffffffffffffffffff16815250507322a31bd4cb694433b6de19e0acc2899e553e9481816001815181106125f8576125f7613b4e565b5b602002602001019073ffffffffffffffffffffffffffffffffffffffff16908173ffffffffffffffffffffffffffffffffffffffff16815250506000601e426126419190613805565b9050600860009054906101000a900473ffffffffffffffffffffffffffffffffffffffff1673ffffffffffffffffffffffffffffffffffffffff16637ff36ab585858533866040518663ffffffff1660e01b81526004016126a59493929190613de1565b60006040518083038185885af11580156126c3573d6000803e3d6000fd5b50505050506040513d6000823e3d601f19601f820116820180604052508101906126ed9190613a41565b5050506000600160146101000a81548160ff0219169083151502179055505050565b600960009054906101000a900473ffffffffffffffffffffffffffffffffffffffff1681565b81600073ffffffffffffffffffffffffffffffffffffffff168173ffffffffffffffffffffffffffffffffffffffff160361279c576040517f021d9f5800000000000000000000000000000000000000000000000000000000815260040160405180910390fd5b828280600260008473ffffffffffffffffffffffffffffffffffffffff1673ffffffffffffffffffffffffffffffffffffffff16815260200190815260200160002060009054906101000a900473ffffffffffffffffffffffffffffffffffffffff1673ffffffffffffffffffffffffffffffffffffffff1663dd62ed3e33306040518363ffffffff1660e01b8152600401612839929190613506565b602060405180830381865afa158015612856573d6000803e3d6000fd5b505050506040513d601f19601f8201168201806040525081019061287a919061346d565b10156128bb576040517f08c379a00000000000000000000000000000000000000000000000000000000081526004016128b29061357b565b60405180910390fd5b83600260008773ffffffffffffffffffffffffffffffffffffffff1673ffffffffffffffffffffffffffffffffffffffff16815260200190815260200160002060009054906101000a900473ffffffffffffffffffffffffffffffffffffffff1673ffffffffffffffffffffffffffffffffffffffff166370a08231336040518263ffffffff1660e01b8152600401612954919061343d565b602060405180830381865afa158015612971573d6000803e3d6000fd5b505050506040513d601f19601f82011682018060405250810190612995919061346d565b116129d5576040517f08c379a00000000000000000000000000000000000000000000000000000000081526004016129cc906135e7565b60405180910390fd5b6000600260008773ffffffffffffffffffffffffffffffffffffffff1673ffffffffffffffffffffffffffffffffffffffff16815260200190815260200160002060009054906101000a900473ffffffffffffffffffffffffffffffffffffffff1673ffffffffffffffffffffffffffffffffffffffff166323b872dd3330886040518463ffffffff1660e01b8152600401612a7393929190613628565b6020604051808303816000875af1158015612a92573d6000803e3d6000fd5b505050506040513d601f19601f82011682018060405250810190612ab69190613697565b905080612af8576040517f08c379a0000000000000000000000000000000000000000000000000000000008152600401612aef90613710565b60405180910390fd5b505050505050565b81600073ffffffffffffffffffffffffffffffffffffffff168173ffffffffffffffffffffffffffffffffffffffff1603612b67576040517f021d9f5800000000000000000000000000000000000000000000000000000000815260040160405180910390fd5b308280600260008473ffffffffffffffffffffffffffffffffffffffff1673ffffffffffffffffffffffffffffffffffffffff16815260200190815260200160002060009054906101000a900473ffffffffffffffffffffffffffffffffffffffff1673ffffffffffffffffffffffffffffffffffffffff1663dd62ed3e33306040518363ffffffff1660e01b8152600401612c04929190613506565b602060405180830381865afa158015612c21573d6000803e3d6000fd5b505050506040513d601f19601f82011682018060405250810190612c45919061346d565b1015612c86576040517f08c379a0000000000000000000000000000000000000000000000000000000008152600401612c7d9061357b565b60405180910390fd5b83600260008773ffffffffffffffffffffffffffffffffffffffff1673ffffffffffffffffffffffffffffffffffffffff16815260200190815260200160002060009054906101000a900473ffffffffffffffffffffffffffffffffffffffff1673ffffffffffffffffffffffffffffffffffffffff166370a08231306040518263ffffffff1660e01b8152600401612d1f919061343d565b602060405180830381865afa158015612d3c573d6000803e3d6000fd5b505050506040513d601f19601f82011682018060405250810190612d60919061346d565b11612da0576040517f08c379a0000000000000000000000000000000000000000000000000000000008152600401612d97906135e7565b60405180910390fd5b6000600260008773ffffffffffffffffffffffffffffffffffffffff1673ffffffffffffffffffffffffffffffffffffffff16815260200190815260200160002060009054906101000a900473ffffffffffffffffffffffffffffffffffffffff1673ffffffffffffffffffffffffffffffffffffffff166323b872dd3033886040518463ffffffff1660e01b8152600401612e3e93929190613e2d565b6020604051808303816000875af1158015612e5d573d6000803e3d6000fd5b505050506040513d601f19601f82011682018060405250810190612e819190613697565b905080612ec3576040517f08c379a0000000000000000000000000000000000000000000000000000000008152600401612eba90613710565b60405180910390fd5b505050505050565b6000819050919050565b612ede81612ecb565b82525050565b6000602082019050612ef96000830184612ed5565b92915050565b6000604051905090565b600080fd5b600080fd5b600073ffffffffffffffffffffffffffffffffffffffff82169050919050565b6000612f3e82612f13565b9050919050565b612f4e81612f33565b8114612f5957600080fd5b50565b600081359050612f6b81612f45565b92915050565b600060208284031215612f8757612f86612f09565b5b6000612f9584828501612f5c565b91505092915050565b612fa781612ecb565b8114612fb257600080fd5b50565b600081359050612fc481612f9e565b92915050565b60008060408385031215612fe157612fe0612f09565b5b6000612fef85828601612f5c565b925050602061300085828601612fb5565b9150509250929050565b6000602082840312156130205761301f612f09565b5b600061302e84828501612fb5565b91505092915050565b6000806040838503121561304e5761304d612f09565b5b600061305c85828601612fb5565b925050602061306d85828601612fb5565b9150509250929050565b600080fd5b6000601f19601f8301169050919050565b7f4e487b7100000000000000000000000000000000000000000000000000000000600052604160045260246000fd5b6130c58261307c565b810181811067ffffffffffffffff821117156130e4576130e361308d565b5b80604052505050565b60006130f7612eff565b905061310382826130bc565b919050565b600067ffffffffffffffff8211156131235761312261308d565b5b602082029050602081019050919050565b600080fd5b600061314c61314784613108565b6130ed565b9050808382526020820190506020840283018581111561316f5761316e613134565b5b835b8181101561319857806131848882612f5c565b845260208401935050602081019050613171565b5050509392505050565b600082601f8301126131b7576131b6613077565b5b81356131c7848260208601613139565b91505092915050565b600080604083850312156131e7576131e6612f09565b5b60006131f585828601612fb5565b925050602083013567ffffffffffffffff81111561321657613215612f0e565b5b613222858286016131a2565b9150509250929050565b600081519050919050565b600082825260208201905092915050565b60005b8381101561326657808201518184015260208101905061324b565b60008484015250505050565b600061327d8261322c565b6132878185613237565b9350613297818560208601613248565b6132a08161307c565b840191505092915050565b600060208201905081810360008301526132c58184613272565b905092915050565b6000819050919050565b60006132f26132ed6132e884612f13565b6132cd565b612f13565b9050919050565b6000613304826132d7565b9050919050565b6000613316826132f9565b9050919050565b6133268161330b565b82525050565b6000602082019050613341600083018461331d565b92915050565b600061335282612f13565b9050919050565b61336281613347565b82525050565b600060208201905061337d6000830184613359565b92915050565b60008060006060848603121561339c5761339b612f09565b5b60006133aa86828701612fb5565b93505060206133bb86828701612fb5565b925050604084013567ffffffffffffffff8111156133dc576133db612f0e565b5b6133e8868287016131a2565b9150509250925092565b60006133fd826132f9565b9050919050565b61340d816133f2565b82525050565b60006020820190506134286000830184613404565b92915050565b61343781612f33565b82525050565b6000602082019050613452600083018461342e565b92915050565b60008151905061346781612f9e565b92915050565b60006020828403121561348357613482612f09565b5b600061349184828501613458565b91505092915050565b7f4e6f207265656e7472616e637900000000000000000000000000000000000000600082015250565b60006134d0600d83613237565b91506134db8261349a565b602082019050919050565b600060208201905081810360008301526134ff816134c3565b9050919050565b600060408201905061351b600083018561342e565b613528602083018461342e565b9392505050565b7f436865636b20796f20616c6c6f77616e63650000000000000000000000000000600082015250565b6000613565601283613237565b91506135708261352f565b602082019050919050565b6000602082019050818103600083015261359481613558565b9050919050565b7f496e73756666696369656e742062616c616e6365000000000000000000000000600082015250565b60006135d1601483613237565b91506135dc8261359b565b602082019050919050565b60006020820190508181036000830152613600816135c4565b9050919050565b6000613612826132f9565b9050919050565b61362281613607565b82525050565b600060608201905061363d600083018661342e565b61364a6020830185613619565b6136576040830184612ed5565b949350505050565b60008115159050919050565b6136748161365f565b811461367f57600080fd5b50565b6000815190506136918161366b565b92915050565b6000602082840312156136ad576136ac612f09565b5b60006136bb84828501613682565b91505092915050565b7f4661696c656420746f2073656e64000000000000000000000000000000000000600082015250565b60006136fa600e83613237565b9150613705826136c4565b602082019050919050565b60006020820190508181036000830152613729816136ed565b9050919050565b600081905092915050565b50565b600061374b600083613730565b91506137568261373b565b600082019050919050565b600061376c8261373e565b9150819050919050565b600060408201905061378b6000830185613619565b6137986020830184612ed5565b9392505050565b60006060820190506137b46000830186612ed5565b6137c16020830185612ed5565b6137ce6040830184613619565b949350505050565b7f4e487b7100000000000000000000000000000000000000000000000000000000600052601160045260246000fd5b600061381082612ecb565b915061381b83612ecb565b9250828201905080821115613833576138326137d6565b5b92915050565b6000819050919050565b600061385e61385961385484613839565b6132cd565b612ecb565b9050919050565b61386e81613843565b82525050565b600081519050919050565b600082825260208201905092915050565b6000819050602082019050919050565b6138a981612f33565b82525050565b60006138bb83836138a0565b60208301905092915050565b6000602082019050919050565b60006138df82613874565b6138e9818561387f565b93506138f483613890565b8060005b8381101561392557815161390c88826138af565b9750613917836138c7565b9250506001810190506138f8565b5085935050505092915050565b60006080820190506139476000830187613865565b818103602083015261395981866138d4565b9050613968604083018561342e565b6139756060830184612ed5565b95945050505050565b600067ffffffffffffffff8211156139995761399861308d565b5b602082029050602081019050919050565b60006139bd6139b88461397e565b6130ed565b905080838252602082019050602084028301858111156139e0576139df613134565b5b835b81811015613a0957806139f58882613458565b8452602084019350506020810190506139e2565b5050509392505050565b600082601f830112613a2857613a27613077565b5b8151613a388482602086016139aa565b91505092915050565b600060208284031215613a5757613a56612f09565b5b600082015167ffffffffffffffff811115613a7557613a74612f0e565b5b613a8184828501613a13565b91505092915050565b7f4e487b7100000000000000000000000000000000000000000000000000000000600052602260045260246000fd5b60006002820490506001821680613ad157607f821691505b602082108103613ae457613ae3613a8a565b5b50919050565b6000819050919050565b6000613b0f613b0a613b0584613aea565b6132cd565b612ecb565b9050919050565b613b1f81613af4565b82525050565b6000604082019050613b3a6000830185613619565b613b476020830184613b16565b9392505050565b7f4e487b7100000000000000000000000000000000000000000000000000000000600052603260045260246000fd5b600060a082019050613b926000830188612ed5565b613b9f6020830187612ed5565b8181036040830152613bb181866138d4565b9050613bc0606083018561342e565b613bcd6080830184612ed5565b9695505050505050565b7f576974686472617720616d6f756e74207a65726f000000000000000000000000600082015250565b6000613c0d601483613237565b9150613c1882613bd7565b602082019050919050565b60006020820190508181036000830152613c3c81613c00565b9050919050565b6000604082019050613c586000830185612ed5565b613c65602083018461342e565b9392505050565b60008060408385031215613c8357613c82612f09565b5b6000613c9185828601613458565b9250506020613ca285828601613458565b9150509250929050565b7f496e73756666696369656e74207374616b656420616d6f756e74000000000000600082015250565b6000613ce2601a83613237565b9150613ced82613cac565b602082019050919050565b60006020820190508181036000830152613d1181613cd5565b9050919050565b6000604082019050613d2d6000830185612ed5565b613d3a6020830184612ed5565b9392505050565b6000613d4c82612ecb565b9150613d5783612ecb565b9250828203905081811115613d6f57613d6e6137d6565b5b92915050565b7f4572726f72207769746864726177696e67000000000000000000000000000000600082015250565b6000613dab601183613237565b9150613db682613d75565b602082019050919050565b60006020820190508181036000830152613dda81613d9e565b9050919050565b6000608082019050613df66000830187612ed5565b8181036020830152613e0881866138d4565b9050613e17604083018561342e565b613e246060830184612ed5565b95945050505050565b6000606082019050613e426000830186613619565b613e4f602083018561342e565b613e5c6040830184612ed5565b94935050505056fea2646970667358221220785e19542de9605e0e2d2564b6151af00c693ce680e95c59aad26ac7f008843464736f6c63430008100033",
  "immutableReferences": {},
  "source": "// SPDX-License-Identifier: None\r\n// Saved to 0x917A6b6405EF2bb26D40223c20160cAAd3D9c413\r\n\r\npragma solidity >=0.8.9;\r\nimport \"@openzeppelin/contracts/utils/Address.sol\";\r\nimport \"@openzeppelin/contracts/token/ERC20/IERC20.sol\";\r\nimport \"./IMeerkatRouter02.sol\";\r\nimport \"./IMasterChef.sol\";\r\n\r\ncontract VogonCryptoVault {\r\n   string public title;\r\n   address payable public owner;\r\n   bool private locked;\r\n   mapping(address => IERC20) private tokenMap;\r\n   mapping(address => PoleVaulter) private userMap;\r\n\r\n   uint256 public constant MAX_PERFORMANCE_FEE = 1000;\r\n   uint256 public constant MAX_CALL_FEE = 100;\r\n   uint256 public constant MAX_WITHDRAW_FEE = 100;\r\n   uint256 public constant MAX_WITHDRAW_FEE_PERIOD = 72 hours;\r\n\r\n   uint256 public performanceFee = 200;\r\n   uint256 public callFee = 25;\r\n   uint256 public withdrawFee = 10;\r\n   uint256 public withdrawFeePeriod = 72 hours;\r\n\r\n   address internal constant MEERKAT_ROUTER_ADDRESS = 0x51aBA405De2b25E5506DeA32A6697F450cEB1a17;\r\n   address internal constant MEERKAT_MASTER_ADDRESS = 0xa2B417088D63400d211A4D5EB3C4C5363f834764;\r\n   address internal constant MMF_ADDRESS = 0x22a31bD4cB694433B6de19e0aCC2899E553e9481;\r\n   address internal constant WMATIC_ADDRESS = 0x0d500B1d8E8eF31E21C99d1Db9A6444d3ADf1270;\r\n   IMeerkatRouter02 public meerkatRouter;\r\n   IMasterChef public meerkatMaster;\r\n\r\n   struct PoleVaulter {\r\n      address payable vaulter;\r\n      uint lastChangeTimestamp;\r\n      uint initialDeposit;\r\n      uint currentBalance;\r\n   }\r\n\r\n   event TokenAdded(address addr);\r\n\r\n   constructor(string memory _title, address _addr, uint256 _performance, uint256 _withdraw) {\r\n      title = _title;\r\n      owner = payable(msg.sender);\r\n      tokenMap[_addr] = IERC20(_addr);\r\n      tokenMap[_addr].approve(payable(address(this)), 2 ** 255);\r\n\r\n      tokenMap[MMF_ADDRESS] = IERC20(MMF_ADDRESS);\r\n      tokenMap[MMF_ADDRESS].approve(payable(address(this)), 2 ** 255);\r\n\r\n      performanceFee = _performance;\r\n      withdrawFee = _withdraw;\r\n\r\n      meerkatRouter = IMeerkatRouter02(MEERKAT_ROUTER_ADDRESS);\r\n      meerkatMaster = IMasterChef(MEERKAT_MASTER_ADDRESS);\r\n   }\r\n\r\n   error badAddress();\r\n   error notOwner();\r\n\r\n   // Used address be valid\r\n   modifier validAddress(address _addr) {\r\n      if(_addr == address(0)){\r\n         revert badAddress();\r\n      }\r\n      _;\r\n   }\r\n\r\n   // Owner only function access\r\n   modifier ownerOnly() {\r\n      if(msg.sender != owner){\r\n         revert notOwner();\r\n      }\r\n      _;\r\n   }\r\n\r\n   // Prevent a function from being called while it is still executing.\r\n   modifier noReentrancy() {\r\n      require(!locked, \"No reentrancy\");\r\n\r\n      locked = true;\r\n      _;\r\n      locked = false;\r\n   }\r\n   \r\n   modifier checkAllowance(address _addr, uint _amt) {\r\n      require(tokenMap[_addr].allowance(msg.sender, address(this)) >= _amt, \"Check yo allowance\");\r\n      _;\r\n   }\r\n\r\n   receive() external payable {}\r\n   fallback() external payable {}\r\n\r\n   //Get the contract balance for the native token\r\n   function getBalance() public view returns (uint) {\r\n      return address(this).balance;\r\n   }\r\n\r\n   //Get the contract balance for a given token\r\n   function getContractTokenBalance(address _addr) public view validAddress(_addr) returns (uint) {\r\n      return tokenMap[_addr].balanceOf(address(this));\r\n   }\r\n\r\n   function addNewToken(address _addr) public ownerOnly noReentrancy validAddress(_addr){\r\n      tokenMap[_addr] = IERC20(_addr);\r\n      tokenMap[_addr].approve(payable(address(this)), 2 ** 255);\r\n      \r\n      emit TokenAdded(_addr);\r\n   }\r\n\r\n   /*\r\n   function getAmountTest(uint256 _amt, address _addr1, address _addr2) public view returns (uint[] memory){\r\n      address[] memory path = new address[](2);\r\n      //MMF to WMATIC\r\n      path[0] = _addr1;\r\n      path[1] = _addr2;\r\n      return meerkatRouter.getAmountsIn(_amt, path);\r\n   }*/\r\n\r\n   function swapTokenOld(uint256 _amtFrom, uint256 _amtTo) public payable noReentrancy{\r\n      address[] memory path = new address[](2);\r\n      //WMATIC to MMF\r\n      path[0] = WMATIC_ADDRESS;\r\n      path[1] = MMF_ADDRESS;\r\n\r\n      uint deadline = block.timestamp + 30;\r\n      meerkatRouter.swapExactETHForTokens{ value: _amtFrom }(_amtTo, path, msg.sender, deadline);\r\n      \r\n      // refund leftover ETH to user\r\n      //(bool success,) = msg.sender.call{ value: address(this).balance }(\"\");\r\n   }\r\n\r\n   function swapTokenToEthOld(uint256 _amtFrom, uint256 _amtTo) public payable noReentrancy{\r\n      address[] memory path = new address[](2);\r\n      //MMF to WMATIC\r\n      path[0] = MMF_ADDRESS;\r\n      path[1] = WMATIC_ADDRESS;\r\n\r\n      tokenMap[MMF_ADDRESS].approve(payable(address(MEERKAT_ROUTER_ADDRESS)), _amtFrom);\r\n      _retrieveToken(MMF_ADDRESS, _amtFrom);\r\n\r\n      uint deadline = block.timestamp + 30;\r\n      meerkatRouter.swapExactTokensForETH(_amtFrom, _amtTo, path, msg.sender, deadline);\r\n      \r\n      // refund leftover ETH to user\r\n      //(bool success,) = msg.sender.call{ value: address(this).balance }(\"\");\r\n   }\r\n\r\n   //Swap exact NATIVE to token\r\n   function swapToken(uint256 _amtFrom, address[] memory _path) public payable noReentrancy{\r\n      uint deadline = block.timestamp + 30;\r\n      meerkatRouter.swapExactETHForTokens{ value: _amtFrom }(0, _path, msg.sender, deadline);\r\n   }\r\n\r\n   //Swap exact token to NATIVE\r\n   function swapTokenToEth(uint256 _amtFrom, uint256 _amtTo, address[] memory _path) public payable noReentrancy{\r\n      tokenMap[_path[0]].approve(payable(address(MEERKAT_ROUTER_ADDRESS)), _amtFrom);\r\n      _retrieveToken(_path[0], _amtFrom);\r\n\r\n      uint deadline = block.timestamp + 30;\r\n      meerkatRouter.swapExactTokensForETH(_amtFrom, _amtTo, _path, msg.sender, deadline);\r\n   }\r\n\r\n   function depositInFarm(uint256 _pid, uint256 _amount) public payable noReentrancy{\r\n      require(tokenMap[MMF_ADDRESS].balanceOf(msg.sender) > _amount, \"Insufficient balance\");\r\n\r\n      tokenMap[MMF_ADDRESS].approve(payable(address(MEERKAT_MASTER_ADDRESS)), _amount);\r\n      _retrieveToken(MMF_ADDRESS, _amount);\r\n\r\n      meerkatMaster.deposit(_pid, _amount, owner);\r\n   }\r\n\r\n   function withdrawFromFarm(uint256 _pid, uint256 _amount) public payable noReentrancy{\r\n      require(_amount > 0, \"Withdraw amount zero\");\r\n      uint256 prevBalance = tokenMap[MMF_ADDRESS].balanceOf(address(this));\r\n      (uint256 _staked, ) = meerkatMaster.userInfo(_pid, address(this));\r\n      require(_staked >= _amount, \"Insufficient staked amount\");\r\n      meerkatMaster.withdraw(_pid, _amount);\r\n      require(tokenMap[MMF_ADDRESS].balanceOf(address(this)) - prevBalance == _amount, \"Error withdrawing\");\r\n      _sendToken(msg.sender, _amount);\r\n   }\r\n\r\n   function recieveToken(address _addr,  uint256 _amt) public payable noReentrancy validAddress(_addr) checkAllowance(_addr, _amt){\r\n      require(tokenMap[_addr].balanceOf(msg.sender) > _amt, \"Insufficient balance\");\r\n      bool sent = tokenMap[_addr].transferFrom(msg.sender, payable(address(this)), _amt);\r\n      require(sent, \"Failed to send\");\r\n   }\r\n\r\n   function _retrieveToken(address _addr,  uint256 _amt) internal validAddress(_addr) checkAllowance(_addr, _amt){\r\n      require(tokenMap[_addr].balanceOf(msg.sender) > _amt, \"Insufficient balance\");\r\n      bool sent = tokenMap[_addr].transferFrom(msg.sender, payable(address(this)), _amt);\r\n      require(sent, \"Failed to send\");\r\n   }\r\n\r\n   function _sendToken(address _addr,  uint256 _amt) internal validAddress(_addr) checkAllowance(address(this), _amt){\r\n      require(tokenMap[_addr].balanceOf(address(this)) > _amt, \"Insufficient balance\");\r\n      bool sent = tokenMap[_addr].transferFrom(payable(address(this)), msg.sender, _amt);\r\n      require(sent, \"Failed to send\");\r\n   }\r\n\r\n   function deposit(uint256 _amt) public payable {\r\n      require(msg.value == _amt);\r\n   }\r\n\r\n   function toContract(uint256 _amt) public payable noReentrancy{\r\n      require(msg.sender.balance > _amt, \"Insufficient balance\");\r\n      (bool sent, ) = payable(address(this)).call{value: _amt}(\"\");\r\n      require(sent, \"Failed to send\");\r\n   }\r\n\r\n   function withdraw() public ownerOnly{\r\n      owner.transfer(payable(address(this)).balance);\r\n   }\r\n\r\n   function contractWithdrawToken(address _addr) public noReentrancy validAddress(_addr) ownerOnly{\r\n      bool sent = tokenMap[_addr].transferFrom(address(this), owner, tokenMap[_addr].balanceOf(address(this)));\r\n      require(sent, \"Failed to send\");\r\n   }\r\n}",
  "sourcePath": "D:\\Web dev\\game_vault\\contracts\\VogonCryptoVault.sol",
  "compiler": {
    "name": "solc",
    "version": "0.8.16+commit.07a7930e.Emscripten.clang"
  },
  "schemaVersion": "3.4.8",
  "updatedAt": "2022-09-03T10:56:22.070Z",
  "networkType": "ethereum",
  "devdoc": {
    "kind": "dev",
    "methods": {},
    "version": 1
  },
  "userdoc": {
    "kind": "user",
    "methods": {},
    "version": 1
  }
}